:020000040001F9
:10C00000003B0020F5C001000FC1010011C101007B
:10C010000000000000000000000000000000000020
:10C0200000000000000000000000000013C101003B
:10C03000000000000000000015C1010017C1010050
:10C0400019C1010019C10100ADC4010019C10100ED
:10C0500019C101000000000075C2010019C10100F2
:10C0600019C1010019C1010019C1010019C1010064
:10C0700019C1010019C1010019C1010019C1010054
:10C0800019C10100C1C3010019C1010019C101009A
:10C09000E1C3010019C1010035C4010019C101004B
:10C0A00019C1010019C101000000000000000000DA
:10C0B0000000000000000000000000000000000080
:10C0C0000348854600F0A6F800480047EDF9010056
:10C0D000003B0020401E00BF00BF00BF00BF00BFEC
:10C0E00000BF00BF00BF00BF00BF00BF00BFF1D155
:10C0F000704700000321094802680A4302600848AB
:10C1000002680A4302600748804707480047FEE785
:10C11000FEE7FEE7FEE7FEE7FEE70000240500403D
:10C120005405004059C40100C1C0010030B50B46A0
:10C13000014600202022012409E00D46D5409D4201
:10C1400005D31D469540491B254695404019154687
:10C15000521E002DF1DC30BD70B5002425460028AC
:10C1600001DA01244042002901DA01254942FFF7A2
:10C17000DDFFAC4200D04042002C00D0494270BDEF
:10C1800010B5431A934209D28318881803E0401E61
:10C1900001785B1E1970521EF9D210BD03460B4385
:10C1A0009B0703D009E008C9121F08C0042AFAD26D
:10C1B00003E00B780370401C491C521EF9D210BDDD
:10C1C000D2B201E00270401C491EFBD2704700222F
:10C1D000F6E710B513460A4604461946FFF7F0FF86
:10C1E000204610BD30B504460020034600E05B1C2D
:10C1F000934203D2E05CCD5C401BF8D030BD0321FC
:10C20000001D401E037812021A43491EF9D510463C
:10C2100070470000064C0125064E05E0E36807CC98
:10C220002B430C3C98471034B442F7D3FFF74CFF34
:10C23000781502009815020030B58C180278401C61
:10C2400013071B0F01D10378401C120906D1027895
:10C25000401C03E005780D70401C491C5B1EF9D1A1
:10C2600001E00B70491C521EFBD1A142E6D3002015
:10C2700030BD0000F8B50024FF2501350126274612
:10C280000094284603F07CFE002808D0344840681B
:10C29000304204D0334800212818344301602D1D5A
:10C2A00076007F1CADB2042FEBD3FF207D3003F06E
:10C2B00067FE002807D02C48002101604007044396
:10C2C0002A48006900902A4F200712D00126002535
:10C2D00026420AD02748AA00111808690969C00433
:10C2E000C00E8903BA58890F904776006D1C042D43
:10C2F000EED3002C30DA00241D4E082130194030D6
:10C300004156491C25D0077ABD06AD0E284601F0DE
:10C31000E9FD80003658002E1BD0BF090121A9403D
:10C32000154AA80080180068009A8003800F114207
:10C3300002D0022802D00CE003280AD1032F05D135
:10C3400002280AD00221284603F00AFE3946284670
:10C35000B047641C062CCFD3F8BD0321F3E70000DF
:10C3600000630040006000407C6100400005005018
:10C37000D831002000650040000700508307FF22ED
:10C38000DB0E9A408907090E994000280BDA000756
:10C39000000F0838830808489B001818C3699343A6
:10C3A0000B43C3617047830804489B001B1818683F
:10C3B000904308431860704700ED00E000E400E09F
:10C3C00010B506490020086048608860C8600349CD
:10C3D00040390860486004F0FFFE10BD4011014084
:10C3E000FEB50020C043124D029068690190684676
:10C3F0002E6902F063FE074603F036FA0446002F6A
:10C4000008D002AA0199009802F078FE029803F081
:10C4100075FA06E0029803F071FA002801D1002CA9
:10C4200002D0304601F086FE00206871FEBD00009B
:10C430000429002010B507484068002807D080472D
:10C44000002803D00022114600F0FEFA10BD03F0D0
:10C4500043F910BD2C29002010B503F0ADF90028D8
:10C4600005D00E490C484860C8130D4988610D4835
:10C47000018CC9B201290ED1818C09070BD1018D24
:10C480000906090F042906D1808D0006000F02D18C
:10C4900005490120886010BDDFFF07C0000500408E
:10C4A000006C0040C00F00F0000600407CB51B4C43
:10C4B000A0681B4E0025002818D0A5601948806987
:10C4C000C1B2194800F0F7FA002805D001216A46E8
:10C4D00011700190684607E013488168C068401AEF
:10C4E000012803D16846057071688847E069002813
:10C4F00003D0E561032003F047FF606A00280BD0FA
:10C500006562084980390868086002216A4611702E
:10C5100001907168684688477CBD0000002100409A
:10C52000C028002000250040B83100200FB410B50D
:10C5300003A9044B044A029800F024F810BC08BC7C
:10C5400004B0184709F201002829002030B47446CD
:10C55000641E2578641CAB4200D21D46635D5B00FF
:10C56000E31830BC184702E008C8121F08C1002AAF
:10C57000FAD170477047002001E001C1121F002A64
:10C58000FBD17047FFB58DB00F460546002606E08B
:10C5900025280AD0109A0F9990476D1C761C287890
:10C5A0000028F5D1304611B0F0BD00240121674AC2
:10C5B000009400E004436D1C2B780846203B984013
:10C5C0001042F7D128782E2815D10420044368782A
:10C5D0006D1C2A280AD101CF6D1C00900BE0009938
:10C5E0000A225143303940186D1C009028780146CA
:10C5F00030390929F3D92878692843D006DC002886
:10C60000D0D063280BD0642804D13BE073280FD02E
:10C6100075284CD0109A0F999047761C94E0387882
:10C62000694608720020487202A80190012003E0C8
:10C63000386801900020C0433F1D61070CD50024DD
:10C6400000E0641C00998C420FDA8442F9DB019906
:10C65000095D0029F5D108E0002400E0641C844253
:10C66000FCDB0199095D0029F8D1361907E0019832
:10C6700001990078491C0191109A0F999047641E06
:10C68000F5D261E00A20019001CF002802DA404291
:10C690002D2102E0210504D52B216A4611720121CA
:10C6A00003E0E10701D02021F7E70C9104E00A2024
:10C6B000019001CF00210C910BA90B9108E0019989
:10C6C000FFF734FD0A460B993032491E0B910A7070
:10C6D0000028F4D10B9803A9081A203001906007B4
:10C6E00001D5009801E0012000900199884203DD06
:10C6F00001460198081A00E000200024009006E09E
:10C7000002A8109A005D0F999047641C761C0C9843
:10C710008442F5DB04E0109A30200F999047761C94
:10C720000099481E00900029F5DC08E00B980B9951
:10C730000078491C0B91109A0F999047761C01992B
:10C74000481E01900029F1DC6D1C28E70928010032
:10C7500038B50D4C6078022802D00C490120886061
:10C7600069460B4800F084F9002802D000F016F862
:10C7700038BD0848802181606A46074B1278DA612B
:10C7800002226270416038BDC028002000200040B5
:10C79000C831002000230040002500401CB5064998
:10C7A0000120C8600549487003206A461070496836
:10C7B000684688471CBD000000200040C0280020BB
:10C7C00004490020487004490122CA604A600349B4
:10C7D00008607047C028002000200040002500406D
:10C7E000F7B582B00026054616700078144600287A
:10C7F00005D02846039903F025FA060008D1A87849
:10C8000000281ED02078039F001D1F2802D90C206D
:10C8100005B0F0BD684679DF0028F9D12178032200
:10C82000481C20707A5421781922481C20707A54B0
:10C830002078C1196846008804F05EFD2178401810
:10C840002070E8780223002810D02078039A411C39
:10C850002170135420780399471C012227700A5431
:10C860002078EA78471C039927700A5468680028E2
:10C8700015D00021415620788C460246C01C0399F1
:10C880001F28C4D8501C20708B5422780A23501CB7
:10C8900020708B5420786246431C23700A542889E8
:10C8A000002809D028460094062202210830039B64
:10C8B00004F0A0FD0600ABD1288A002809D0284644
:10C8C0000094072203211030039B04F093FD06001F
:10C8D0009ED1288B002809D02846009415221421C7
:10C8E0001830039B04F086FD060091D1286A0028C9
:10C8F00005D02246039901F06FFC060088D1686AD2
:10C90000002805D02246039903F06AF9060084D175
:10C910002C20405D002806D022462846039904F0CA
:10C92000E9F90600C7D1304672E770B500238D885B
:10C930000C680DE0E6187678E15C864206D1E018D6
:10C94000801C491E10609180002070BD5B185B1C2C
:10C950009D42EFD8052070BD10B5012202210020B4
:10C9600001F022F9002801D0072812D10722022164
:10C97000012001F019F9002801D0072809D1002170
:10C980000A22084601F010F9002801D0072800D13A
:10C99000002010BD0448426808210B469343836081
:10C9A0000A40C260704700000005005070B50024C6
:10C9B000064D06E06968E000085C012103F0AEF96D
:10C9C000641C28788442F5D3002070BDEC28002038
:10C9D000F8B515460C460646052A01D20720F8BDD3
:10C9E00003F06AFA002803D103F03CFA0028F6D1DC
:10C9F000114900204E600C7008618D6048610F4D38
:10CA00000DE0E00029688019009181786A46517034
:10CA100000780B4A694603F0D1F90028DFD120469F
:10CA2000641EE4B20028ECD10348064A00210C3011
:10CA300000F078F8F8BD0000EC2800207415020022
:10CA4000B5F30100FDE40100BFF34F8F0449034833
:10CA5000C860BFF34F8F00BFFDE700000400FA0578
:10CA600000ED00E0014B1B681847000094310020E6
:10CA70008268C36893420AD0826883881A40036838
:10CA80009A5C0A708168491C81600020704705200B
:10CA90007047002906D0002A02D0531E134203D04B
:10CAA000092070470E20704701608380002181605B
:10CAB000C160084670478268C3689B1A82889342A7
:10CAC00008D8C36813400268D154C168491CC160CA
:10CAD000002070470420704738B50C46A2680C232C
:10CAE0005A43064B09789D58054A126A009202463D
:10CAF000204608302369A84738BD0000F4320020E2
:10CB0000C828002010B5064914230A785A43511842
:10CB1000091DFFF7E1FF042004F082F910BD0000B9
:10CB20002832002070B5114CA568002D06D0002ACF
:10CB300006D0002804D00023247809E0082070BD26
:10CB4000072070BD24265E43AE5D002E04D05B1C22
:10CB5000A342F7DB042070BD242401265C432E553C
:10CB600064196170A2610360002070BD0429002077
:10CB7000FFB59807002481B01E4615460F460028D1
:10CB80000BD1002E09D004F02FF822490A988861B1
:10CB90000F70324600208E6008E0072005B0F0BD1F
:10CBA00024234343D4549B181C75401CB842F7DB24
:10CBB00024204743BB19032048700F461846CB601A
:10CBC00019461830002218232E465E43D3005B1806
:10CBD0001C705C709D7058603018521C032AF5DB85
:10CBE0000020C0433861BC70FC7001240A48240551
:10CBF000046003211420FFF7C1FB08480460084CBF
:10CC00000198A06003211120FFF7B8FB60687861EC
:10CC10000020C3E70429002080E200E000E100E0FA
:10CC200000150140FEB504461D48174682680D46B2
:10CC3000002A0CD001788C4201D2052D01D20720A8
:10CC4000FEBD214624235943535C012B01D008200B
:10CC5000FEBD8818407801281DD0002604F08EFB08
:10CC6000C0000F490190C9684018694604F0B0FB44
:10CC7000002812D0012101700A4944604968083037
:10CC8000E2C007490198C96841180098487004F04B
:10CC900031FA0020FEBD2E46E0E70420FEBD000074
:10CCA0000429002000150140F8B5144D0446A86879
:10CCB000002809D029788C4201D30720F8BD24210F
:10CCC0006143405C012801D00820F8BD04F056FB08
:10CCD000C600E8686946301804F07AFB00280AD0DC
:10CCE000022101704460E86831180098487004F02F
:10CCF00001FA0020F8BD0420F8BD0000042900203E
:10CD0000FFB5584F83B000260D4604467E707A600A
:10CD100000292AD0A888296882B25348FFF7B9FEB3
:10CD2000002823D1A889A96882B24F481030FFF7A4
:10CD3000B0FE00281AD160784C49032280004018C8
:10CD4000026022783046920051180E60484D61789A
:10CD5000E96021786961A1686962454E6179403670
:10CD6000002905D00E21F16203E0072007B0F0BDD5
:10CD7000F0622379022B17D03E493F4A012B45D060
:10CD800004232B608860C861F06A40084000F062AC
:10CD9000581FA860286101209060106078700C987E
:10CDA000008800283FD043E003F086F8002803D134
:10CDB00003F058F80028D9D130486946006800903F
:10CDC000A07803F081F80028D0D1401E2861A07817
:10CDD000A860F06A01210843F0622848284A4068A8
:10CDE0000190E07801A902F0E9FF0028BED1E078C7
:10CDF000012102F093FFE07803F02AF8002801D027
:10CE0000002000E0012003F0BFFAC8E704232B60F4
:10CE10008860C861F16A01200143F162E17829610B
:10CE2000A178A960B8E70C9938780880401C387060
:10CE300000211448C9438160A12189004160124941
:10CE400004200860114B06991A68FF2424048907FE
:10CE5000090EA24309040A431A600D490860002024
:10CE600084E70000C0280020B831002000070050EF
:10CE70000025004000210040002000404415020031
:10CE800001F401000023004080E200E000E400E043
:10CE900000E100E010B501460448FFF70CFE04462F
:10CEA000022003F071FA204610BD0000C8310020B6
:10CEB00070B50C4692B000216A46117007251171B9
:10CEC000002809D0C17849070CD502A9FFF788FCD2
:10CED000002808D102AE00E00026002C0ED0E07839
:10CEE000002802D0284612B070BD01AA0AA9204627
:10CEF000FFF776FC0028F6D10AAA00E00022684677
:10CF000003790178304672DFEDE7000070B50D4619
:10CF100004991646040042D0002E40D04248002218
:10CF20004271C3600161242231464048FFF728F96D
:10CF300000F0D4F83D493431084610380160203102
:10CF4000816030215438FFF742F938482178303871
:10CF50000170A1788170E178C17061784170626977
:10CF6000216942610161E268A168C2608160014695
:10CF7000E369A269CB618A61616A002919D001461F
:10CF8000A4310246B03241628A60636A1B880B801A
:10CF9000616A436A898899800021436A06E00E200D
:10CFA00070BD666AB668765C5654491C9E888E428F
:10CFB000F7D8A16A00291CD01C4AAC3211460C39A2
:10CFC0008A608162A36A9B888B80A16A836A0988D0
:10CFD00019800021836A04E0A66AB668765C56541C
:10CFE000491C9E888E42F7D82C210A5D0F491039C2
:10CFF0000A73216A002909D00B4914310162226A9F
:10D0000052884A80216A026A098811806168002971
:10D0100004D00549891D4160616841600348294683
:10D020003038FFF745FF70BD50280020C02D00208C
:10D0300010B502881C4C102A17D00021112A1AD0D2
:10D04000192A11D1807900280ED1607901281ED0CB
:10D05000022822D0032822D0042805D12171E268B9
:10D060000846002A00D0904710BD017D0129FBD160
:10D070008088208110BD6170808821898842F9D123
:10D08000012005E021690029F4D0884710BD022065
:10D0900000F02CF80028F5D110BD0320F8E703209C
:10D0A00020710420F4E700005028002010B5022869
:10D0B00001D003280ED1084C207800280AD0002087
:10D0C0002070607900F012F8002803D0216900294F
:10D0D00000D0884710BD00005028002010B507215F
:10D0E0000148FFF774F810BD68280020F0B5754CB2
:10D0F00087B06071002606A8069603F0E1F90127C3
:10D10000082806D000286FD10698002802D0277082
:10D11000D4E00696FFF7E2FF6B4D6878002802D056
:10D120006079012805D0A87800280AD06079022803
:10D1300007D1E168002903D0E7700820884700E0A4
:10D14000E6706079012808D16878002809D05D4828
:10D15000193003F05DF9002803D06079022802D06D
:10D160000CE002206071A878002805D055481930DD
:10D1700003F04EF9002801D103206071287B0028BC
:10D1800004D16079032801D104206071287E002831
:10D1900004D16079042801D166712671E168002903
:10D1A0000AD06079032801D0042805D12878002806
:10D1B00002D06078002818D0A67018216846FFF7C2
:10D1C00006F8684606700196067203966079012893
:10D1D0000FD0022816D03C4E24363746543F032841
:10D1E0001CD004285ED13BE069E0A7700720884787
:10D1F000E3E734481830019068460770468206829B
:10D20000277152E02F48183001906846077029892D
:10D210004182A98801820220207146E0A88A6946DD
:10D220004882288A08822848243004F047F90028D8
:10D2300005D02878002802D06078002801D003208B
:10D240002FE002206946087204200396F8701E48F9
:10D2500000213038FFF72CFE002830D1052020E0D7
:10D26000A88B69460882288C48821748243004F02D
:10D2700025F9002805D02878002802D060780028F9
:10D2800001D004200DE002206946087204200396B4
:10D29000F8700D4800213038FFF70AFE00280ED143
:10D2A000062020716079002803D0684673DF0028CB
:10D2B00005D1E168002901D020798847002007B016
:10D2C000F0BD000050280020C02D002070B505469C
:10D2D00001461C220F48FEF753FF0F4C0026267014
:10D2E0002968002907D00822A018FEF749FF204628
:10D2F00008307ADF02E0084808307BDF002808D1D8
:10D30000401E608004486670044A0021001DFFF73B
:10D3100009FC70BD8C2E002070280020191302001B
:10D32000F8B5224C028800271F4DE689102A16D036
:10D3300029464968112A21D0122A2DD0502A1CD101
:10D34000C288801DB24218D1028B022A15D1C27E3A
:10D35000837E10021843C007C00F0CD112E08188F1
:10D36000698001461048082216311030FEF708FF88
:10D370006F70002E01D100F077FFF8BD0020C04390
:10D3800068806F700846FFF78FFC0028F5D0A16910
:10D390000029F2D08847F8BD811D034808221030CB
:10D3A000FEF7EEFEE7E70000702800208C2E00203C
:10D3B00030B5002815D0002913D00E4A1378002B61
:10D3C00011D09368022B10D011D20B4CDD002C1918
:10D3D00005882580408860805B1C61600020936028
:10D3E00030BD0E2030BD082030BD062030BD0420E9
:10D3F00030BD000088280020A82E0020002104480D
:10D40000012281600270C1604160084670470000DF
:10D410008828002070B5002815D0002913D0244A90
:10D420001278002A0FD00A88302A17D00CDC044664
:10D430004034102A10D0112A05D16221FEF7C7FE10
:10D440000020C043A08370BD322A2DD0332AFAD1E8
:10D45000091D02F0DDFE70BD8888F3E70546C88827
:10D46000091D002807D00021284601F0D5F92846DB
:10D4700002F05CFF70BD2C46603420782E225043B1
:10D4800040194A8902808A894280CA894285098A6C
:10D490008185284600F02EFD0100EBD00020607051
:10D4A000284601F0EFF970BD091D02F039FE70BD8C
:10D4B0008828002010B500280DD0144A1378002BBE
:10D4C0000BD09368002B08D0044660346378002B9F
:10D4D00005D0112010BD0E2010BD082010BD002366
:10D4E000D360536023700346024640330848998353
:10D4F0000188118040885080988B012190DF00289E
:10D50000ECD101206070002010BD000088280020B0
:10D51000A82E002070B50446007D1E4D022806D0BE
:10D52000A088E988884202D02989884216D12046FD
:10D5300001F0D0F921461848FFF76CFF1648214644
:10D54000643000F071F814482146703000F038F96A
:10D55000204600F089FA204602F034FD207D0128A3
:10D5600003D0A0886989884212D10B4821468C30AB
:10D5700000F0DEF808482146DC3000F0ABF9204628
:10D58000FFF7CEFE204602F099FD2046FFF750FD42
:10D5900070BD0000002800208C2C002070B50028F1
:10D5A0001CD00F4B02884488186814214143401C4A
:10D5B00040070C4D400F186049194C810220C8816A
:10D5C000081D086100248C810120087208714C71CB
:10D5D0000A80887003F040FE204670BD0E2070BDAA
:10D5E00098280020282F002008B5002814D00029F2
:10D5F00012D001236A469370084B1380084A90604A
:10D60000096881600021C9430180002141800549EA
:10D610006846FFF7CDFE08BD0E2008BD0D180000BE
:10D6200098280020ADE3010008B500281DD000298E
:10D630001BD00A88102A19D0372A1CD0382A14D1B6
:10D640008A8983889A4210D102226B461A708A7C9A
:10D65000D3074A1C002B0CD0D17C927C09021143C9
:10D660006A46518082686946904708BD8988018072
:10D6700008BDC97CF4E703F0EFFD08BD30B50446F2
:10D68000008C134A8BB090421FD006AA204601F0AE
:10D6900057FF6946054608800020019002900390DC
:10D6A000049022898A8001228A71088106A8039148
:10D6B0000490208C01A9A6DF002804D169460988BE
:10D6C000A94200D00C200BB030BD0820FBE70000C1
:10D6D000FFFF000038B504460868206008796071D3
:10D6E0000020C0430D4620840020222108554C21F3
:10D6F00008530121684681700C490180A21D6946CA
:10D700000120A0DF00280FD12946204601F0C0FEED
:10D71000002809D1A868002805D02946204600F035
:10D7200035F9002800D1002038BD00000D18000098
:10D7300038B50A88102A17D0112A17D0502A18D1C4
:10D74000CA888389891D9A4213D10A8B022A10D173
:10D750000268002A0DD0CB7E8C7E19022143C907B6
:10D76000C90F07D0002106E0898801E00021C943E4
:10D77000018438BD01216B4619706946904738BD58
:10D7800008B5002814D0002912D001236A469370EE
:10D79000084B1380084A9060096881600021C943E2
:10D7A00001800021418005496846FFF701FE08BD60
:10D7B0000E2008BD14180000A428002011E4010068
:10D7C00010B500280AD0002908D00A88102A06D0EF
:10D7D000372A07D0382A01D102F06AFD10BD8988A6
:10D7E000018010BD03F05AFD10BD000070B5002887
:10D7F0001CD00F4B02884488186814214143401CF8
:10D8000040070C4D400F186049194C810220C88117
:10D81000081D086100248C810120087208714C7178
:10D820000A80887003F03AFD204670BD0E2070BD5E
:10D83000A4280020C82F002038B5044608682060BE
:10D840000020C043E08248890D46208301216846BC
:10D85000817009490180221D69460120A0DF00284E
:10D8600009D12946204603F0C1F8002803D12946F2
:10D87000204603F075F838BD1418000030B5044692
:10D88000C08A134A8BB090421FD006AA204603F0EC
:10D8900005F9694605460880002001900290039032
:10D8A0000490E2888A8001228A71088106A8039187
:10D8B0000490E08A01A9A6DF002804D169460988FE
:10D8C000A94200D00C200BB030BD0820FBE70000BF
:10D8D000FFFF000038B50A88102A17D0112A17D088
:10D8E000502A18D1CA884389891D9A4213D10A8BBC
:10D8F000022A10D10268002A0DD0CB7E8C7E19023C
:10D900002143C907C90F07D0002106E0898801E03B
:10D910000021C943C18238BD01216B461970694697
:10D92000904738BD1CB5002348221549082003F054
:10D93000ABFA002803D000221146FFF785F800203B
:10D940000090694601900870684660DF002803D0A7
:10D9500000221146FFF778F80A4803F08BFA0028F6
:10D9600003D000221146FFF76FF8074803F0A4FA2E
:10D97000002803D000221146FFF766F81CBD000006
:10D980004429002015D50100AD100200F0B58FB07C
:10D990000D4606461C216846FEF719FC68460178CC
:10D9A000022001436846017000240194039404940A
:10D9B0000594012708A806948770154968460184D4
:10D9C0000794E97B0177297C4177807FF921084022
:10D9D000F721801C0840EF210840410849006846B3
:10D9E0008177142109A8FEF7F2FB08A8099007A87F
:10D9F0000A9068468785C4850786A8680D903346D7
:10DA0000F088103309AA6946A2DF0FB0F0BD00000C
:10DA1000382A00007CB5134E00250C4630600029E2
:10DA200018D06946002000F0A9F8002819D101A9F2
:10DA3000012000F0A3F8002813D1684601790020E6
:10DA4000002901D0022004E069460978002900D0AD
:10DA50000B2020707068002802D1FEF77DFF05467C
:10DA600028467CBD4828002010B51C4C0188606801
:10DA700010290DD011290AD1401E606007D1FEF790
:10DA80006BFF002803D02168002900D0884710BD13
:10DA900000281ED100210122084600F085F8002848
:10DAA00001D0072811D107220221012000F07CF8C3
:10DAB000002801D0072808D104220221002000F00C
:10DAC00073F8002805D0072803D02168002900D06A
:10DAD00088476068401C606010BD00004828002036
:10DAE000F8B507460024224802E0641C042C19D231
:10DAF000A2008258BA42F8D1042C13D21D4E1E4DFA
:10DB0000F069002928D001290DD002290AD160002E
:10DB1000201840194578002D04D0F168002901D063
:10DB200028468847F8BD610062182946AD5C511847
:10DB300000914978002909D071680A2251430D4AA1
:10DB4000521CFFF76FF8002800D177700098817899
:10DB5000084810300155DEE7FFF7A6F805486100D8
:10DB6000611810304919005D8D78A842D3D0F8BDF6
:10DB7000E014020028280020842D002004280CD264
:10DB8000074A1269074B80001B5C012098409043B4
:10DB900000D001200870002070470020FAE7000044
:10DBA00000050050E014020070B50023042811D2D3
:10DBB000440004190D4D012A02D101290DD0002283
:10DBC00046008019094E801900290CD0012906D081
:10DBD000022906D00723184670BD0D30C2B22A555F
:10DBE000F9E74270F7E78270F5E70000842D002026
:10DBF00070B50E461F4905464E608D600020CA6014
:10DC0000A9071ED50024012211462046FFF7CCFFAC
:10DC1000641C042C02D20028F5D012E0002810D198
:10DC2000720804211448FEF7D3FE002809D1FEF73C
:10DC3000BDFE002805D10F48104A00211C30FEF718
:10DC400071FFE90705D00F490D4A8A600023CB60B8
:10DC50008A6100280DD107480B4A00211430FEF7D5
:10DC600061FF002805D10348084A01211830FEF75A
:10DC700059FF70BD28280020F014020075DE010055
:10DC8000080020030005005051F8010095C901006B
:10DC9000FEB5724906464F684B690093BB00FB18FE
:10DCA000002001220193520505466D4C3300FEF71A
:10DCB0004DFC180D1313364655677C887F88919B61
:10DCC0009E9E9E9E9EBDC1C5CAD0D01219225205ED
:10DCD000A260E5600D70FEBD03200006A060E56057
:10DCE0006068604B5840800209D5A260E560022E52
:10DCF00002D1E120C0000AE07D20400107E0E2609F
:10DD0000A560022E01D1C82001E0FF2091300E70E5
:10DD10006421FEF70BFA78430022014641E003201C
:10DD20000006A060E56060684E4B5840800203D555
:10DD3000A260E5601814EAE7E260A560E3E703206B
:10DD40000006A060E5606068464B5840800202D53E
:10DD5000A260E560D0E7E260A560D6E70320000698
:10DD6000A060E56060683F4B5840800202D5A26029
:10DD7000E56001E0E260A5600E707900002210E02D
:10DD800003200006A060E5606068364B58408002C2
:10DD900002D5A260E56001E0E260A5600E7000229D
:10DDA00039460098FEF73EFFFEBD03231B0642E006
:10DDB0006068012109060A468243A2600840E060CB
:10DDC00010E061680120000602468A43A26001401B
:10DDD000E160E4E761680120000602468A43A26030
:10DDE0000140E1600199C9E71E49E1601CE00F466E
:10DDF0008869FEF759FF11218A1B0826002A01D0E5
:10DE0000002802D0A660E560FEBD012A0BD91046AD
:10DE1000C82148436421FEF789F97968002241430B
:10DE2000B869FEF7FFFEE660A560FEBD0D4AA26080
:10DE3000E56011E00C4BA360E5600BE00B4AA260CB
:10DE4000E560520506E00A4AA260E5600922520533
:10DE500000E0044AE260A5600E70FEBD28280020A4
:10DE600000050050080020030800000308002002FD
:10DE70000800000210B500780221FFF731FE10BD46
:10DE80000022D243830004490428CA5002D3081850
:10DE90004030027170470000D8310020F0B50025F5
:10DEA000ED43002A02D00023042601E004230A26C1
:10DEB0000B4C04E09F00E7597F1C04D05B1CB3426D
:10DEC000F8D32846F0BD26185DB2203635729E0084
:10DED000A151002AF5D1E11840310871F1E70000A5
:10DEE000D831002002490918282008567047000040
:10DEF000D831002008B56021095C2E225143091851
:10DF00004030C27F002A08D0521ED2B20C235A439E
:10DF10005218D2896B46521C01E04A8D6B461A801A
:10DF2000898D5980808B194692DF08BDF8B53E482F
:10DF30001422017851430C18E0680C2148433A49F7
:10DF40002769CC314018058941890091241D466814
:10DF500002F058FB01463846FEF7E8F8002932D0B7
:10DF600000200099A2884D436188AE198918CD1907
:10DF700000222E4900280A6109D002F043FB618883
:10DF8000884222D0B54202D1A08800281DD0A068C6
:10DF900002281AD002F036FBA188CA1901461046A1
:10DFA000FEF7C4F8214C8808E06002F02BFB014624
:10DFB0002846FEF7BBF8002911D00020B5422FD02B
:10DFC00000280ED02CE00120CBE702F01BFB01461D
:10DFD0003846FEF7ABF815494861032021E00120DF
:10DFE000ECE7ADB2B7B202F00DFB01463846FEF7E2
:10DFF0009DF8064602F006FB01462846FEF796F815
:10E00000864201D1781B09E002F0FCFA064602F0D4
:10E01000F9FA01462846FEF789F8701A800820614F
:10E02000022002F0FDFEF8BD28320020C8280020A2
:10E0300010B50748142201785143081800790428C4
:10E0400002D000F059F810BD012002F0E9FE10BD29
:10E050002832002010B50B481422017851430818CB
:10E06000094AC18811620079012806D0032801D02D
:10E07000042801D1FFF75AFF10BD012002F0D0FEA5
:10E0800010BD000028320020C82800201422504370
:10E09000054A002180180171C18001220161C2601E
:10E0A000416101817047000028320020F8B5104C12
:10E0B000069E65780A2D19D027787D190A2D00D380
:10E0C0000A3D14277D432D1928716A6103C929610E
:10E0D000E860EB802E816078401C60700548007815
:10E0E000002801D1FFF7B6FF0020F8BD0420F8BDDD
:10E0F00028320020C828002010B50D4C14212078AB
:10E10000484301190020091DFEF7E6FC2078FFF7BF
:10E11000BDFF6078401E60702078401CC0B2207047
:10E120000A2801D100202070002002F079FE10BDE5
:10E1300028320020F8B5224801694A1C3DD024222B
:10E140005143826889184E681E494C6847690079B6
:10E15000E11B0D022D0AED1C002814D101201A4AE2
:10E1600000045060184A403A506018494000086066
:10E17000174908601749012008602F20FDF7AAFF02
:10E180000F4901200871B54200D23546E819000256
:10E190000C49000A403108600A494968001B091B04
:10E1A0000902090A0002000AC91C814204D901209F
:10E1B0000649400480390860F8BD02F015FDF8BD3D
:10E1C00004290020001501404013014080E200E0D6
:10E1D00000E100E000100140F8B50D461178064658
:10E1E000881D14461F2801D90C20F8BD338807204C
:10E1F000062BFAD31927FF01BB4202D9164A9342D4
:10E20000F3D17288062AF0D3BA4202D9124FBA4229
:10E21000EBD1114FBB4203D0BA4201D09342E4D8B4
:10E22000481C052220706A5420781222411C21705B
:10E230002A5420784119308803F05EF8217840187C
:10E24000C0B220704119708803F056F82178401848
:10E2500020700020F8BD0000FFFF000010B5002274
:10E260001146FEF7F1FB10BDF8B5164801F074FA3F
:10E27000144D0026103D144C002807D06169002978
:10E280001BD001206A461070684615E028780028E7
:10E2900005D06169002910D0684606700CE06878E6
:10E2A00000280CD0A16800226868FEF7BBFC00289B
:10E2B00003D0A169002900D088472E70F8BD61689D
:10E2C000F1E70000802800208C2E0020F0B5944655
:10E2D000044608200B4A0C4D00230C265E43761999
:10E2E000B77A0F4209D0944202D03089A04203D1BC
:10E2F000604603600020F0BD05205B1C022BECD3C0
:10E30000F0BD0000FFFF00007C3100200C214843DD
:10E31000064910B5012240188272911E0181FF2129
:10E32000C1720721FDF753FF10BD00007C310020B2
:10E3300010B5134C207900071FD46069401C606140
:10E34000E068002801D0042004E001F059FA002818
:10E3500003D0022002F0A0FE10BD2069002809D0E1
:10E360006068C10701D00320F4E701210843606021
:10E370000020EFE7FFF75CFE10BD02F081FE10BD4C
:10E38000C828002010B5084841680A0708D48A0741
:10E3900002D5012211434160022002F07DFE10BD32
:10E3A00002F06EFE10BD0000C828002038B50178CC
:10E3B000002925D18188134A914221D181790129EF
:10E3C0001ED1114943888A68002113800F4C037ABB
:10E3D0000EE00C254D432D186D89A54207D10C2365
:10E3E00059430818838A5380418A918002E0491C6E
:10E3F0008B42EED801206946087093681046984712
:10E4000038BD00000D18000098280020372A0000B1
:10E4100030B5017885B0002925D18188134A914211
:10E4200021D1817901291ED1114943888A680021AF
:10E430001380104C037A0EE00C254D432D186D8986
:10E44000A54207D10C2359430818838A5380418A77
:10E45000918002E0491C8B42EED801206946087089
:10E4600093681046984705B030BD000014180000AE
:10E47000A4280020532A0000F3B505466030007838
:10E480002E2148432E4647194036F47F0C20604326
:10E49000C1193A79601C891D83B0904226D101AB25
:10E4A0000022284601F066F9002822D010E0401E24
:10E4B000A04201D1002003E00C206043C0191230BB
:10E4C0000246009001AB284601F054F9002807D01D
:10E4D000049800210170B08B01A993DF05B0F0BD55
:10E4E000F07F0099401C641CF077E4B23879A042B8
:10E4F000DDD80498012101700020EFE7F8B500266F
:10E500000124154D23E06968F0004718387821464A
:10E510006A698140114218D08A436A6101F098FC0F
:10E520003A7821462B69914019400346934099421D
:10E530000BD17978012901D0012100E000217B680D
:10E540004140002B01D010469847761CF6B228783F
:10E550008642D8D3F8BD0000EC280020FEB50E4658
:10E56000044681786A46234801F0BEFF002827D17F
:10E5700060780C21204F4843C019807A400620D48F
:10E58000022E1ED0012E1ED01C4DA078182148430B
:10E5900019490023F839411818226846A84700286D
:10E5A00013D0022E0CD020780C2148431249183188
:10E5B0004018807A124980000A58214668469047E0
:10E5C000FEBD104DE1E7104DDFE7022EF8D0607878
:10E5D0000C214843C019817ABF22114081726078B2
:10E5E0001C21484304491823503941181C2268460D
:10E5F000A847D8E7B82800207C3100200510020089
:10E600001415020095080200B907020070B505460E
:10E61000114A12480024182363431B18DB7DFF2B8B
:10E6200004D0641C072CF6D3104670BD0A78022A69
:10E6300009D0182262431018FD22C275072210303B
:10E64000FDF79EFD04E0182161430818FE21C17505
:10E650002C700022E8E70000438000008430002096
:10E66000F7B508780E46152854D00BDC464D474FB9
:10E67000474C11280DD012284DD0132870D01428E3
:10E680007FD172E0212875D0222873D0232878D139
:10E6900070E001200006E8600020A8603C48716836
:10E6A00007221030891CFDF79DFD002802D17068FB
:10E6B0000088E0803648716807221730891CFDF712
:10E6C00091FD002802D17068008820812089B8421D
:10E6D00007D0E088B84204D001204005A86000209F
:10E6E000E8602B4804220C300099FDF749FD706862
:10E6F00001882848FEF7DEFE002803D000221146DC
:10E70000FEF7A2F92078401CC0B22070022838D24F
:10E7100002F08CFA35E062211E48FDF758FD706862
:10E720001B490088E2880989904201D1E78003E013
:10E73000884201D1278101E0B94207D1E088B8427F
:10E7400004D101200006A8600020E860207802289B
:10E7500001D102F06BFA2078401E207011E0FFE733
:10E760000B480C3000F0E4FB05E00A486430FEF78B
:10E7700015FF00E01046002803D000221146FEF7E6
:10E7800063F90020FEBD000000050050FFFF0000FF
:10E79000002800208C2C00201FB56946087301F06A
:10E7A00037FF002803D000221146FEF74DF903A8D9
:10E7B00000F054FA002803D000221146FEF744F975
:10E7C00001A805210130FDF702FD1148022269462A
:10E7D00000900A714879012318431043E32108404F
:10E7E000DF210C30084069464871072088711020ED
:10E7F000C871087A184310430872064800F06CFB91
:10E80000002803D000221146FEF71EF91FBD0000AC
:10E8100061E6010005280020F3B504466030007869
:10E820002E214843071981B0384602F07BF80600D4
:10E8300023D0124D686802281FD24034A18B3822A1
:10E840000F4C5043031959800299002907D0002129
:10E8500021542E223946181DFDF792FC01E00221B9
:10E8600021546868382141430919401C4E6368608F
:10E87000A968884201D101F0F5FDFEBD882800207D
:10E88000B82E0020F8B5044660300D4600782E21E1
:10E890004843001902F046F8010016D00B484268C0
:10E8A000022A12D240343823A68B5343084C1F4609
:10E8B0001B195E800126E6555D60521C596342605B
:10E8C0008068824201D101F0CDFDF8BD882800208A
:10E8D000B82E0020F0B50646D4480027007893B043
:10E8E00000285BD0D24D2868002857D0684600F039
:10E8F000A7F9002803D000221146FEF7A5F8002052
:10E900000E90301D02902A2168468181FF2181707E
:10E91000002101700B91C64C3088183C10280ED095
:10E92000B0880BAA0221FFF7D1FC002807D10B9871
:10E930000C2141430919C97A6A4691705070308898
:10E9400017287DD02CDC102837D0112879D0132837
:10E9500024D10B991C220B465343B54A0020683A38
:10E960009A180A9005920C225143089009900919AF
:10E97000C97A18225143AF4A07908918069100229C
:10E98000B08805AB11467FDF002807D10B980C211A
:10E9900048430019817A04221143817213B0F0BDFB
:10E9A000A54918287ED01C287DD05228F6D1A87AF7
:10E9B0008000095868468847F0E70BAA01219F4864
:10E9C000FFF784FC0028E9D10B990C204843022270
:10E9D0000019827211236A4613715170B188018146
:10E9E0000722B11DFDF7CCFBB61D0D9600261820A1
:10E9F000904970434018072210300D99FDF7F2FB43
:10EA0000002803D0761C072EF1D3DBE00B980C21F5
:10EA100048430019C672817A082211438172684600
:10EA200086708248B1B20CAA083001F05DFD002862
:10EA3000EBD10B981C2148437D496839401801E00F
:10EA40003CE00DE018231C220CA901F007FEA87A77
:10EA50007949800010390A5869460CA89047B1E0FE
:10EA60000B980C2148430119887AFD2210408872C6
:10EA7000010706D5C0090DD000216846FFF76EFDDD
:10EA800008E068468078FF2804D001F0CDFCFF2024
:10EA9000694688700B980C2148430019817A490710
:10EAA00006D501E052E08AE0697A0127B94369722C
:10EAB0001021817212216846017183E0687A0C216D
:10EAC0004008400068720B986B4648430119844621
:10EAD0008A7AFB2002408A7214201871B0790127CB
:10EAE000002801D00E906DE0F07940076AD5987843
:10EAF000FF2867D008231A438A72B27A920708D592
:10EB0000182302465A434B4BD218D37D5B085B0057
:10EB1000D375CA7AFF2A55D06246A25C022A10D069
:10EB200018225043434E072280191030FDF728FB6E
:10EB300068468078182148438019C27DFD210A402B
:10EB4000C27501216846FFF709FD3BE0B079020973
:10EB5000012A22D10007000F01281ED10B980C2298
:10EB600050430219927A120717D5314930394018AB
:10EB70000621001DFDF72BFB1620694608710B9836
:10EB80000C2148430119887A602210438872697AFF
:10EB9000012702200143697214E00B980C225043B4
:10EBA0000019827A80231A43827215206A461071F6
:10EBB000A87A8000095868468847002092E7132009
:10EBC0006946087101A968460E9AFDF74BFF684631
:10EBD0000079122808D10B980C2141430919897A30
:10EBE000012901D0FFF792FB002F00D1D6E6687A09
:10EBF0008007FBD506AA20211048FFF767FB0028F5
:10EC000004D0687AFD2108406872C7E60020694692
:10EC10000875069848750C2148430019C07A694662
:10EC2000887505A800F02AFDB8E60000B02800208D
:10EC3000943100208430002034150200FFFF0000D2
:10EC4000002806D0FF21017041708170C170002042
:10EC500070470148704700000E800000F0B585B095
:10EC6000040035D0002528482E460560457285727F
:10EC70003046FFF74BFB761C022EF9D322481821B1
:10EC80003038FDF7A4FA0026304601F0CDFB761CA3
:10EC9000072EF9D35C21684681800721C1801B487B
:10ECA00000901B49684601F02DFD00280ED1184E3A
:10ECB0000120083E3070207800280BD069468888F3
:10ECC000C988484381B2124801F038FC05B0F0BD54
:10ECD0001048FBE7104F0024A1B202AA0C4801F033
:10ECE00003FC002809D118206043C0190023182212
:10ECF00002A901F0B3FC002801D03570E6E7641CDE
:10ED0000072CE9D3E2E70000943100201DED01005B
:10ED1000B82800200E80000084300020FFB56A482B
:10ED200093B000681C9D1F460E46002874D05C2DD1
:10ED300072D86846FFF784FF002803D000221146EE
:10ED4000FDF782FE002069460870087304460897A4
:10ED50000795A1B20AAA5D4801F0C6FB002806D1BA
:10ED600008220AA91398FDF73DFA002816D0641C62
:10ED7000072CEED368468478FF2C4DD0032E10D09C
:10ED800053481821381AFDF7D1F9012507281ED25A
:10ED900006A80490159800280BD011E068468470EE
:10EDA000E8E75C2D03D040206946087383E020200B
:10EDB000FAE728464549A04008394968084278D012
:10EDC000204602F09FFA20206946087362E03E4820
:10EDD0001C216838381AFDF7A9F902281DD206A9A6
:10EDE0000491202269460A73487000210F91364928
:10EDF0000C3110911C214843334968394018694649
:10EE00000C90887818214843314940180D900CA87F
:10EE10000890182007903DE04BE02B480C2130383B
:10EE2000381AFDF783F928491839022815D23022FB
:10EE30006B461A73C2B25A70DD700C2358434018E7
:10EE4000807A800726D40C204243084618381118CF
:10EE500000200860486088601CE040206A4610730B
:10EE60001C48874227D01A4AA0001C3A1058B842C2
:10EE70001FD106A8002204900C2050434018C07AED
:10EE8000844202D16846427002E0521C022AF3D347
:10EE9000032E10D06946087B022E13D002210843AE
:10EEA0006946087306A8049003A96846159AFDF7F9
:10EEB000D9FD17B0F0BD6846017B032001436846C9
:10EEC0000173EFE72843ECE794310020B8280020D5
:10EED000843000201015020070B5064611480D461A
:10EEE000007800280ED01049002E0ED0002D0CD036
:10EEF0002868002809D00D4C2168002907D00A484D
:10EF00000A3870BD0848801F70BD084670BD20607B
:10EF10000522691D201DFDF733F92879A072002014
:10EF2000307070BDB02800200E80000094310020A9
:10EF3000F8B504462F4830490078002858D0002CF6
:10EF400003D02078002853D102E02B48801DF8BD63
:10EF50002A4E306800284BD06278022A0DD20C204D
:10EF600035465043183D4019837A012B05D09B0745
:10EF70003ED5A178FF2906D102E01F480830F8BD30
:10EF8000C17AFF290BD0C17AA1701C214A431B49C9
:10EF90000089683952181146123181DF27E0014695
:10EFA0006846FFF733FB010022D162780C236846E4
:10EFB0005A4300785219D072A070207858438019B3
:10EFC000407AC00710D060780C2250434019827AF2
:10EFD00020231A43827220780C2250438019427AEF
:10EFE00002231A43427203E0204600F047FB014629
:10EFF0000846F8BDB02800200880000094310020A9
:10F00000F0B52A4A2A4B1278002A32D09A1D0028DD
:10F010000BD0002909D00C68002C06D08C68002C7D
:10F0200003D00078002824D101E01046F0BD21482B
:10F03000006800281DD000231E4D1A461846183DB2
:10F0400000240C2666437619F77A874202D1B67AF5
:10F05000B60724D4641C022CF3D30C7B94420ED943
:10F06000182406466643144C3419E67DF60702D090
:10F0700005E01846F0BD97008E68521CF4510C79DB
:10F080009C420CD91824064666430B4C3419E67D85
:10F09000B60704D49F0010340E685B1CF451401C6A
:10F0A0000728CDD30B710A730020F0BDB0280020D3
:10F0B00008800000943100208430002010B50E49F3
:10F0C00000238A78CC78A24212D0521CD2B28A7025
:10F0D000022A00D18B708A78074B92001C339A5811
:10F0E0000260486910180002000A4861012010BD42
:10F0F0000360002010BD000004290020F7B5144C67
:10F100000025A76823691EE024215943C9194E68C8
:10F11000864202D9301A486017E0801B7519002614
:10F120004E600E750E699C460B6AB646002E0AD0DC
:10F13000019E76193602360A8E607646CE601668D3
:10F140000E6261461160591CDED12361FEBD0000D4
:10F150000429002010B5002803D0112802D0FDF7A3
:10F16000D1FC10BD0248082241681143416010BD26
:10F17000C828002010B51C4C217820464068012981
:10F1800006D0022929D0032912D1000717D513E090
:10F19000000711D415481422017851430818C1887A
:10F1A000A28B891A0904090CC18002D001F02CFF3E
:10F1B00010BDFEF7A1FF10BD00F006FD10BD606997
:10F1C000401C606100F01CFB002803D0207801F097
:10F1D00027FE10BDFEF72CFF10BD607804498000AB
:10F1E0000858804710BD0000C828002028320020A1
:10F1F0006015020010B528DFFFF7ACFF10BD10B599
:10F2000029DFFFF7A7FF10BD10B50446C0B2FDF718
:10F2100041FE204610BD00000EB51120694608725F
:10F22000052214A102A87CDF002803D00022114689
:10F23000FDF70AFC114878DF002803D000221146B0
:10F24000FDF702FC0020FF22009041326946019048
:10F250000A804122D2004A808880FF209130C880F5
:10F2600068467ADF002803D000221146FDF7ECFB48
:10F270000EBD000052656C61790000004103000082
:10F28000002070470020704700207047F8B5447890
:10F290000C2044430B480021034605591833E3185A
:10F2A0000A46002D07D09E7AF70904D0760602D4CC
:10F2B0002118AAB2091D18890323A9DF002800D04C
:10F2C0000148F8BD643100204180000070B50D4652
:10F2D000014668780C22084C50430019342301F091
:10F2E000BDF9002806D169780C2251436258521C9E
:10F2F00000D1625070BD000064310020FEB50D46A3
:10F30000074606206946088168780C214843204E4C
:10F3100002AA8019008903236946AADF002834D194
:10F3200068780C2148433446183C001969460A891C
:10F33000001DFCF757FF0028687806D00C214843D1
:10F34000215800290DD0134E0CE00C21484381199F
:10F35000897A890719D40019002101604160816010
:10F3600013E00D4E69460A89225068780C21484303
:10F3700000196946001DFCF703FF68780C2148431B
:10F38000011934230C223846B0470020FEBD00008E
:10F390007C31002095080200B907020010B5FFF784
:10F3A00075FF10BD10B5FFF791FF10BD10B5FFF749
:10F3B000A5FF10BD70B50646104C0125B540E068AC
:10F3C000FDF772FC00280CD16169294207D1304653
:10F3D00000F03EFD0028206904D0284303E0A94343
:10F3E000616170BDA84320616069002228436061AB
:10F3F000A168E068FDF716FC70BD0000EC28002055
:10F4000010B500F025FD002801D0002000E001200B
:10F4100000F0BAFF10BD000070B51B4C207900074A
:10F420002ED41A481422017851430D182E6901F088
:10F43000E9F80146E8882A89761E80188019FCF7C9
:10F4400075FE21690025002909D06169814206D134
:10F45000E560606801210843606000200AE000F078
:10F46000CFF9002802D00220E56003E020690028DF
:10F4700003D0032001F010FE70BDFEF7D9FD70BD72
:10F4800001F0FEFD70BD0000C828002028320020D9
:10F49000F0B5002406460D46601C010795B0090F23
:10F4A00008A810310C940174297B4174817CF927E0
:10F4B0003940891C81741C2105A8FCF788FE684628
:10F4C000017D10200143684601750CA806940A903E
:10F4D0000894099401220B9408A88276174968467B
:10F4E00001870D94697B08A80175A97B4175817D11
:10F4F000F7203940891C0140EF200140114308A842
:10F50000817514216846FCF762FE0EA800900DA8D4
:10F5100001900FAA0021304600F012F8014668461B
:10F5200001811421448181810FA804903346F08821
:10F5300008336A4605A9A2DF15B0F0BD372A0000DE
:10F54000F7B542790025002A00D004252222135C59
:10F550000222002B00D01543CBB2FF2907D901228C
:10F560001543029A090A53709170032602E002992A
:10F5700002264B7004464034A189002901D0102195
:10F580000D43002716E0B11C142909D9A189C91B14
:10F590004A007900091824302431FCF7F1FD0CE011
:10F5A000029B7A0012189B19928C1A70120A5A70D8
:10F5B000CEB27F1CA189B942E5DCA089C01BA08125
:10F5C000029805703046FEBD70B5044608780D46B9
:10F5D000012818D0022815D1698816A0FCF7A6FFCB
:10F5E00069881948FEF74AF800280BD0082809D086
:10F5F0001649884206D01649884203D00022114697
:10F60000FDF722FA70BD1348FFF792FC002803D0E3
:10F6100000221146FDF718FA2046FDF7BFFF00282B
:10F6200003D000221146FDF70FFA0BA0FCF77EFF76
:10F6300070BD000048656172742052617465203DA0
:10F640002025640D0A000000182D00200430000061
:10F65000013400000C28002048656172742072613A
:10F660007465207365727669636520646973636F7E
:10F670007665726564200D0A0000000070B50446CE
:10F680000078144E0C214843811960780C223546CD
:10F690005043183D40190089091D7EDF010016D135
:10F6A00020780C2250438019427A01231A43427277
:10F6B00060780C2250434219907A042318439072C8
:10F6C00062780C235A435219DF231840907208467F
:10F6D00070BD000094310020F8B51E4C2078002841
:10F6E00037D02069002807D00026E068002805D020
:10F6F0000025002E04D013E00126F6E70125F8E7E7
:10F70000684651DF052806D0002806D000221146A1
:10F71000FDF79AF904E0012602E021690098884784
:10F72000002D12D1608869460880A06861DF052835
:10F7300006D0002806D000221146FDF785F904E026
:10F74000012502E0E168A0688847002ED8D0002D8E
:10F75000CFD0F8BD2C29002041880548028891426D
:10F7600004D34088814201D80120704700207047AF
:10F770007828002030B50989002A05D0D088491C96
:10F78000814212D1002030BD0246603214782E250D
:10F790006C432418A48DA142F4D0491C198011781F
:10F7A0002E2251430818808D02E01980D088401E17
:10F7B0005880012030BD00001048018CC9B20129D9
:10F7C00017D1818C090714D1018D09060A0F03D1C5
:10F7D000828D1206120F0ED0090F012903D1828DDE
:10F7E0001206120F07D0032903D1808D0006000FE7
:10F7F00001D000207047012070470000C00F00F0CA
:10F8000070B50E481422017851430C18256900F098
:10F81000F9FE0146E08822896D1E80184019FCF728
:10F8200085FC07494A69824206D3824202D10869AF
:10F83000002801D0002070BD012070BD28320020BA
:10F84000C8280020800701D00020704701207047A1
:10F8500010B50448017AC90702D00078FEF718FAFB
:10F8600010BD000028280020F8B523480169009148
:10F87000457833E02048E900C0680E1834782AE063
:10F88000182060437168641C0818B178E4B2A14282
:10F8900000D100240178022902D003291BD113E0F2
:10F8A000154A40682421926841438F18397D002908
:10F8B00011D001F059FC002038750CE02427784362
:10F8C000C0180275006A03E00B4900228B680869C2
:10F8D000471CF3D108617078A042D1D128466D1E33
:10F8E000EDB20028C6D1044801690098814201D0D8
:10F8F0000120F8BD0020F8BD04290020F8B5044619
:10F90000384800270169009146785CE03548F100ED
:10F91000C2688D1851E0601C07D0324A24209268DA
:10F92000604321468018046A24E028781821414366
:10F930006A68401CC0B252182870A978884200D169
:10F940002F70284B516824209B684843C0181378B7
:10F95000012B34D1037D002B31D193688360D368B0
:10F96000C360136903615269C2611E4A5279002A59
:10F9700000D087601B4B82685B6996469C46D31A11
:10F980001A02194B120A9A4202D2C368D21808E02E
:10F99000724663469A1A1202C368120A934202D947
:10F9A0009A1A426000E0476087600122C7600275D2
:10F9B000921E0262084601F0A5FB601CABD12878BC
:10F9C00069788842A7D13046761EF6B200289DD1CC
:10F9D000044801690098814201D00120F8BD00204F
:10F9E000F8BD000004290020FFFF7F00002496B02E
:10F9F000654B0322052120460094FDF7B9F8002845
:10FA000003D000221146FDF71FF800225F490320B2
:10FA1000FEF7EEF8002803D000221146FDF714F897
:10FA200069460020FDF7F6FF002803D000221146AA
:10FA3000FDF70AF86846007802287DD00021684664
:10FA4000534A017107CA06AB07C36846848451480C
:10FA500002900125504804902802059009A80090C2
:10FA6000039503234D4A02A906A8FDF749F900288A
:10FA700003D000221146FCF7E7FF49A0FCF756FD32
:10FA8000FDF750FF68460079FEF786FEFDF7B6FCED
:10FA9000002803D000221146FCF7D6FF444800900E
:10FAA00069464448FDF7A0FD002803D00022114616
:10FAB000FCF7CAFF404800903E4869460C30FDF70D
:10FAC0005FFE002803D000221146FCF7BDFFFFF7C0
:10FAD000A3FB01F04DF9302101A8FCF778FB0220CF
:10FAE000694608718D710622CA71888229482421CD
:10FAF0001A3006900DA8FCF76AFB10A90D70FF20C4
:10FB00002D301190B42012902C4B0DAA002100949E
:10FB100001A8FDF7FBF9002803D000221146FCF7ED
:10FB200093FF1C216846FCF752FB0520C00301909F
:10FB30000F200094000400E01CE0029003216846BE
:10FB400001731C48283081896846C18104741C48AF
:10FB500005901C4806906846FDF7B8FB002803D0C6
:10FB600000221146FCF770FF01F060F80320FDF75A
:10FB7000BDFA02E0012162E748DF0028FCD0002244
:10FB80001146FCF761FFF7E78C2A0020CD0C00003E
:10FB9000D4140200042800208C290020E112020065
:10FBA00052656C6179204578616D706C650D0A0055
:10FBB000C9F50100F02C0020010B020095FF0100A7
:10FBC000ED0102005DE2010010B504480822416821
:10FBD00091434160007801F023F910BDC82800204E
:10FBE00070B5054600790E46801C1446C0B21178E7
:10FBF000821C8A181F2A01D90C2070BD0A46491C94
:10FC00002170401CB0542078FF22411C21703254D6
:10FC100020788119288801F06FFB21784018C0B244
:10FC20002070AA88002A09D0A968002908D0801964
:10FC3000FCF7A6FA2078297940182070002070BDC2
:10FC4000072070BDF8B514780746A01C15460E466F
:10FC50001F2803D87878801C1F2801D90C20F8BDF4
:10FC60001D20001B80B26946864608803019801C22
:10FC70007DDF0028F3D13878022805D16846008856
:10FC8000704501D8092107E078780821002801D0C3
:10FC9000704501D968460088421C3255641CE2B2A6
:10FCA000B1542978801C081828700020F8BD002065
:10FCB0007047002070470020704700008207D30E75
:10FCC000FF229A408907090E10B5994000280BDAE7
:10FCD00003071B0F083B9C080C4BA400E318DC69CE
:10FCE00094430C43DC6107E08408094BA400E4184A
:10FCF000236893430B432360C106C90E012088404B
:10FD0000044908600449086010BD000000ED00E0EF
:10FD100000E400E080E200E000E100E0F3B581B043
:10FD20000F46019800F0B4FB012400281E4E0198F4
:10FD300017D0FEF7D7F880194030007980090328E2
:10FD400002D0012806D007E01848006901998C40CC
:10FD5000204201D1022100E00321019800F000F9C6
:10FD6000FEBD00F0A1FB0028FAD00198FEF7BAF81A
:10FD700005468100C81D0E4AF93089180A6980B20B
:10FD800022430A610B49401800210160002FE7D08F
:10FD90000198FEF7A7F8800030580028E0D0064808
:10FDA000AC404460FEBD0000D8310020000500508A
:10FDB000006500400060004000630040F8B5204F3F
:10FDC0000D4604463819282141560026C817134607
:10FDD000401C01D0082630E0EA7819462046FEF79C
:10FDE0005DF8411C28D0174BAA78A100C918002A39
:10FDF00003D00A6802239A4301E06A7892000A60FD
:10FE0000E978002910D082000F482978101802697B
:10FE10000E4B1A400261E206D20C8907890B0A4395
:10FE200001690A43026108E0381840302A780179F4
:10FE300092011143017100E004263046F8BD000034
:10FE4000D83100200007005000650040FFE0FCFFB3
:10FE500003490969C140C807C00F00D0012070479D
:10FE60000005005070B5124DA87B002801D0082075
:10FE700070BD0F4900204039421E0B182033401C32
:10FE8000C0B21A722028F8D300242046FDF7F8FFEC
:10FE9000641CE4B20A2CF8D301210620FFF70EFF00
:10FEA00001200449C00748600120A873002070BDEC
:10FEB00018320020006300400248807B002800D0F8
:10FEC0000120704718320020F8B504461F480D463F
:10FED00000192030082141560026491C01D008266F
:10FEE0002FE0A97800291DD0012200212046FDF72E
:10FEF000D5FF411C14D0830015482A78181869785A
:10FF00000369144F3B4003610369E706FF0C920746
:10FF1000920BC907C90A3B430A431343036104E038
:10FF200004260EE00121C94301720B4A0320A100FF
:10FF3000891808606A780120A0400849012A02D087
:10FF4000C8603046F8BD8860FBE70000D83100206B
:10FF500000650040FFE0ECFF000700500005005086
:10FF6000820006481018026803231B049A430260AB
:10FF7000026809040A43026070470000000700504D
:10FF8000034940180068012800D000207047000095
:10FF90000060004010B5002807D0032804D10848AD
:10FFA0000821C1600021816010BD0320FDF79EF88B
:10FFB0000028F9D000221146FCF746FD10BD0000D4
:10FFC00000050050F0B5041D008885B011280ED042
:10FFD000192858D01B280CD01D2808D12088A11C16
:10FFE00075DF002803D000221146FCF72DFD05B077
:10FFF000F0BD20460B300290A07A6946C008888187
:020000040002F8
:100000006A4602A90220FCF790FC002806D06A4646
:1000100002A90320FCF789FC0028E8D11D4B6946A2
:1000200089880020DD1D4E082AE04100009A4F1CFF
:10003000D25D009F1202795C1143994217D0A94208
:100040001DD115A0FCF772FA0722A11C1548FCF778
:1000500097F81548FD220178114001700146134AB6
:10006000A01C88DF0F49002017398870BFE710A057
:10007000FCF75CFA0B480722A11CC01FE7E7401CF5
:100080008642D2D8B3E7A0780228B0D100F0CEFDE6
:10009000ADE700000D18000052534320666F756EE7
:1000A000640A0D0017280020082D0020CC1402003F
:1000B00048525320666F756E640A0D0070B505884E
:1000C0000124002214496406144B102D11D0112D67
:1000D00016D018464089132D18D0522D08D101236F
:1000E0001146A9DF002803D000221146FCF7ACFC22
:1000F00070BD08258D60CA60CC608A60808803E08E
:100100008C60CA600020C043588170BD00231A462D
:1001100085217FDFE6E70000000500500028002071
:10012000F0B507460446603738782E22504306194A
:1001300020464A88403089B00090002A3BD10831DF
:100140000591357908782818032800D903203071E3
:100150000020079014E007980A21484305990A22D5
:1001600041180C20684380190890801D891CFCF7F9
:1001700007F80898002101820798401C6D1C079021
:100180003079A842E7D80C204543A819418838782F
:100190002E2250430019808D81420CD230790328E1
:1001A00009D00099C8772046FDF7A4FE01000FD0C2
:1001B0000020787009E000980025C57701A9204645
:1001C000FEF75AF9010005D07D702046FEF75AFB74
:1001D00009B0F0BD684600790028F9D00121204619
:1001E000FEF71AFB204600F0A1F8F1E710B5007801
:1001F000002809D105483B21408976DF002803D03B
:1002000000221146FCF720FC10BD00000028002051
:10021000FEB50446603001900D4600782E2148431B
:10022000224603194032D07F0C267043C018801D2F
:100230008446294668880831002812D11B4E0D8853
:100240000DE0062747437F18BF88B74206D1062531
:100250006843401841886046418102E0401C854265
:10026000EFD8002568460570D07F1979401C884278
:1002700003D101206946087010E0D0776946204616
:10028000FEF7FAF8010005D0019845702046FEF708
:10029000F9FAFEBD684600780028FAD00121204610
:1002A000FEF7BAFA204600F041F8FEBD0229000030
:1002B00070B504460A468889A1880C3286B0884207
:1002C00031D10220694608709079C307DB0F0B71AA
:1002D00090798007C50F4D7190794007C00F8871E4
:1002E000117AD6790802304369460881507A8872BB
:1002F0000420002B06D0D17A937A0802184369466D
:1003000088810620002D0AD01518AD1D2846FBF760
:1003100076FF0002E978000A090608430490A26803
:1003200069462046904706B070BD000070B514497C
:100330000446C8682546401CC860896800266035A8
:1003400088421BD220464030C67729782E22491C8D
:10035000C9B24A4329700B4B1219C900C9180B883E
:100360001380498851801671808B012190DF010034
:1003700003D06E702046FEF785FA70BD6E7070BDBA
:1003800088280020A82E002010B51D4A1D49030012
:10039000FCF7DCF805040B3120271200487801280F
:1003A0001FD0022808D1032005E04878002804D097
:1003B000032801D10220487010BD134B042018609F
:1003C000124B012018609368D2689A42F3D0FCF770
:1003D000BFF910BD4878012806D0022804D00328B0
:1003E000F7D1FCF7EDF910BD9068D1688142EED1EC
:1003F000FCF7D4F910BD48780128E8D010BD000002
:10040000C8310020C0280020002500400020004006
:100410000021425C002A01D001207047491C0629B6
:10042000F7D300207047000070B5044618200C492F
:1004300060434518284611300621FBF7C8FE002608
:100440002E606E60AE60FF21EE602974E975204673
:1004500000F058FF0249A0001C390E5070BD00008A
:100460008430002070B50024074D084E05E0382088
:1004700060438019416B8847641CA8688442F6D3A6
:100480000020686070BD000088280020B82E002081
:100490000449081828214156042901DB012070472E
:1004A00000207047D83100200449081828214156FF
:1004B000042901D20120704700207047D831002064
:1004C00007490979490701D408207047002804D05A
:1004D000044949780160002070470E2070470000F1
:1004E000C82800202832002030B5124B1B795B074A
:1004F00001D4082030BD002805D0002A03D00468AC
:10050000002C10D101E00E2030BD0B4B1D68002DDA
:1005100009D045681889414369185D894543586881
:100520002818884201D8072030BD1460002051608F
:1005300030BD0000C8280020F4320020FEB505467A
:1005400025480E460079400701D40820FEBD002D45
:1005500003D02868002834D101E00E20FEBD1F4CD6
:10056000216800292DD0608921894843616841189C
:100570006868814225D9FFF765F900280FD06868BF
:10058000019029680C2251430F1979680091401A93
:1005900039890C46FBF7CAFD002912D101E0102071
:1005A000FEBD21463046FBF7C1FD002909D1002ED2
:1005B00007D0788944430198811900980019814235
:1005C00001D90720FEBD002002460090334629468F
:1005D0000320FDF76BFDFEBDC8280020F43200208B
:1005E00010B507484469601C06D000F00BF80146BE
:1005F0002046FBF79BFD10BD01200007406910BDA0
:100600000010001001200007006980B27047000050
:1006100070B500240F482546047044702846FDF745
:1006200035FD6D1C0A2DF9D30B4D6C80FFF7D8FFFB
:10063000861EFFF7E7FF46430648AE60CC306C618C
:100640000460048144812C70AC610420EC6168601A
:10065000002070BD28320020C8280020FFB52748A0
:1006600081B000791F4616460D46400702D4082087
:1006700005B0F0BD002D06D00198002803D02868F1
:10068000002815D101E00E20F2E71D4C206800285B
:100690000ED0618920896268414389186A68914255
:1006A00006D9002E04D0B04202D3F119814201D9FB
:1006B0000720DDE70198FFF7C5F800281BD0384672
:1006C000FFF7C0F8002816D06868FFF7BBF80028CD
:1006D00011D068683246C1190198FBF751FD0096A8
:1006E00028680C2148432458002202212846019BF7
:1006F000A0470020BCE71020BAE70000C82800206F
:10070000F4320020F8B52A4D044628790E464007F9
:1007100001D40820F8BD002C20D0002E1ED0206867
:1007200000281BD0FFF76EFF0146A088814213D33B
:10073000102811D3E08800280ED0FFF751FF471E84
:10074000FFF760FF4743E288A088A9684243521838
:10075000974201D3800703D00720F8BD0E20F8BDD3
:100760006888012821D003C60C22124B5043C218BE
:10077000516021681950A0881081E0885081FFF7EE
:1007800041FF0146A088E2885043401EFBF7E4FC8D
:10079000441CFFF737FF0146A86861430818A860AA
:1007A0006888401C68800020F8BD0420F8BD000067
:1007B000C8280020F4320020F8B5044620481E4620
:1007C000007915460F46400701D40820F8BD002FD8
:1007D00005D0002C03D02068002815D101E00E20A0
:1007E000F8BD1848016800290ED042890189406887
:1007F0004A4310186268904206D9002D04D0A942DD
:1008000002D3A819884201D90720F8BD3846FFF75E
:1008100019F8002811D03046FFF714F800280CD042
:100820006068FFF70FF8002807D02B463A462146AC
:1008300001200096FDF73AFCF8BD1020F8BD00003D
:10084000C8280020F432002010B51149024608786B
:10085000002811D004280FD0022A16D0032A0BD169
:100860000A79120711D48A69521C8A61032A08D0B6
:10087000022802D000F0D4FA10BD487800F00CFC39
:1008800010BD0D20FCF73EF910BDFEF773FC10BD46
:10089000C8280020F8B5044620481E4600791546B1
:1008A0000F46400701D40820F8BD002F05D0002CCA
:1008B00003D02068002815D101E00E20F8BD1848AB
:1008C000016800290ED04289018940684A43101806
:1008D0006268904206D9002D04D0A94202D3A8191B
:1008E000884201D90720F8BD3846FEF7ABFF002843
:1008F00011D03046FEF7A6FF00280CD06068FEF746
:10090000A1FF002807D02B463A4621460420009636
:10091000FDF7CCFBF8BD1020F8BD0000C828002072
:10092000F432002070B50D4B00210B4A9B680EE09D
:10093000CC00A518AD788678B54207D1145B058840
:10094000AC4203D1C8008018406870BD491C994270
:10095000EED3002070BD0000A82E002088280020C3
:10096000F0B58FB00D4606461C216846FBF72FFCFC
:1009700068460178022739430170002401940394EA
:1009800004940594012108A80694817016496846CC
:1009900001840794E9790177297A4177807FF921E9
:1009A0000840F721801C0840EF2108404108490019
:1009B0006846817714210AA8FBF709FC698908A811
:1009C0000171090A41710A9007A80B9068460786D1
:1009D0004486878609A80E903346B0880E330AAA4B
:1009E0006946A2DF0FB0F0BD542A0000F0B5002424
:1009F00006460D46601C010799B0090F08A8103182
:100A00000C94017429794174817CF9273940891C3F
:100A100081741C2105A8FBF7DAFB6846017D1020D4
:100A20000143684601750CA806940A90089409943D
:100A300001220B9408A882761749684601870D9415
:100A4000697908A80175A9794175817DF720394038
:100A5000891C0140EF200140114308A88175142131
:100A60006846FBF7B4FB0EA800900DA801900FAAF2
:100A700014A9304600F012F801466846018114219D
:100A8000448181810FA80490B088B31D6A4605A9EE
:100A9000A2DF19B0F0BD0000532A0000F0B58C8829
:100AA0005470240A064694708879D070347E0023EE
:100AB00002250420E40708D00C78002C05D00C890E
:100AC0001471240A012354710620347EA4070DD525
:100AD0004C78002C0AD02B43CC6815182C70270AB0
:100AE0006F70270C240EAF70EC70001D347E64070D
:100AF00004D58978002901D004210B431370F0BD7F
:100B00007FB5054608780C4601282AD0022827D14F
:100B10001FA0FBF70BFD21891EA0FBF707FD217924
:100B20006846017061794170A1798170A189018164
:100B3000A17A8171218981802069039069461A48D0
:100B4000FCF79CFE00280BD0082809D017498842E2
:100B500006D01749884203D000221146FBF774FFE4
:100B60007FBD1448FEF7E4F9002803D000221146A7
:100B7000FBF76AFF2846FCF739FE002803D0002265
:100B80001146FBF761FF0CA0FBF7D0FC7FBD000016
:100B90000D0A000053706565642020202020203D50
:100BA0002025640D0A000000682D0020043000009C
:100BB000013400000C28002052756E6E696E6720AB
:100BC000537065656420616E6420436164656E6383
:100BD00065207365727669636520646973636F76F7
:100BE00065726564200D0A0070B501240B4960042C
:100BF00008600B4940108860094940398860094DF8
:100C00006C602F20FBF766FAAC60074D00242F20A4
:100C10006C61FBF75FFA2C7170BD000080E100E0B1
:100C200040130140001001400429002030B595B068
:100C300004A8FFF745FC002803D000221146FBF76B
:100C400003FF0498284D002803D00120E87015B058
:100C500030BD0821684601710024047305A8009086
:100C60000DA8029020486946401DFEF7C9F90028EA
:100C700003D000221146FBF7E7FE684601791B48C6
:100C8000A0225023002903D16946097B002905D001
:100C90006978012902D1A97800290AD00178FD25B7
:100CA00049084900294001700281438144608481E0
:100CB0000BE00178022549084900294301700281AF
:100CC0004381694641601E218181084886DF0028F2
:100CD00003D000221146FBF7B7FE01210448490565
:100CE000C1608460B3E7000000280020082D0020C8
:100CF00000050050F7B582B002981446806A0F468E
:100D0000002833D0029800252030009028E0029877
:100D1000816A0C2068430E18217830794A1C2270B1
:100D2000C01C785420781622411C21703A54207837
:100D3000C119308800F0E0FA21784018C0B2207064
:100D4000B288002A09D0B16800290FD0C019FBF77A
:100D500017FA20783179401820706D1C0098EDB298
:100D6000007BA842D3D8002005B0F0BD0720FBE7E8
:100D700010B58AB0032168460173142104A8FBF75B
:100D800026FA0024012168460494017503A8069000
:100D9000601C0107090F684610310177447784779A
:100DA000601C0107090F68461031C1770020014619
:100DB00008A8017004A91948FCF78CFC002803D08E
:100DC00000221146FBF740FE00940194052168467D
:100DD00002944181012001466846103101710020D2
:100DE0000146684641710020014668468171012034
:100DF000014668461031C171002001466846017203
:100E0000064869465030FCF717FD002803D0002241
:100E10001146FBF719FE0AB010BD0000182D002086
:100E200010B50F490028087009D0012811D00228F8
:100E300012D0032802D14869FEF7DCF910BD00206A
:100E40008861C861074840780028F7D0FDF702F9AB
:100E500010BD00F0D9F810BD00F038F810BD00004A
:100E6000C82800202832002010B508461146C04688
:100E7000C04610BD002803D00249C860002070475A
:100E80000E2070472C29002070B5002901D08C0756
:100E900001D0072070BD064C0125A1606280054984
:100EA000636010DF0028F5D1257016202EDF70BD9D
:100EB0002C290020690E0200002803D00249086195
:100EC000002070470E2070472C290020F8B5164CE2
:100ED0001422606840084000606014480178514363
:100EE0000E183769FFF78EFB01463846FBF71EF9EF
:100EF00005466061FFF786FB0146F0887F1EC0193A
:100F0000FBF714F902228542606801D1104300E02A
:100F100090436060E1681040084303D0002000F077
:100F2000BBF8F8BD0220FAE7C828002028320020CC
:100F300010B502484069FEF75DF910BDC8280020D1
:100F400010B5FFF74DFB441EFFF75CFB4443FFF772
:100F500059FB04494A69521E5043CA682146FEF7AC
:100F60004EF910BDC8280020F8B5104814220178A9
:100F700051430C182569FFF745FB0146E08822899B
:100F800080184019FBF7D2F80F46FFF729FB461EE1
:100F9000FFF738FB4643E0882289F1198018044A9C
:100FA00040191269FEF72BF9F8BD00002832002025
:100FB000C828002070B5FFF725FB0546FFF710FB9A
:100FC000441EFFF71FFB60432946FBF7AFF8FEF70F
:100FD00011F970BD70B5FFF715FB8608FFF712FB1E
:100FE0000749496948430446FFF7FAFA451EFFF7E7
:100FF00009FB684332462146FEF701F970BD000047
:10100000C82800200020704770B5144814220178C9
:1010100051430C18241DFFF7F5FA6188104E8842E1
:1010200011D2FFF7EFFA61880D1AFFF7EBFA820889
:10103000A188E0684018216940194919FEF7DFF8D6
:10104000FFF7E0FA07E0A288E06880188A082169C3
:10105000FEF7D5F86088F06170BD000028320020EE
:10106000C828002010B505480079000703D40120E6
:1010700000F012F810BD00F003F810BDC8280020E1
:1010800010B504480822416891434160407800F05F
:1010900003F810BDC82800200249487002498000AA
:1010A00008580047C82800204C15020010B5044617
:1010B000FFF7CAFB022C01D0032C07D10548C178E9
:1010C000002903D00021C170FFF7B0FD2046FBF7D7
:1010D000EDFF10BD0028002010B50548007900077D
:1010E00002D4FCF7A5FF10BDFFF7CAFF10BD00003A
:1010F000C828002001200249000508607047000050
:1011000000E200E0F0B5174F2421BC6841430D19FF
:1011100039694A1C09D024224A4316196B6872683F
:10112000934204D8D21A726029623861F0BD0A462F
:1011300002E00A46396A9B1B4E1C0BD024264E4304
:1011400037197E689E42F4D324264E4336197768B9
:10115000FF1A77606B60296224214A4311190862E3
:10116000F0BD00000429002070B5194C2269A56863
:101170001346114606E0814207D00A4624267143F1
:101180004919096A4E1CF6D170BD002EFCD08A4266
:101190000CD1242043435819006A2061401C05D11A
:1011A0000C4B01209860002363616071242041434F
:1011B0004819242341685A43006A52191062421C9C
:1011C000E2D024225043401942685118416070BD5A
:1011D0000429002000100140F8B51D4C2569681C49
:1011E00035D01C48002640686169401A07023F0A52
:1011F00019E024204543A0682A185068B84214D842
:10120000A3693F1A8619156A002B09D0D169906924
:101210009847002807D000221146FBF715FC02E092
:101220009169D0698847681CE3D1A178E078814250
:1012300006D1401CC0B2E070022801D10020E0704D
:1012400003490006800D1C310E50FFF753FFF8BD17
:10125000042900200015014010B50E4C216860687B
:10126000884210D014210C4A484381188B78002BF7
:101270000AD0105A083197DF002804D12079401C89
:101280004007400F606010BD105A8988002295DF2A
:10129000F2E7000098280020282F002010B50E4CFF
:1012A00021686068884210D014210C4A4843811894
:1012B0008B78002B0AD0105A083197DF002804D110
:1012C0002079401C4007400F606010BD105A89888B
:1012D000002295DFF2E70000A4280020C82F00209C
:1012E00010B50178022901D0012904D100224068FB
:1012F0001146FBF7A9FB10BD0870000A48700220D8
:101300007047000001218140024842688A434260E0
:1013100070470000B028002038B51549154A4888A4
:1013200090420FD04A78144C521CD2B24A70237BA0
:10133000934208D3083175DF002803D0A169002942
:1013400000D0884738BD00254D70217C002907D08A
:101350003B2176DF002803D0A169002900D088470F
:1013600061690029EED068460570884738BD0000E5
:1013700070280020FFFF00008C2E002012494868D2
:10138000C005C00D19D0103840B2002807DA020796
:10139000120F083A920892005118C96904E08108B6
:1013A0000A4A8900891809688007C00EC1400806EA
:1013B000800F012803D0032803D0022070470020AB
:1013C000704701207047000000ED00E000E400E0FD
:1013D00042788378521C934200D1002203789342D2
:1013E00001D1002070470A604168407818225043BC
:1013F00008187047F8B51546069C1E460746022297
:10140000009400F00AF8002806D13346102229463D
:101410003846009400F001F8F8BDFFB583B00746E8
:1014200000200C9C8646267805463AE07868A9009C
:1014300041180A88684682804988C180002269462E
:1014400001A865DF002810D168460178059881421F
:1014500026D17046002801D0002200E00222207828
:10146000891841181F2902D90C2007B0F0BD714618
:10147000002908D1401CC0B2411C069B049A21706F
:101480001A5401208646217806980A18694601A850
:1014900065DF0028E9D16946207809784018207076
:1014A0006D1C3888A842C1DC7046002804D0207822
:1014B0000699801B401E88550020D6E70179002937
:1014C00002D1007B002800D00120704706001800E0
:1014D000000090010B09080A0100000000509D0067
:1014E00014000000130000001200000011000000B2
:1014F00014000300E1DA010013000300E1DA010047
:1015000012000300E1DA010011000300E1DA01003A
:10151000FFFFFFFFB7FC0100FDF2010089F20100AF
:10152000ADF30100B3FC0100CDF2010085F2010032
:10153000A5F30100AFFC01008DF2010081F2010072
:101540009DF301000001000003000000B50F020040
:10155000D50F0200310F0200690F0200410F020097
:101560006510020085E3010031E30100D91002009B
:1015700019F4010003000000981502000028002063
:101580004401000038C20100B815020044290020BF
:10159000BC11000076C501005300020713FFFFFFD6
:1015A000FFFFFF08340D1801001418010367FFFF47
:0815B0000281011424F4000083
:040000050001C0C175
:00000001FF
