:020000040001F9
:1080000008310020F58001000F810100118101007D
:108010000000000000000000000000000000000060
:1080200000000000000000000000000013810100BB
:108030000000000000000000158101001781010010
:108040001981010019810100A58401001981010035
:1080500019810100000000006D82010019810100FA
:1080600019810100198101001981010019810100A4
:108070001981010019810100198101001981010094
:1080800019810100B98301001981010019810100E2
:10809000D9830100198101002D840100198101009B
:1080A000198101001981010000000000000000009A
:1080B00000000000000000000000000000000000C0
:1080C0000348854600F0A2F80048004719B30100B4
:1080D00008310020401E00BF00BF00BF00BF00BF2E
:1080E00000BF00BF00BF00BF00BF00BF00BFF1D195
:1080F000704700000321094802680A4302600848EB
:1081000002680A4302600748804707480047FEE7C5
:10811000FEE7FEE7FEE7FEE7FEE70000240500407D
:108120005405004051840100C180010030B50B4668
:10813000014600202022012409E00D46D5409D4241
:1081400005D31D469540491B2546954040191546C7
:10815000521E002DF1DC30BD70B5002425460028EC
:1081600001DA01244042002901DA01254942FFF7E2
:10817000DDFFAC4200D04042002C00D0494270BD2F
:1081800010B5431A934209D28318881803E0401EA1
:1081900001785B1E1970521EF9D210BD03460B43C5
:1081A0009B0703D009E008C9121F08C0042AFAD2AD
:1081B00003E00B780370401C491C521EF9D210BD1D
:1081C000D2B201E00270401C491EFBD2704700226F
:1081D000F6E710B513460A4604461946FFF7F0FFC6
:1081E000204610BD421C0178401C0029FBD1801A9A
:1081F000704730B504460020034600E05B1C934204
:1082000003D2E05CCD5C401BF8D030BD064C0125AC
:10821000064E05E0E36807CC2B430C3C984710342E
:10822000B442F7D3FFF750FFF8C6010018C70100AA
:1082300030B58C180278401C13071B0F01D103784E
:10824000401C120906D10278401C03E005780D702D
:10825000401C491C5B1EF9D101E00B70491C521EE9
:10826000FBD1A142E6D3002030BD0000F8B50024C8
:10827000FF250135012627460094284603F06AFAB7
:10828000002808D034484068304204D033480021E8
:108290002818344301602D1D76007F1CADB2042FD9
:1082A000EBD3FF207D3003F055FA002807D02C488F
:1082B00000210160400704432A48006900902A4FCA
:1082C000200712D00126002526420AD02748AA00FE
:1082D000111808690969C004C00E8903BA58890FCA
:1082E000904776006D1C042DEED3002C30DA00246C
:1082F0001D4E0821301940304156491C25D0077ABF
:10830000BD06AD0E284601F0B5FC80003658002EA3
:108310001BD0BF090121A940154AA8008018006898
:10832000009A8003800F114202D0022802D00CE094
:1083300003280AD1032F05D102280AD0022128469A
:1083400003F0F8F939462846B047641C062CCFD311
:10835000F8BD0321F3E70000006300400060004027
:108360007C61004000050050DC27002000650040D3
:10837000000700508307FF22DB0E9A408907090E91
:10838000994000280BDA0007000F083883080848D6
:108390009B001818C36993430B43C361704783085C
:1083A00004489B001B1818689043084318607047E6
:1083B00000ED00E000E400E010B506490020086090
:1083C00048608860C860034940390860486003F02D
:1083D000D7FF10BD40110140FEB50020C043124D33
:1083E00002906869019068462E6902F061FB0746B9
:1083F00002F0D0FE0446002F08D002AA019900988E
:1084000002F076FB029802F00FFF06E0029802F0FD
:108410000BFF002801D1002C02D0304601F086FD70
:1084200000206871FEBD00002C21002010B5074817
:108430004068002807D08047002803D0002211465A
:1084400000F0F2F910BD02F0FFFD10BD5021002038
:1084500010B502F047FE002805D00E490C484860D0
:10846000C8130D4988610D48018CC9B201290ED18C
:10847000818C09070BD1018D0906090F042906D14A
:10848000808D0006000F02D105490120886010BDD3
:10849000DFFF07C000050040006C0040C00F00F087
:1084A000000600407CB51B4CA0681B4E0025002830
:1084B00018D0A56019488069C1B2194800F0D9F9EF
:1084C000002805D001216A4611700190684607E036
:1084D00013488168C068401A012803D168460570B6
:1084E00071688847E069002803D0E561032003F044
:1084F0005FF9606A00280BD0656208498039086816
:10850000086002216A4611700190716868468847C8
:108510007CBD000000210040E82000200025004034
:10852000BC27002030B47446641E2578641CAB421E
:1085300000D21D46635D5B00E31830BC184702E0C3
:1085400008C8121F08C1002AFAD1704770470020DE
:1085500001E001C1121F002AFBD1704738B50D4C54
:108560006078022802D00C490120886069460B48D7
:1085700000F06EF9002802D000F016F838BD084867
:10858000802181606A46074B1278DA6102226270AC
:10859000416038BDE820002000200040CC270020AA
:1085A00000230040002500401CB506490120C8609A
:1085B0000549487003206A46107049686846884734
:1085C0001CBD000000200040E820002004490020DD
:1085D000487004490122CA604A6003490860704734
:1085E000E82000200020004000250040F7B582B0C0
:1085F00000260546167000781446002805D0284647
:10860000039902F055FF060008D1A87800281ED073
:108610002078039F001D1F2802D90C2005B0F0BD53
:10862000684679DF0028F9D121780322481C2070A0
:108630007A5421781922481C20707A542078C11964
:108640006846008803F026FF217840182070E878FB
:108650000223002810D02078039A411C2170135463
:1086600020780399471C012227700A542078EA7861
:10867000471C039927700A546868002815D0002108
:10868000415620788C460246C01C03991F28C4D846
:10869000501C20708B5422780A23501C20708B545D
:1086A00020786246431C23700A542889002809D088
:1086B00028460094062202210830039B03F068FF3D
:1086C0000600ABD1288A002809D02846009407224A
:1086D00003211030039B03F05BFF06009ED1288B23
:1086E000002809D028460094152214211830039B35
:1086F00003F04EFF060091D1286A002805D02246DB
:10870000039901F065FC060088D1686A002805D04D
:108710002246039902F09AFE060084D12C20405D87
:10872000002806D022462846039903F059FB06008C
:10873000C7D1304672E710B501220221002001F0B6
:10874000CFF8002801D0072812D1072202210120EA
:1087500001F0C6F8002801D0072809D100210A221B
:10876000084601F0BDF8002801D0072800D10020FC
:1087700010BD00000448426808210B469343836003
:108780000A40C260704700000005005070B5002428
:10879000064D06E06968E000085C012102F0F4FE85
:1087A000641C28788442F5D3002070BD1421002079
:1087B000F8B515460C460646052A01D20720F8BD35
:1087C00002F0B0FF002803D102F082FF0028F6D1AA
:1087D000114900204E600C7008618D6048610F4D9A
:1087E0000DE0E00029688019009181786A46517097
:1087F00000780B4A694602F017FF0028DFD12046B7
:10880000641EE4B20028ECD10348064A00210C3073
:1088100000F066F8F8BD000014210020F4C6010045
:1088200019AE010095A10100BFF34F8F0449034821
:10883000C860BFF34F8F00BFFDE700000400FA05DA
:1088400000ED00E0014B1B6818470000982700204E
:108850008268C36893420AD0826883881A4003689A
:108860009A5C0A708168491C81600020704705206D
:1088700070478268C3689B1A8288934208D8C3688D
:1088800013400268D154C168491CC1600020704780
:108890000420704738B50C46A2680C235A43064B97
:1088A00009789D58054A126A00920246204608300F
:1088B0002369A84738BD0000F8280020F0200020D8
:1088C00010B5064914230A785A435118091DFFF7B9
:1088D000E1FF042003F05AFB10BD00002C2800200B
:1088E00070B5114CA568002D06D0002A06D00028CE
:1088F00004D00023247809E0082070BD072070BD53
:1089000024265E43AE5D002E04D05B1CA342F7DB41
:10891000042070BD242401265C432E556419617027
:10892000A2610360002070BD2C210020FFB59807D4
:10893000002481B01E4615460F4600280BD1002E9C
:1089400009D003F01DFA22490A9888610F70324657
:1089500000208E6008E0072005B0F0BD24234343CB
:10896000D4549B181C75401CB842F7DB24204743A5
:10897000BB19032048700F461846CB6019461830C3
:10898000002218232E465E43D3005B181C705C70D7
:108990009D7058603018521C032AF5DB0020C0433C
:1089A0003861BC70FC7001240A482405046003216E
:1089B0001420FFF7DFFC08480460084C0198A06011
:1089C00003211120FFF7D6FC606878610020C3E71F
:1089D0002C21002080E200E000E100E000150140D1
:1089E000FEB504461D48174682680D46002A0CD085
:1089F00001788C4201D2052D01D20720FEBD21460F
:108A000024235943535C012B01D00820FEBD881854
:108A1000407801281DD0002603F07EFDC0000F49DC
:108A20000190C9684018694603F0A0FD002812D0E3
:108A3000012101700A49446049680830E2C00749D1
:108A40000198C96841180098487003F027FC00207D
:108A5000FEBD2E46E0E70420FEBD00002C210020D4
:108A600000150140F8B5144D0446A868002809D047
:108A700029788C4201D30720F8BD24216143405C52
:108A8000012801D00820F8BD03F046FDC600E868C3
:108A90006946301803F06AFD00280AD002210170EF
:108AA0004460E86831180098487003F0F7FB002034
:108AB000F8BD0420F8BD00002C21002010B5184C92
:108AC000012100220904A068FFF78AFF002803D0D3
:108AD00000221146FFF7A8FE01210022C903E06829
:108AE000FFF77EFF002803D000221146FFF79CFE0F
:108AF00000220C492069FFF773FF002803D00022F1
:108B00001146FFF791FE05210022C9036069FFF7B6
:108B100067FF002803D000221146FFF785FE10BD35
:108B20000020002066260000F0B50546007D0024E8
:108B300093B00E4600280DD0012001466846103142
:108B400003940173717B4173817BF9200140684676
:108B5000891C81731C2104A8FFF739FB6946087C36
:108B600002210843694608742A7DEF21002A02D0B9
:108B70001022104300E008406A46107405940794E0
:108B80000894287D002800D003A8099001270A94A2
:108B900010469771304A82800094B27B0270F27B5B
:108BA00042708078F9221040F722801C1040EF219B
:108BB00008404108490068468170317B01721421E8
:108BC0000BA8FFF704FB01A80B9068460C90878662
:108BD000C486078702A80F90A888AB1D0BAA04A91A
:108BE000A2DF002835D1B068002830D068468771F0
:108BF0001A4981800094317C01700020014668464A
:108C000041708078F9210840F721801C0840EF214D
:108C10000840410849006846817011A8B16800F019
:108C2000CAFC064614210BA8FFF7D1FA01A80B9045
:108C300068460C908686C486068711A80F902A463F
:108C4000E8880E320BA9A3DF002802D100E0EC81F6
:108C5000002013B0F0BD0000192A00000829000010
:108C600010B5C821084800F03FFA00280BD00828AA
:108C700009D00649884206D00549884203D000221F
:108C80001146FFF7D1FD10BDE024002004300000A4
:108C90000134000070B50C4692B000216A46117094
:108CA00007251171002809D0C17849070CD502A900
:108CB000FFF79CFC002808D102AE00E00026002C43
:108CC0000ED0E078002802D0284612B070BD01AA6C
:108CD0000AA92046FFF78AFC0028F6D10AAA00E07C
:108CE0000022684603790178304672DFEDE7000024
:108CF00070B50D4604991646040042D0002E40D0AF
:108D0000424800224271C36001612422314640483A
:108D1000FFF736FA00F0D0F83D49343108461038F4
:108D200001602031816030215438FFF750FA384813
:108D3000217830380170A1788170E178C170617854
:108D400041706269216942610161E268A168C260A3
:108D500081600146E369A269CB618A61616A002989
:108D600019D00146A4310246B03241628A60636A7A
:108D70001B880B80616A436A898899800021436A55
:108D800006E00E2070BD666AB668765C5654491CD3
:108D90009E888E42F7D8A16A00291CD01C4AAC32AA
:108DA00011460C398A608162A36A9B888B80A16A14
:108DB000836A098819800021836A04E0A66AB6687C
:108DC000765C5654491C9E888E42F7D82C210A5D49
:108DD0000F4910390A73216A002909D00B4914314F
:108DE0000162226A52884A80216A026A09881180D7
:108DF0006168002904D00549891D416061684160AE
:108E0000034829463038FFF745FF70BD4C2000204D
:108E10008425002010B502881A4C102A17D0002192
:108E2000112A17D0192A11D1807900280ED1607922
:108E300001281BD002281FD003281FD0042805D1E9
:108E40002171E2680846002A00D0904710BD808852
:108E5000208110BD6170808821898842F9D101206C
:108E600005E021690029F4D0884710BD022000F0F8
:108E70004BF80028F5D110BD0320F8E7032020713E
:108E80000420F4E74C20002010B5022801D003286C
:108E90000ED1084C207800280AD00020207060797C
:108EA00000F032F8002803D02169002900D088475B
:108EB00010BD00004C20002010B507210148FFF72D
:108EC00086F910BD6420002010B50D4800780128F7
:108ED00014D10C4C6078002810D16079002802D0A1
:108EE00074DF00280BD101206070607900F00CF86D
:108EF000002803D02169002900D08847002010BD38
:108F0000842500204C200020F0B5754C87B060719E
:108F1000002606A8069602F0F3FC0127082806D0D2
:108F200000286FD10698002802D02770D4E006965A
:108F3000FFF7C2FF6B4D6878002802D060790128E6
:108F400005D0A87800280AD06079022807D1E16806
:108F5000002903D0E7700820884700E0E6706079B8
:108F6000012808D16878002809D05D48193002F03E
:108F700063FC002803D06079022802D00CE00220B4
:108F80006071A878002805D05548193002F054FCCB
:108F9000002801D103206071287B002804D160796A
:108FA000032801D104206071287E002804D1607953
:108FB000042801D166712671E16800290AD0607920
:108FC000032801D0042805D12878002802D0607831
:108FD000002818D0A67018216846FFF7F8F86846F0
:108FE0000670019606720396607901280FD0022858
:108FF00016D03C4E24363746543F03281CD0042854
:109000005ED13BE069E0A77007208847E3E734487A
:10901000183001906846077046820682277152E038
:109020002F48183001906846077029894182A98825
:1090300001820220207146E0A88A69464882288A77
:1090400008822848243003F007FB002805D0287840
:10905000002802D06078002801D003202FE00220F1
:109060006946087204200396F8701E4800213038C3
:10907000FFF710FE002830D1052020E0A88B6946BC
:109080000882288C48821748243003F0E5FA00282B
:1090900005D02878002802D06078002801D004206C
:1090A0000DE002206946087204200396F8700D480E
:1090B00000213038FFF7EEFD00280ED10620207188
:1090C0006079002803D0684673DF002805D1E16885
:1090D000002901D020798847002007B0F0BD0000AA
:1090E0004C2000208425002073B586B004466946D4
:1090F000227C097F00208A4225D00025012668466F
:1091000000950680458007A801902174E188608A57
:109110006A46A4DF002816D1608A0D49884214D01F
:10912000207D002811D00295039504950595E188CE
:10913000684601818672418881810490019805907A
:10914000608A02A9A6DF08B070BD0820FBE7000016
:10915000FFFF000038B50446086820600020C043C7
:10916000608208792075FF200D4620740121684631
:10917000817006490180221D69460120A0DF002878
:1091800003D129462046FFF7CFFC38BD0F18000059
:1091900038B50A88102A1AD0112A1AD0502A1BD1A1
:1091A000027D002A18D0CA884389891D9A4213D1AA
:1091B0000A8B022A10D10268002A0DD0CB7E8C7E49
:1091C00019022143C907C90F07D0002106E0898889
:1091D00001E00021C943418238BD01216B4619706D
:1091E0006946904738BD000070B5054601461C220F
:1091F0000F48FEF7C5FF0F4C00262670296800298E
:1092000007D00822A018FEF7BBFF204608307ADFFF
:1092100002E0084808307BDF002808D1401E60804B
:1092200004486670044A0021001DFFF759FB70BD19
:10923000502600206C200020B5C40100F8B5224C57
:10924000028800271F4DE689102A16D02946496852
:10925000112A21D0122A2DD0502A1CD1C288801D5B
:10926000B24218D1028B022A15D1C27E837E10022F
:109270001843C007C00F0CD112E0818869800146F5
:109280001048082216311030FEF77AFF6F70002E5A
:1092900001D100F0E5FEF8BD0020C04368806F708A
:1092A0000846FFF7DFFB0028F5D0A1690029F2D0BE
:1092B0008847F8BD811D034808221030FEF760FF83
:1092C000E7E700006C200020502600207FB5044610
:1092D0000121684681714A4981804A4A01A90120D9
:1092E000A0DF00287ED1228825463C35002A09D0FF
:1092F00044482B46801C00904348616800F0C2FC43
:1093000000287BD12289002A0AD03E482B460A3009
:1093100000903D48E168401F00F0B4FC00286DD18A
:10932000228A002A0AD037482B461230009036484D
:109330006169001F00F0A6FC00285FD1228B002A83
:109340000AD030482B461A3000902F48E169801E21
:1093500000F098FC002851D1228C002A0AD029481C
:109360002B46223000902848616AC01E00F08AFC1B
:10937000002843D1228D002A0AD022482B462A30C9
:1093800000902148E16A401E00F07CFC002835D1A5
:10939000216B00290ED002A802F046FF19482B4687
:1093A000323000901848082202A9801F00F06AFCA1
:1093B000002823D1606B00280BD012492B463A318C
:1093C0000091027901681048401C00F05BFC002805
:1093D00014D1A16B002910D002A802F071FA09483B
:1093E000423000E00AE0009007482B46072202A91D
:1093F000273000F047FC002800D1002004B070BDE9
:109400000A18000084200020292A000070B50446B4
:1094100000F0F2FF2146134800F082F8114821467F
:109420001838FFF7B5FE2046FFF708FF204600F08A
:109430008FF920880C4D102802D011280ED10AE097
:10944000072000F071FA002803D000221146FFF730
:10945000EBF9A08801E00020C043A8802046FFF778
:10946000D9FC70BDF82400200020002030B504464F
:10947000008C134A8BB090421FD006AA204601F000
:109480009FFD6946054608800020019002900390E8
:10949000049022898A8001228A71088106A803919A
:1094A0000490208C01A9A6DF002804D16946098810
:1094B000A94200D00C200BB030BD0820FBE7000013
:1094C000FFFF000038B50446086820600879607125
:1094D0000020C0430D4620840020222108554C2145
:1094E00008530121684681700C490180A21D69461C
:1094F0000120A0DF00280FD12946204601F008FDF9
:10950000002809D1A868002805D02946204600F087
:109510008DF8002800D1002038BD00000D18000093
:1095200038B50A88102A17D0112A17D0502A18D116
:10953000CA888389891D9A4213D10A8B022A10D1C5
:109540000268002A0DD0CB7E8C7E19022143C90708
:10955000C90F07D0002106E0898801E00021C94336
:10956000018438BD01216B4619706946904738BDAA
:1095700070B5054604464035A8890E46142807D123
:109580002622A118881EFEF7FBFDA889401EA8818F
:1095900080B241000919401CA8818E8470BD203022
:1095A0008170704770B504460D460846FEF71AFEF6
:1095B0002080656070BD0A78027049784170022091
:1095C000704700001CB5002348221549082002F00E
:1095D00011FD002803D000221146FFF725F90020D5
:1095E00000900190012069460870684660DF0028FD
:1095F00003D000221146FFF717F90A4802F0F0FCE9
:10960000002803D000221146FFF70EF9064802F0A9
:1096100009FD002803D000221146FFF705F91CBD03
:10962000982400200D94010019C20100F0B58FB0FC
:109630000D4606461C216846FEF7C9FD68460178BE
:1096400002200143684601700024019403940494AD
:109650000594012708A80694877015496846018477
:109660000794E97B0177297C4177807FF9210840C5
:10967000F721801C0840EF21084041084900684656
:109680008177142109A8FEF7A2FD08A8099007A870
:109690000A9068468785C4850786A8680D9033467A
:1096A000F088103309AA6946A2DF0FB0F0BD0000B0
:1096B000382A00001CB5044681786A460C4802F03E
:1096C00033F9002812D160781C21484309491C2332
:1096D00040181A46694602F0E1F9064806494C303E
:1096E000807A80000A582146684690471CBD0000D9
:1096F000E02000204C270020ACC601007CB5134EB2
:1097000000250C463060002918D06946002000F082
:10971000B3F8002819D101A9012000F0ADF8002804
:1097200013D1684601790020002901D0022004E00D
:1097300069460978002900D00B2020707068002845
:1097400002D1FEF7F8FF054628467CBD44200020E4
:1097500010B51C4C0188606810290DD011290AD160
:10976000401E606007D1FEF7E6FF002803D02168A5
:10977000002900D0884710BD00281ED100210122F9
:10978000084600F0ADF8002801D0072811D10722C3
:109790000221012000F0A4F8002801D0072808D1F8
:1097A00004220221002000F09BF8002805D00728A1
:1097B00003D02168002900D088476068401C6060A1
:1097C00010BD00004420002010B5032000F0FCF97B
:1097D000002801D0062800D1002010BDF8B50746AA
:1097E0000024224802E0641C042C19D2A2008258F2
:1097F000BA42F8D1042C13D21D4E1E4DF069002937
:1098000028D001290DD002290AD160002018401962
:109810004578002D04D0F168002901D028468847FA
:10982000F8BD610062182946AD5C51180091497875
:10983000002909D071680A2251430D4A521CFFF7D2
:10984000CFF8002800D17770009881780848103050
:109850000155DEE7FFF706F9054861006118103091
:109860004919005D8D78A842D3D0F8BD68C60100C3
:10987000242000204825002004280CD2074A126921
:10988000074B80001B5C01209840904300D00120D2
:109890000870002070470020FAE700000005005023
:1098A00068C6010010B5042806D0072810D00A2881
:1098B00001D102F051FB10BD08481321808876DFEA
:1098C00008E00028F7D000221146FEF7ADFF10BDDA
:1098D000FFF7FAFA0828F4D110BD0000002000209C
:1098E00070B50023042811D2440004190D4D012A3B
:1098F00002D101290DD0002246008019094E80199D
:1099000000290CD0012906D0022906D007231846C9
:1099100070BD0D30C2B22A55F9E74270F7E7827088
:10992000F5E700004825002010B5054A0146127AE7
:109930000020D20702D0084600F054F810BD000005
:109940002420002070B50E461F4905464E608D60EC
:109950000020CA60A9071ED5002401221146204616
:10996000FFF7BEFF641C042C02D20028F5D012E0E1
:10997000002810D1720804211448FEF719FF0028AE
:1099800009D1FEF703FF002805D10F48104A002136
:109990001C30FEF7A5FFE90705D00F490D4A8A6084
:1099A0000023CB608A6100280DD107480B4A0021B3
:1099B0001430FEF795FF002805D10348084A01211D
:1099C0001830FEF78DFF70BD2420002078C60100FE
:1099D000059C010008002003000500507DB1010036
:1099E00075870100FEB5724906464F684B690093C2
:1099F000BB00FB18002001220193520505466D4C67
:109A00003300FEF78FFD180D1313364655677C881B
:109A10007F88919B9E9E9E9E9EBDC1C5CAD0D0123E
:109A200019225205A260E5600D70FEBD03200006FC
:109A3000A060E5606068604B5840800209D5A26074
:109A4000E560022E02D1E120C0000AE07D20400145
:109A500007E0E260A560022E01D1C82001E0FF20EE
:109A600091300E706421FEF761FB784300220146BD
:109A700041E003200006A060E56060684E4B58405E
:109A8000800203D5A260E5601814EAE7E260A560F1
:109A9000E3E703200006A060E5606068464B58409D
:109AA000800202D5A260E560D0E7E260A560D6E75B
:109AB00003200006A060E56060683F4B58408002CC
:109AC00002D5A260E56001E0E260A5600E70790059
:109AD000002210E003200006A060E5606068364BBD
:109AE0005840800202D5A260E56001E0E260A56016
:109AF0000E70002239460098FEF772FFFEBD032368
:109B00001B0642E06068012109060A468243A26002
:109B10000840E06010E061680120000602468A43C8
:109B2000A2600140E160E4E76168012000060246AE
:109B30008A43A2600140E1600199C9E71E49E160E2
:109B40001CE00F468869FEF78DFF11218A1B08264D
:109B5000002A01D0002802D0A660E560FEBD012ADF
:109B60000BD91046C82148436421FEF7DFFA796813
:109B700000224143B869FEF733FFE660A560FEBDF1
:109B80000D4AA260E56011E00C4BA360E5600BE0BC
:109B90000B4AA260E560520506E00A4AA260E56051
:109BA0000922520500E0044AE260A5600E70FEBD85
:109BB00024200020000500500800200308000003B6
:109BC0000800200208000002F0B500210B4C0C4DEB
:109BD00003273F048A00A2589200561932680123D5
:109BE0008B40034000D00323BA431B04134333606C
:109BF000491C0429EED30020F0BD000068C6010016
:109C00000007005010B500780221FFF7E7FD10BDF6
:109C10000022D243830004490428CA5002D3081802
:109C20004030027170470000DC270020F0B50025AD
:109C3000ED43002A02D00023042601E004230A2673
:109C40000B4C04E09F00E7597F1C04D05B1CB3421F
:109C5000F8D32846F0BD26185DB2203635729E0036
:109C6000A151002AF5D1E11840310871F1E7000057
:109C7000DC270020024909182820085670470000F8
:109C8000DC270020FFB58FB01E4615460F0004D11B
:109C9000002211461046FEF7C7FD002D04D1002218
:109CA00011461046FEF7C0FD1C216846FEF78FFAEC
:109CB000684601780220014368460170002401943F
:109CC000039404940594012108A8069481706846C1
:109CD0000F99018407943178017771784177807FFB
:109CE000F9210840F721801C0840EF210840410875
:109CF000490068468177142109A8FEF768FA08A888
:109D0000099007A80A9068468585C4850586044899
:109D10000D9709AA69460088189BA2DF13B0F0BD11
:109D200084200020F8B53E481422017851430C18D5
:109D3000E0680C2148433A492769CC31401805892D
:109D400041890091241D466801F07CFE0146384699
:109D5000FEF7ECF9002932D000200099A2884D438B
:109D60006188AE198918CD1900222E4900280A6190
:109D700009D001F067FE6188884222D0B54202D145
:109D8000A08800281DD0A06802281AD001F05AFE31
:109D9000A188CA1901461046FEF7C8F9214C880867
:109DA000E06001F04FFE01462846FEF7BFF90029AA
:109DB00011D00020B5422FD000280ED02CE0012079
:109DC000CBE701F03FFE01463846FEF7AFF91549F3
:109DD0004861032021E00120ECE7ADB2B7B201F009
:109DE00031FE01463846FEF7A1F9064601F02AFE8B
:109DF00001462846FEF79AF9864201D1781B09E010
:109E000001F020FE064601F01DFE01462846FEF741
:109E10008DF9701A80082061022002F0B7F8F8BDB1
:109E20002C280020F020002010B5074814220178CB
:109E3000514308180079042802D000F059F810BDE9
:109E4000012002F0A3F810BD2C28002010B50B480B
:109E50001422017851430818094AC1881162007917
:109E6000012806D0032801D0042801D1FFF75AFFAA
:109E700010BD012002F08AF810BD00002C2800203F
:109E8000F020002014225043054A0021801801715F
:109E9000C18001220161C2604161018170470000FF
:109EA0002C280020F8B5104C069E65780A2D19D094
:109EB00027787D190A2D00D30A3D14277D432D19DB
:109EC00028716A6103C92961E860EB802E8160789E
:109ED000401C607005480078002801D1FFF7B6FFEC
:109EE0000020F8BD0420F8BD2C280020F020002020
:109EF00010B50D4C14212078484301190020091D8C
:109F0000FEF7C8FC2078FFF7BDFF6078401E607048
:109F10002078401CC0B220700A2801D10020207097
:109F2000002002F033F810BD2C280020F8B522489C
:109F300001694A1C3DD024225143826889184E6829
:109F40001E494C6847690079E11B0D022D0AED1C82
:109F5000002814D101201A4A00045060184A403ADF
:109F600050601849400008601749086017490120EF
:109F700008602F20FEF7AEF80F4901200871B542A6
:109F800000D23546E81900020C49000A4031086049
:109F90000A494968001B091B0902090A0002000A54
:109FA000C91C814204D90120064940048039086057
:109FB000F8BD01F0E5FEF8BD2C21002000150140A0
:109FC0004013014080E200E000E100E000100140A9
:109FD000F8B50D4611780646881D14461F2801D98C
:109FE0000C20F8BD33880720062BFAD31927FF0170
:109FF000BB4202D9164A9342F3D17288062AF0D3A3
:10A00000BA4202D9124FBA42EBD1114FBB4203D030
:10A01000BA4201D09342E4D8481C052220706A5409
:10A0200020781222411C21702A542078411930884E
:10A0300002F030FA21784018C0B2207041197088BF
:10A0400002F028FA2178401820700020F8BD0000A6
:10A05000FFFF000010B500221146FEF7E5FB10BD22
:10A06000F8B5164801F030F8144D0026103D144C98
:10A07000002807D0616900291BD001206A461070B2
:10A08000684615E02878002805D06169002910D0BD
:10A09000684606700CE0687800280CD0A1680022A1
:10A0A0006868FEF79DFC002803D0A169002900D054
:10A0B00088472E70F8BD6168F1E700007C20002021
:10A0C0005026002070B5094B04469E7A08200025D2
:10A0D0000E4207D00648844202D01889A04202D11D
:10A0E0000020156070BD052070BD00008C27002089
:10A0F000FFFF00000C214843064910B5012240181B
:10A100008272911E0181FF21C1720721FEF75FF863
:10A1100010BD00008C27002010B5134C20790007DB
:10A120001FD46069401C6061E068002801D00420F1
:10A1300004E000F0FBFF002803D0022002F062F8E8
:10A1400010BD2069002809D06068C10701D0032034
:10A15000F4E70121084360600020EFE7FFF764FEA9
:10A1600010BD02F043F810BDF020002010B50848E3
:10A1700041680A0708D48A0702D5012211434160C9
:10A18000022002F03FF810BD02F030F810BD0000D0
:10A19000F0200020F8B500260124154D23E0696861
:10A1A000F0004718387821466A698140114218D07A
:10A1B0008A436A6101F082FA3A7821462B6991401C
:10A1C00019400346934099420BD17978012901D077
:10A1D000012100E000217B684140002B01D01046A6
:10A1E0009847761CF6B228788642D8D3F8BD00008E
:10A1F00014210020FEB50E46044681786A462348A5
:10A2000001F092FB002826D160780C21204F4843B2
:10A21000C019807A40061FD4022E1DD0012E1DD0F9
:10A220001C4DA0781C2148431B49002341181C22C7
:10A230006846A847002813D0022E0CD020780C21A5
:10A24000484313490C314018807A144980000A5859
:10A25000214668469047FEBD114DE2E7114DE0E70B
:10A26000022EF8D060780C214843C019817ABF22B1
:10A270001140817260781C214843054940394118DA
:10A280001C231A466846A847D8E70000E0200020B3
:10A290008C27002071C10100882600209CC6010087
:10A2A000D5BC0100F9BB010070B50546114A124842
:10A2B00000241C2363431B189B7EFF2B04D0641CCB
:10A2C000072CF6D3104670BD0A78022A09D01C224A
:10A2D00062431018FD22827607221030FDF750FFEE
:10A2E00004E01C2161430818FE2181762C700022B5
:10A2F000E8E700004380000088260020F7B5052528
:10A300000F4F06460024002E0AD01C206043C019BF
:10A31000072231461030FDF76CFF002807D00AE015
:10A320001C206043C019018B0298814203D101981F
:10A330000025046002E0641C072CE4D32846FEBD1F
:10A34000882600207CB5054681B26A46074801F0A0
:10A35000EBFA040008D17421684601F00FFB0400F9
:10A3600002D1284601F074FA20467CBDE02000208E
:10A3700010B5100003D000221146FEF755FA002058
:10A3800010BD00001FB56946087301F061FB00288D
:10A3900003D000221146FEF747FA03A800F026FA80
:10A3A000002803D000221146FEF73EFA01A805213D
:10A3B0000130FDF70CFF6946487901221043E12185
:10A3C0000840DF210C300840694648710720887139
:10A3D0001020C871064800900A71064800F02EFB54
:10A3E000002803D000221146FEF71EFA1FBD000010
:10A3F00071A3010002200020F0B5054693B00020B3
:10A400000290FF24ED480E94007800284BD0EC4FCA
:10A410003868002847D001A800F0DAF9002803D0F6
:10A4200000221146FEF700FA281D05902A206946F1
:10A430000883FF20002688710E710396E04C28885F
:10A440000C3C10280ED0A88803AA0221FFF73AFE80
:10A45000002807D103980C2141430919CA7A69469B
:10A460008A7148712888132217287CD00FDC1028A5
:10A470001BD0112853D0132876D0142813D1039859
:10A480000C2148430019C07AFF2871D08DE0CD49D6
:10A4900018286BD01C286AD0522804D1B87A8000C2
:10A4A000095801A8884713B0F0BDC74F03AA01217E
:10A4B0003846FFF707FE0028F5D103990C204843E2
:10A4C00002220019827211236A4613745171A988FD
:10A4D00001810722A91DFDF753FE287DC10707D082
:10A4E0004108B6480830405CFF2808D00E9006E0CE
:10A4F0003A460EA9A81DFFF701FF00280ED10399C7
:10A500000C22514309190E98C8728A7A08231A43FB
:10A510008A726946887101A8FFF7CCF839E103987F
:10A520000C2148430119887AFD22104088720107E6
:10A5300006D5C0090DD0002101A8FFF75BFE08E099
:10A5400068468079FF2804D001F082F9FF2069462F
:10A55000887103980C225043102100198172122037
:10A560006946087415E17FE030E001E0D5E00EE1D6
:10A57000EA890EA90020FFF7C1FE00280ED103983A
:10A580000C22504300190E99C172837A082213439A
:10A5900083726846817101A8FFF78CF803980C213B
:10A5A00048430019C07AFF2806D003981C2148436D
:10A5B00083494C394018029003981C214843834931
:10A5C0004218A8880023029982DF6CE7684602746B
:10A5D000039B0C2058430119887A04221043887287
:10A5E000C87AFF2830D016206946087424204343D7
:10A5F00073481A21303818180830FDF7E8FD039821
:10A600000C2148430019817A402211438172039939
:10A610000C2200204A430A901219D27A1C235A4372
:10A620006A4B0C90D2180B921C2251431A46C4322A
:10A6300089180791089009903A1DA88807AB002156
:10A640007FDF0028C1D1A4E00EA8FFF72DFE00286F
:10A6500001D00646DBE769460E98887103990C2203
:10A6600051430919C872D2E7787A400840007872DD
:10A67000039A0C209446424311198B7AFB20034025
:10A680008B7214206F463874A879002804D0C87AD9
:10A69000FFF758FEAE797CE0E879400779D5B879C4
:10A6A000FF2876D008273B438B72EB7A9B0708D5AF
:10A6B0001C2503466B43454D5B199D7E6D086D005F
:10A6C0009D76CB7AFF2B64D0A25C022A10D01C228C
:10A6D00050433E4D072240191030FDF751FD6846AA
:10A6E00080791C2148434019817EFD2211400EE0F3
:10A6F00061461C225143324A4C3A89184A8A1C212D
:10A700004843324940180283817E490849008176D6
:10A71000012101A8FFF76EFD3BE0A8790209012A9B
:10A7200023D10007000F01281FD103980C224243B8
:10A730001219927A120718D524214843204930393A
:10A7400040181A210830FDF742FD162069460874AA
:10A7500003980C2148430119887A602210438872BB
:10A76000787A0221084378720FE003980C22504354
:10A770000019827A80231A43827215206A46107467
:10A78000B87A8000095801A88847002601E0684689
:10A790000274324604A901A8FEF754F86846007C0A
:10A7A000122800D07FE603980C2141430919897AC9
:10A7B0000129F7D0FFF79EFC75E60000D0200020AD
:10A7C00098270020BCC60100FFFF0000882600205B
:10A7D000002806D0FF21017041708170C1700020F7
:10A7E00070470148704700000E800000F0B585B04A
:10A7F000040036D029480025056045728572284638
:10A80000FFF778FC254824213038FDF7E0FC0026CE
:10A81000FF27304601F01CF821488755761C072E8B
:10A82000F7D37421684681800721C1801D481C49E7
:10A8300000900831684601F085F900280FD1184EC4
:10A840000120083E3070207800280CD069468888A6
:10A85000C988484381B23046103001F08FF805B006
:10A86000F0BD1148FBE7114F00240D48A1B202AA28
:10A87000083001F059F8002809D11C206043C019A4
:10A8800000231C2202A901F009F9002801D035702B
:10A89000E5E7641C072CE8D3E1E7000098270020D7
:10A8A000D8200020B1A801000E80000088260020DA
:10A8B000FFB55D488FB00068189F1E46002875D010
:10A8C000742F73D86846FFF783FF002803D0002257
:10A8D0001146FDF7A9FF002468460470047125465F
:10A8E00005970696A9B20DAA504801F01DF8002858
:10A8F00006D108220DA90F98FDF77BFC002817D080
:10A900006D1C072DEED368468578FF2D4ED010982C
:10A91000032810D046481C21301AFDF707FC0127F8
:10A9200007281ED204A80290119800280BD011E02D
:10A9300068468570E7E7742F03D0402069460871A8
:10A940006CE02020FAE738463849A84010394968B9
:10A95000084261D0284601F0A3FD20206946087115
:10A960004AE031481C214C38301AFDF7DFFB002843
:10A970001DD02D4824213038301AFDF7D7FB0100B7
:10A980002C482CD040216A4611712B498E4245D06B
:10A99000274AA9001C3A5158B1423DD104A902915D
:10A9A000C07A854228D16846447025E034E004A886
:10A9B000029020216846017144701B480A940C30B3
:10A9C0000B9058380790684680781C2148431849F6
:10A9D0004018089007A80690182005900CE0302237
:10A9E00069460A714C70CF70807A800704D4114890
:10A9F00024212438FDF7EBFB1098694602280879DA
:10AA000010D0022108436946087104A8029001A9E8
:10AA10006846119AFDF716FF13B0F0BD6946087934
:10AA20000321EFE73843EFE798270020E0200020DC
:10AA3000882600208C27002098C6010070B50646A5
:10AA400018480D46007800280ED01749002E0ED069
:10AA5000002D0CD02868002809D0144C216800294A
:10AA600007D011480A3870BD0F48801F70BD0846D6
:10AA700070BD20600522691D201DFDF781FB28792E
:10AA8000A072207A0221400840000843FB221040B7
:10AA90002072E0790123184308431040E071002040
:10AAA000307070BDD02000200E800000982700205C
:10AAB00010B50E4900238A78CC78A24212D0521CDD
:10AAC000D2B28A70022A00D18B708A78074B92002A
:10AAD0001C339A580260486910180002000A486145
:10AAE000012010BD0360002010BD00002C210020BB
:10AAF000F7B5144C0025A76823691EE024215943AB
:10AB0000C9194E68864202D9301A486017E0801B86
:10AB1000751900264E600E750E699C460B6AB64686
:10AB2000002E0AD0019E76193602360A8E607646CD
:10AB3000CE6016680E6261461160591CDED1236139
:10AB4000FEBD00002C21002010B5002803D01128E4
:10AB500002D0FDF7B5FE10BD02480822416811433E
:10AB6000416010BDF020002010B51C4C217820461B
:10AB70004068012906D0022929D0032912D10007F3
:10AB800017D513E0000711D415481422017851435A
:10AB90000818C188A28B891A0904090CC18002D047
:10ABA00001F0E8FA10BDFFF7A3F910BD00F042FC78
:10ABB00010BD6069401C606100F0B8FA002803D045
:10ABC000207801F0E3F910BDFFF72EF910BD607891
:10ABD000044980000858804710BD0000F020002084
:10ABE0002C280020E0C6010010B528DFFFF7ACFFDD
:10ABF00010BD10B529DFFFF7A7FF10BD0EB511205E
:10AC0000694608720A2214A102A87CDF002803D03A
:10AC100000221146FDF708FE124878DF002803D015
:10AC200000221146FDF700FE0020FF220090413275
:10AC3000694601900A804122D2004A808880FF2024
:10AC40009130C88068467ADF002803D00022114680
:10AC5000FDF7EAFD0EBD00004E6F726469635F4848
:10AC6000524D000041030000002070470020704753
:10AC700000207047F8B506464078242104464C432E
:10AC800024490C2250436118224A00254B68243283
:10AC90008018AE462F469C46002B0CD0827A134675
:10ACA000D20908D05A0606D40D461A4A614689B21E
:10ACB000175908358E46174C008924343B46724696
:10ACC0002946A9DF0B2819D0002800D01248012FEF
:10ACD00013D170780C214843001900890F4AA7DF6F
:10ACE00000280AD00E49884212D0082810D0891CAA
:10ACF00088420DD011280BD00020F8BD70780C21AF
:10AD0000484301230019008972462946A9DFE0E77C
:10AD10000148F8BD6827002041800000FFFF0000C7
:10AD20000230000070B50C46014660782422084DC0
:10AD300050434019382300F0B1FE002807D1617854
:10AD40002422514349194A68521C00D14A6070BDFF
:10AD500068270020F3B589B00D461A20694688831C
:10AD600068780C2103274843224E3B46801900890E
:10AD700007AA6946AADF002838D168782421484309
:10AD8000741A001969468A8B0830FDF732FA0028D8
:10AD9000687807D0242148430119496800290DD05B
:10ADA000154E0CE00C2141438919897A89071DD47D
:10ADB000242148430019FDF70AFA17E00F4E2750E7
:10ADC0006846828B6878242148430019426068787D
:10ADD0004843001969460830FDF7D2F96878242104
:10ADE00048430119382324220998B04700200BB0AA
:10ADF000F0BD00008C270020D5BC0100F9BB01008C
:10AE000010B5FFF737FF10BD10B5FFF78BFF10BD72
:10AE100010B5FFF79FFF10BD70B50646104C012519
:10AE2000B540E068FDF71EFE00280CD1616929429B
:10AE300007D1304600F042FC0028206904D02843A6
:10AE400003E0A943616170BDA843206160690022ED
:10AE500028436061A168E068FDF7C2FD70BD000095
:10AE60001421002070B51B4C207900072ED41A48FD
:10AE70001422017851430D182E6900F0E3FD0146BC
:10AE8000E8882A89761E80188019FDF74FF9216914
:10AE90000025002909D06169814206D1E56060681A
:10AEA00001210843606000200AE000F03FF900281B
:10AEB00002D00220E56003E02069002803D00320CF
:10AEC00001F0A0F970BDFEF7AFFF70BD01F08EF983
:10AED00070BD0000F02000202C28002010B5B42107
:10AEE0000848FEF7C3FA00280BD0082809D0064905
:10AEF000884206D00549884203D000221146FDF75A
:10AF000093FC10BDF8240020043000000134000040
:10AF1000F0B5002406460D46601C010795B0090FE8
:10AF200008A810310C940174297B4174817CF927A5
:10AF30003940891C81741C2105A8FDF748F9684631
:10AF4000017D10200143684601750CA806940A9003
:10AF50000894099401220B9408A882761749684640
:10AF600001870D94697B08A80175A97B4175817DD6
:10AF7000F7203940891C0140EF200140114308A807
:10AF8000817514216846FDF722F90EA800900DA8DE
:10AF900001900FAA0021304600F012F801466846E1
:10AFA00001811421448181810FA804903346F088E7
:10AFB00008336A4605A9A2DF15B0F0BD372A0000A4
:10AFC000F7B542790025002A00D004252222135C1F
:10AFD0000222002B00D01543CBB2FF2907D9012252
:10AFE0001543029A090A53709170032602E00299F0
:10AFF00002264B7004464034A189002901D010215B
:10B000000D43002716E0B11C142909D9A189C91BD9
:10B010004A007900091824302431FDF7B1F80CE01A
:10B02000029B7A0012189B19928C1A70120A5A709D
:10B03000CEB27F1CA189B942E5DCA089C01BA081EA
:10B04000029805703046FEBDF8B51E4C20780028E9
:10B0500037D02069002807D00026E068002805D0F6
:10B060000025002E04D013E00126F6E70125F8E7BD
:10B07000684651DF052806D0002806D00022114678
:10B08000FDF7D2FB04E0012602E021690098884721
:10B09000002D12D1608869460880A06861DF05280C
:10B0A00006D0002806D000221146FDF7BDFB04E0C3
:10B0B000012502E0E168A0688847002ED8D0002D65
:10B0C000CFD0F8BD50210020418805480288914228
:10B0D00004D34088814201D8012070470020704786
:10B0E000742000201048018CC9B2012917D1818C2D
:10B0F000090714D1018D09060A0F03D1828D1206AA
:10B10000120F0ED0090F012903D1828D1206120FE2
:10B1100007D0032903D1808D0006000F01D0002045
:10B120007047012070470000C00F00F070B50E4856
:10B130001422017851430C18256900F083FC014664
:10B14000E08822896D1E80184019FCF7EFFF07493F
:10B150004A69824206D3824202D10869002801D09E
:10B16000002070BD012070BD2C280020F0200020A0
:10B17000800701D0002070470120704710B50448B7
:10B18000017AC90702D00078FEF72CFC10BD000040
:10B1900024200020F8B5234801690091457833E068
:10B1A0002048E900C0680E1834782AE0182060436F
:10B1B0007168641C0818B178E4B2A14200D100247F
:10B1C0000178022902D003291BD113E0154A4068F7
:10B1D0002421926841438F18397D002911D001F054
:10B1E00097F8002038750CE024277843C0180275C2
:10B1F000006A03E00B4900228B680869471CF3D101
:10B2000008617078A042D1D128466D1EEDB20028A9
:10B21000C6D1044801690098814201D00120F8BDDF
:10B220000020F8BD2C210020F8B50446384800273E
:10B230000169009146785CE03548F100C2688D18DC
:10B2400051E0601C07D0324A2420926860432146B6
:10B250008018046A24E02878182141436A68401C59
:10B26000C0B252182870A978884200D12F70284B9C
:10B27000516824209B684843C0181378012B34D1AF
:10B28000037D002B31D193688360D368C360136959
:10B2900003615269C2611E4A5279002A00D0876058
:10B2A0001B4B82685B6996469C46D31A1A02194B5F
:10B2B000120A9A4202D2C368D21808E07246634664
:10B2C0009A1A1202C368120A934202D99A1A426069
:10B2D00000E0476087600122C7600275921E02622B
:10B2E000084600F0E3FF601CABD1287869788842FB
:10B2F000A7D13046761EF6B200289DD104480169D8
:10B300000098814201D00120F8BD0020F8BD000066
:10B310002C210020FFFF7F0096B001F071F83E4A1B
:10B320003E490320FEF70EFB002803D00022114601
:10B33000FDF77AFA01A90020FEF7E0F9002803D012
:10B3400000221146FDF770FA68460079022859D0AC
:10B35000002168460170FEF735F968460078FFF76E
:10B3600011F8FFF74BFC302101A8FCF730FF022158
:10B3700068460171012484710621C171032585820B
:10B380002748069024210DA8FCF721FF10A804707F
:10B39000FF202D301190B42000241290214B0DAAD3
:10B3A0002146009401A8FDF7A3FC002803D0002249
:10B3B0001146FDF739FA00F051FD1C216846FCF7F3
:10B3C00006FF0520C00301900F20000402900094A6
:10B3D00068460573144881896846C181047413481E
:10B3E0000590134806906846FDF7FEFE002803D03E
:10B3F00000221146FDF718FAFDF760FB0320FDF768
:10B4000083FD02E00121A4E748DF0028FCD00022F0
:10B410001146FDF709FAF7E7A5980100CD0C0000E9
:10B420001820002069B70100F82400208DB7010022
:10B4300055A0010010B504480822416891434160BD
:10B44000007800F0A3FD10BDF020002070B5054687
:10B4500000790E46801C1446C0B21178821C8A18EE
:10B460001F2A01D90C2070BD0A46491C2170401CBE
:10B47000B0542078FF22411C217032542078811969
:10B48000288801F007F821784018C0B22070AA88F7
:10B49000002A09D0A968002908D08019FCF770FE9D
:10B4A0002078297940182070002070BD072070BDD9
:10B4B000F8B514780746A01C15460E461F2803D879
:10B4C0007878801C1F2801D90C20F8BD1D20001B96
:10B4D00080B26946864608803019801C7DDF0028CE
:10B4E000F3D13878022805D168460088704501D824
:10B4F000092107E078780821002801D0704501D99A
:10B5000068460088421C3255641CE2B2B154297866
:10B51000801C081828700020F8BD0020704700200B
:10B5200070470020704700008207D30EFF229A4028
:10B530008907090E10B5994000280BDA03071B0F85
:10B54000083B9C080C4BA400E318DC6994430C43B3
:10B55000DC6107E08408094BA400E41823689343E6
:10B560000B432360C106C90E0120884004490860CE
:10B570000449086010BD000000ED00E000E400E0B8
:10B5800080E200E000E100E0F3B581B00F460198F1
:10B5900000F07EF9012400281E4E019817D0FEF716
:10B5A00069FB8019403000798009032802D0012806
:10B5B00006D007E01848006901998C40204201D16B
:10B5C000022100E00321019800F0B4F8FEBD00F074
:10B5D0006BF90028FAD00198FEF74CFB0546810074
:10B5E000C81D0E4AF93089180A6980B222430A61DF
:10B5F0000B49401800210160002FE7D00198FEF7A9
:10B6000039FB800030580028E0D00648AC40446048
:10B61000FEBD0000DC270020000500500065004052
:10B620000060004000630040F8B5204F0D4604461E
:10B630003819282141560026C8171346401C01D04E
:10B64000082630E0EA7819462046FEF7EFFA411C5A
:10B6500028D0174BAA78A100C918002A03D00A687D
:10B6600002239A4301E06A7892000A60E97800298F
:10B6700010D082000F482978101802690E4B1A402A
:10B680000261E206D20C8907890B0A4301690A4369
:10B69000026108E0381840302A780179920111439C
:10B6A000017100E004263046F8BD0000DC270020D0
:10B6B0000007005000650040FFE0FCFF03490969F6
:10B6C000C140C807C00F00D00120704700050050DE
:10B6D00070B5124DA87B002801D0082070BD0F491D
:10B6E00000204039421E0B182033401CC0B21A7291
:10B6F0002028F8D300242046FEF78AFA641CE4B21E
:10B700000A2CF8D301210620FFF70EFF012004497F
:10B71000C00748600120A873002070BD1C280020CD
:10B72000006300400248807B002800D00120704761
:10B730001C280020820006481018026803231B04FE
:10B740009A430260026809040A43026070470000DD
:10B7500000070050034940180068012800D000206D
:10B76000704700000060004010B500280BD003288F
:10B7700008D10220FEF7D8F8002803D00022114695
:10B78000FDF752F810BD00F0E7FB10BD10B50078D2
:10B79000002809D105483B21808876DF002803D0A6
:10B7A00000221146FDF740F810BD000000200020E7
:10B7B00010B51D4A1D490300FCF7B4FE05040B310A
:10B7C00020271200487801281FD0022808D1032022
:10B7D00005E04878002804D0032801D102204870F1
:10B7E00010BD134B04201860124B012018609368A1
:10B7F000D2689A42F3D0FCF7B1FE10BD4878012818
:10B8000006D0022804D00328F7D1FCF7DFFE10BDD4
:10B810009068D1688142EED1FCF7C6FE10BD487831
:10B820000128E8D010BD0000CC270020E82000202F
:10B8300000250040002000400021425C002A01D089
:10B8400001207047491C0629F7D3002070470000EB
:10B8500070B505461C200D49684344182046113038
:10B860000621FCF7B4FC20461021FCF7B0FCFF21B8
:10B8700021740020A176C0432083284600F010FEEA
:10B88000024A0020A9001C3A505070BD88260020B2
:10B890000449081828214156042901DB012070477A
:10B8A00000207047DC270020044908182821415651
:10B8B000042901D20120704700207047DC270020B6
:10B8C00070B50D00044604D1002211461046FCF765
:10B8D000ABFF002C04D1002211461046FCF7A4FF58
:10B8E0002878207069886170090AA170A988E170C0
:10B8F000090A2171E8886071000AA07170BD00001A
:10B9000007490979490701D408207047002804D065
:10B91000044949780160002070470E2070470000FC
:10B92000F02000202C28002030B5124B1B795B073B
:10B9300001D4082030BD002805D0002A03D00468B7
:10B94000002C10D101E00E2030BD0B4B1D68002DE6
:10B9500009D045681889414369185D89454358688D
:10B960002818884201D8072030BD1460002051609B
:10B9700030BD0000F0200020F8280020FEB505466C
:10B9800025480E460079400701D40820FEBD002D51
:10B9900003D02868002834D101E00E20FEBD1F4CE2
:10B9A000216800292DD060892189484361684118A8
:10B9B0006868814225D9FFF7DBFB00280FD0686853
:10B9C000019029680C2251430F1979680091401A9F
:10B9D00039890C46FCF7AAFB002912D101E010209E
:10B9E000FEBD21463046FCF7A1FB002909D1002EFF
:10B9F00007D0788944430198811900980019814241
:10BA000001D90720FEBD002002460090334629469A
:10BA10000320FEF747FAFEBDF0200020F8280020A2
:10BA200010B507484469601C06D000F00BF80146C9
:10BA30002046FCF77BFB10BD01200007406910BDCC
:10BA40000010001001200007006980B2704700005C
:10BA500070B500240F482546047044702846FEF750
:10BA600011FA6D1C0A2DF9D30B4D6C80FFF7D8FF2E
:10BA7000861EFFF7E7FF46430648AE60CC306C6198
:10BA80000460048144812C70AC610420EC61686026
:10BA9000002070BD2C280020F0200020FFB5274892
:10BAA00081B000791F4616460D46400702D4082093
:10BAB00005B0F0BD002D06D00198002803D02868FD
:10BAC000002815D101E00E20F2E71D4C2068002867
:10BAD0000ED0618920896268414389186A68914261
:10BAE00006D9002E04D0B04202D3F119814201D907
:10BAF0000720DDE70198FFF73BFB00281BD0384605
:10BB0000FFF736FB002816D06868FFF731FB0028E6
:10BB100011D068683246C1190198FCF731FB0096D4
:10BB200028680C2148432458002202212846019B02
:10BB3000A0470020BCE71020BAE70000F02000205A
:10BB4000F8280020F8B52A4D044628790E4640070B
:10BB500001D40820F8BD002C20D0002E1ED0206873
:10BB600000281BD0FFF76EFF0146A088814213D347
:10BB7000102811D3E08800280ED0FFF751FF471E90
:10BB8000FFF760FF4743E288A088A9684243521844
:10BB9000974201D3800703D00720F8BD0E20F8BDDF
:10BBA0006888012821D003C60C22124B5043C218CA
:10BBB000516021681950A0881081E0885081FFF7FA
:10BBC00041FF0146A088E2885043401EFCF7C4FABA
:10BBD000441CFFF737FF0146A86861430818A860B6
:10BBE0006888401C68800020F8BD0420F8BD000073
:10BBF000F0200020F8280020F8B5044620481E4612
:10BC0000007915460F46400701D40820F8BD002FE3
:10BC100005D0002C03D02068002815D101E00E20AB
:10BC2000F8BD1848016800290ED042890189406892
:10BC30004A4310186268904206D9002D04D0A942E8
:10BC400002D3A819884201D90720F8BD3846FFF76A
:10BC50008FFA002811D03046FFF78AFA00280CD05E
:10BC60006068FFF785FA002807D02B463A46214640
:10BC700001200096FEF716F9F8BD1020F8BD00006F
:10BC8000F0200020F828002010B51149024608785D
:10BC9000002811D004280FD0022A16D0032A0BD175
:10BCA0000A79120711D48A69521C8A61032A08D0C2
:10BCB000022802D000F06AF910BD487800F0A2FA1C
:10BCC00010BD0D20FCF7FCFD10BDFEF74DFF10BDB3
:10BCD000F0200020F8B5044620481E46007915469D
:10BCE0000F46400701D40820F8BD002F05D0002CD6
:10BCF00003D02068002815D101E00E20F8BD1848B7
:10BD0000016800290ED04289018940684A43101811
:10BD10006268904206D9002D04D0A94202D3A81926
:10BD2000884201D90720F8BD3846FFF721FA0028DC
:10BD300011D03046FFF71CFA00280CD06068FFF7DE
:10BD400017FA002807D02B463A46214604200096D1
:10BD5000FEF7A8F8F8BD1020F8BD0000F020002084
:10BD6000F828002010B504480078002803D064218A
:10BD70000248FDF7FDFB10BD00200020F824002044
:10BD800070B501240B49600408600B4940108860BD
:10BD9000094940398860094D6C602F20FCF79AF9F9
:10BDA000AC60074D00242F206C61FCF793F92C71D7
:10BDB00070BD000080E100E0401301400010014030
:10BDC0002C21002010B504480122417851404170D7
:10BDD0000248FDF7E4FB10BD00200020F8240020FD
:10BDE000F7B582B002981446806A0F46002833D017
:10BDF000029800252030009028E00298816A0C20EB
:10BE000068430E18217830794A1C2270C01C78547F
:10BE100020781622411C21703A542078C1193088AC
:10BE200000F038FB21784018C0B22070B288002A98
:10BE300009D0B16800290FD0C019FCF7A1F920780A
:10BE40003179401820706D1C0098EDB2007BA8423B
:10BE5000D3D8002005B0F0BD0720FBE730B59BB07C
:10BE6000032118A80172142110A8FCF7B0F90024CE
:10BE7000012510A8109405711AA81290601C0107E2
:10BE8000090F10A81031017344738473601C0107FB
:10BE9000090F10A81031C1730020014610A80174C9
:10BEA00001462748FDF70EFB002803D0002211466B
:10BEB000FCF7BAFC142115A8FCF789F9012001460A
:10BEC00018A8103141700120014618A81031817066
:10BED0000020014618A8C1700120014618A81031A1
:10BEE000017110A815940576642118A817940170A3
:10BEF000134815A91838FDF72DF9002803D00022A2
:10BF00001146FCF791FC40216846FCF760F90DA151
:10BF10006846FDF747FB0120014608A8103101776C
:10BF20000020014608A841776846FDF7CFF90028B0
:10BF300003D000221146FCF777FC1BB030BD000097
:10BF4000F82400204E6F7264696353656D69636FF6
:10BF50006E647563746F720010B50020FDF7E4FC29
:10BF6000002803D000221146FCF75EFCFDF72CFCF4
:10BF7000002803D000221146FCF756FC3CDF0028C5
:10BF800003D000221146FCF74FFC10BD10B50F493D
:10BF90000028087009D0012811D0022812D00328E7
:10BFA00002D14869FEF720FE10BD00208861C861FB
:10BFB000074840780028F7D0FDF748FF10BD00F093
:10BFC000D9F810BD00F038F810BD0000F0200020B6
:10BFD0002C28002010B508461146C046C04610BDAA
:10BFE000002803D00249C860002070470E20704727
:10BFF0005021002070B5002901D08C0701D0072006
:10C0000070BD064C0125A16062800549636010DFA8
:10C010000028F5D1257016202EDF70BD502100209C
:10C02000D5BF0100002803D00249086100207047F5
:10C030000E20704750210020F8B5164C142260687D
:10C040004008400060601448017851430E18376979
:10C05000FFF7F8FC01463846FCF768F805466061D2
:10C06000FFF7F0FC0146F0887F1EC019FCF75EF870
:10C0700002228542606801D1104300E09043606075
:10C08000E1681040084303D0002000F0BBF8F8BD81
:10C090000220FAE7F02000202C28002010B50248EA
:10C0A0004069FEF7A1FD10BDF020002010B5FFF79C
:10C0B000B7FC441EFFF7C6FC4443FFF7C3FC04492A
:10C0C0004A69521E5043CA682146FEF792FD10BDD0
:10C0D000F0200020F8B510481422017851430C18C4
:10C0E0002569FFF7AFFC0146E088228980184019D6
:10C0F000FCF71CF80F46FFF793FC461EFFF7A2FC67
:10C100004643E0882289F1198018044A40191269CF
:10C11000FEF76FFDF8BD00002C280020F020002065
:10C1200070B5FFF78FFC0546FFF77AFC441EFFF75A
:10C1300089FC60432946FBF7F9FFFEF755FD70BD0A
:10C1400070B5FFF77FFC8608FFF77CFC074949695B
:10C1500048430446FFF764FC451EFFF773FC684341
:10C1600032462146FEF745FD70BD0000F02000205C
:10C170000020704770B514481422017851430C1800
:10C18000241DFFF75FFC6188104E884211D2FFF733
:10C1900059FC61880D1AFFF755FC8208A188E068F8
:10C1A0004018216940194919FEF723FDFFF74AFCA1
:10C1B00007E0A288E06880188A082169FEF719FD67
:10C1C0006088F06170BD00002C280020F020002065
:10C1D00010B505480079000703D4012000F012F8DB
:10C1E00010BD00F003F810BDF020002010B5044889
:10C1F0000822416891434160407800F003F810BD87
:10C20000F020002002494870024980000858004789
:10C21000F0200020CCC6010010B50446FFF734FD25
:10C220002046FCF731FE10BD70B50C00054604D168
:10C23000002211461046FCF7F7FA002D04D1002227
:10C2400011461046FCF7F0FA207828702088FF216C
:10C2500009020840000A6870206809020840000CC2
:10C26000A8702068000EE87020792871207A687123
:10C270002089000AA871A068000CE87170BD000058
:10C2800010B505480079000702D4FDF7CDFD10BDBB
:10C29000FFF7ACFF10BD0000F02000200120024994
:10C2A000000508607047000000E200E0F0B5174F9D
:10C2B0002421BC6841430D1939694A1C09D0242244
:10C2C0004A4316196B687268934204D8D21A726096
:10C2D00029623861F0BD0A4602E00A46396A9B1BB2
:10C2E0004E1C0BD024264E4337197E689E42F4D351
:10C2F00024264E4336197768FF1A77606B602962EF
:10C3000024214A4311190862F0BD00002C210020AD
:10C3100070B5194C2269A5681346114606E08142A2
:10C3200007D00A46242671434919096A4E1CF6D1E2
:10C3300070BD002EFCD08A420CD1242043435819F2
:10C34000006A2061401C05D10C4B0120986000233D
:10C3500063616071242041434819242341685A4392
:10C36000006A52191062421CE2D024225043401944
:10C3700042685118416070BD2C210020001001401E
:10C38000F8B51D4C2569681C35D01C48002640684E
:10C390006169401A07023F0A19E024204543A0685A
:10C3A0002A185068B84214D8A3693F1A8619156A2A
:10C3B000002B09D0D16990699847002807D0002246
:10C3C0001146FCF731FA02E09169D0698847681C90
:10C3D000E3D1A178E078814206D1401CC0B2E07080
:10C3E000022801D10020E07003490006800D1C31B5
:10C3F0000E50FFF753FFF8BD2C210020001501401F
:10C4000008B500201D4B052209210090FCF78EFA8B
:10C41000002803D000221146FCF706FA184A012131
:10C420001848FCF75DFA002803D000221146FCF7FB
:10C43000FBF91448144A0121001DFCF751FA0028A9
:10C4400003D000221146FCF7EFF90E480F4A0121F4
:10C450000830FCF745FA002803D000221146FCF70B
:10C46000E3F908480A4A01210C30FCF739FA0028A0
:10C4700003D000221146FCF7D7F908BD682100203F
:10C48000618C010008200020DDAE010065BD0100C7
:10C49000C5BD01000870000A487002207047000006
:10C4A00001218140024842688A434260704700008F
:10C4B000D020002038B51549154A488890420FD041
:10C4C0004A78144C521CD2B24A70237B934208D350
:10C4D000083175DF002803D0A169002900D0884702
:10C4E00038BD00254D70217C002907D03B2176DF27
:10C4F000002803D0A169002900D08847616900297C
:10C50000EED068460570884738BD00006C200020DA
:10C51000FFFF00005026002012494868C005C00DEA
:10C5200019D0103840B2002807DA0207120F083A73
:10C53000920892005118C96904E081080A4A8900EA
:10C54000891809688007C00EC1400806800F0128BD
:10C5500003D0032803D00220704700207047012039
:10C560007047000000ED00E000E400E042788378CE
:10C57000521C934200D100220378934201D1002043
:10C5800070470A6041684078182250430818704785
:10C59000F8B51546069C1E4607460222009400F098
:10C5A0000AF8002806D1334610222946384600945E
:10C5B00000F001F8F8BDFFB583B0074600200C9CE1
:10C5C0008646267805463AE07868A90041180A8828
:10C5D000684682804988C1800022694601A865DFDB
:10C5E000002810D1684601780598814226D170460E
:10C5F000002801D0002200E002222078891841188A
:10C600001F2902D90C2007B0F0BD7146002908D1BE
:10C61000401CC0B2411C069B049A21701A54012090
:10C620008646217806980A18694601A865DF002821
:10C63000E9D1694620780978401820706D1C388847
:10C64000A842C1DC7046002804D020780699801BDF
:10C65000401E88550020D6E70179002902D1007BD1
:10C66000002800D0012070471400000013000000D3
:10C67000120000001100000014000300DD9701000B
:10C6800013000300DD97010012000300DD97010095
:10C6900011000300DD970100FFFFFFFF23B501003C
:10C6A00055AD010071AC010011AE01001FB50100D4
:10C6B00025AD01006DAC010009AE01001BB5010004
:10C6C00075AC010069AC010001AE010021C101009F
:10C6D00041C101009DC00100D5C00100ADC00100F5
:10C6E000D1C101006DA1010019A1010081C20100A9
:10C6F00065AE01000300000018C701000020002003
:10C70000680100003082010038C701006821002064
:10C71000A00F00004E85010042010313FFFF0C3201
:10C720000D1801000F1801000A18010393FFFF0202
:08C730007D011424F400000057
:04000005000180C1B5
:00000001FF
