:020000040001F9
:10800000C8350020F58001000F81010011810100B9
:108010000000000000000000000000000000000060
:1080200000000000000000000000000013810100BB
:108030000000000000000000158101001781010010
:1080400019810100198101003985010019810100A0
:108050001981010000000000018301001981010065
:1080600019810100198101001981010019810100A4
:108070001981010019810100198101001981010094
:10808000198101004D84010019810100198101004D
:108090006D84010019810100C18401001981010072
:1080A000198101001981010000000000000000009A
:1080B00000000000000000000000000000000000C0
:1080C0000348854600F0BEF800480047FDBB0100AC
:1080D000C8350020401E00BF00BF00BF00BF00BF6A
:1080E00000BF00BF00BF00BF00BF00BF00BFF1D195
:1080F000704700000321094802680A4302600848EB
:1081000002680A4302600748804707480047FEE7C5
:10811000FEE7FEE7FEE7FEE7FEE70000240500407D
:1081200054050040E5840100C180010030B50B46D4
:10813000014600202022012409E00D46D5409D4241
:1081400005D31D469540491B2546954040191546C7
:10815000521E002DF1DC30BD70B5002425460028EC
:1081600001DA01244042002901DA01254942FFF7E2
:10817000DDFFAC4200D04042002C00D0494270BD2F
:1081800003460B439B0703D009E008C9121F08C030
:10819000042AFAD203E00B780370401C491C521EDB
:1081A000F9D27047D2B201E00270401C491EFBD2E6
:1081B00070470022F6E710B513460A4604461946F2
:1081C000FFF7F0FF204610BD30B5044600200346FF
:1081D00000E05B1C934203D2E05CCD5C401BF8D016
:1081E00030BDF0B51FB40646002082B005464024DD
:1081F000019100901BE0019922460F46304600F0A5
:1082000043F8049A059B801A994110D310461946E9
:10821000224600F029F8361A8F41019722460120A4
:108220000021009F00F020F838184D4100902046B2
:10823000641E0028DFDC019B00982946324607B007
:10824000F0BD0000064C0125064E05E0E36807CCB2
:108250002B430C3C98471034B442F7D3FFF734FF5C
:1082600090D30100B0D3010010B5202A04DB0146F1
:10827000203A9140002010BD914020239C1A0346D3
:10828000E3401943904010BD10B5202A04DB084696
:10829000203AD040002110BD0B46D340D0402024CE
:1082A000A21A91400843194610BD70B58C18057884
:1082B000401C6B075B0F01D10378401C2A1106D1CB
:1082C0000278401C03E006780E70401C491C5B1EBF
:1082D000F9D12B0705D40023521E0DD40B70491C75
:1082E000FAE70378401CCB1A921C03E01D780D704E
:1082F000491C5B1C521EF9D5A142D8D3002070BD89
:10830000F8B50024FF2501350126274600942846AC
:1083100003F046FF002808D034484068304204D0BB
:10832000334800212818344301602D1D76007F1C3E
:10833000ADB2042FEBD3FF207D3003F031FF0028D6
:1083400007D02C4800210160400704432A480069F7
:1083500000902A4F200712D00126002526420AD07D
:108360002748AA00111808690969C004C00E8903CA
:10837000BA58890F904776006D1C042DEED3002C5F
:1083800030DA00241D4E0821301940304156491C76
:1083900025D0077ABD06AD0E284601F097FE800075
:1083A0003658002E1BD0BF090121A940154AA8004C
:1083B00080180068009A8003800F114202D00228C2
:1083C00002D00CE003280AD1032F05D102280AD0DD
:1083D0000221284603F0D4FE39462846B047641CE3
:1083E000062CCFD3F8BD0321F3E700000063004063
:1083F000006000407C61004000050050942C00208B
:1084000000650040000700508307FF22DB0E9A4002
:108410008907090E994000280BDA0007000F083879
:10842000830808489B001818C36993430B43C36132
:108430007047830804489B001B1818689043084342
:108440001860704700ED00E000E400E010B5064958
:108450000020086048608860C860034940390860AF
:10846000486004F0B3FD10BD40110140FEB500208E
:10847000C043124D02906869019068462E6903F06E
:108480003FF8074603F0F8FA0446002F08D002AA86
:108490000199009803F054F8029803F037FB06E0C6
:1084A000029803F033FB002801D1002C02D03046A3
:1084B00001F034FF00206871FEBD0000442100205F
:1084C00010B507484068002807D08047002803D02F
:1084D0000022114600F0A8FB10BD03F005FA10BD04
:1084E0006C21002010B503F06FFA002805D00E496A
:1084F0000C484860C8130D4988610D48018CC9B209
:1085000001290ED1818C09070BD1018D0906090FB4
:10851000042906D1808D0006000F02D105490120F3
:10852000886010BDDFFF07C000050040006C004000
:10853000C00F00F0000600407CB51B4CA0681B4E2D
:108540000025002818D0A56019488069C1B21948D3
:1085500000F0A1FB002805D001216A4611700190AE
:10856000684607E013488168C068401A012803D1B3
:108570006846057071688847E069002803D0E561A6
:10858000032003F0BBFF606A00280BD06562084936
:1085900080390868086002216A461170019071688C
:1085A000684688477CBD000000210040F020002084
:1085B00000250040742C00200FB410B503A9044B13
:1085C000044A029800F024F810BC08BC04B0184714
:1085D0004DB601006821002030B47446641E257831
:1085E000641CAB4200D21D46635D5B00E31830BCE7
:1085F000184702E008C8121F08C1002AFAD17047C4
:108600007047002001E001C1121F002AFBD1704712
:10861000FFB58FB00F460446002606E025280AD095
:10862000129A11999047641C761C20780028F5D185
:10863000304613B0F0BD00250121A14A009500E0AD
:108640000543641C23780846203B98401042F7D12C
:1086500020782E2815D1042005436078641C2A2830
:108660000AD101CF641C00900BE000990A2251430B
:1086700030394018641C00902078014630390929AF
:10868000F3D920786C280ED004DC4C2813D06A284B
:1086900012D104E074280ED07A280DD10BE001200D
:1086A0004005054307E00121090562780D43824238
:1086B00001D16D18641C641C2078864669284AD054
:1086C00008DC0028B4D058286DD0632810D0642866
:1086D00008D140E070286BD0732812D0752860D084
:1086E000782860D0129A704611999047761CE5E080
:1086F0003878694608720020487202A8019001206B
:1087000003E0386801900020C0433F1D69070CD585
:10871000002500E06D1C00998D420FDA8542F9DBDF
:108720000199495D0029F5D108E0002500E06D1CA4
:108730008542FCDB0199495D0029F8D1761907E0F3
:10874000019801990078491C0191129A119990475A
:108750006D1EF5D2B2E00A20029000216802400F9F
:10876000039102280CD001CFC117844600290DDAED
:108770006246084652420021814194462D2008E07D
:10878000FF1DFF08FF0003CF8446EFE7280504D54F
:108790002B206A46107401203CE0E8073AD02020E4
:1087A000F7E70A2000E0102000210391029007E083
:1087B000102002900021042005430820039100901E
:1087C0006802400F022810D001CF0021844600200B
:1087D0000D9028071FD5704670280CD0029A1020E3
:1087E000039B42401A430CD015E0FF1DFF08FF0019
:1087F00003CF8446EBE740206A46107401200D90B9
:108800000CE06046084306D030206A46107470467B
:10881000507402200D907046582804D029A0019071
:108820000DA80E900DE02CA0F9E76046039B029A7C
:10883000FFF7D7FC019B84469B5C0E9A521E0E925A
:10884000137060460843F0D10E9805A9081A20302D
:108850000190680701D5009801E00120009001997E
:10886000884203DD01460198081A00E00020002537
:10887000009006E004A8129A405D119990476D1C83
:10888000761C0D988542F5DB04E0129A3020119990
:108890009047761C0099481E00900029F5DC08E0FE
:1088A0000E980E990078491C0E91129A11999047D2
:1088B000761C0199481E01900029F1DC641CB4E685
:1088C00009280100303132333435363738396162A6
:1088D000636465660000000030313233343536376A
:1088E00038394142434445460000000038B50D4C3C
:1088F0006078022802D00C490120886069460B4844
:1089000000F0A6F9002802D000F016F838BD08489B
:10891000802181606A46074B1278DA610222627018
:10892000416038BDF020002000200040842C002051
:1089300000230040002500401CB506490120C86006
:108940000549487003206A461070496868468847A0
:108950001CBD000000200040F02000200449002041
:10896000487004490122CA604A60034908607047A0
:10897000F02000200020004000250040F7B582B024
:1089800000260546167000781446002805D02846B3
:10899000039903F067FA060008D1A87800281ED0D2
:1089A0002078039F001D1F2802D90C2005B0F0BDC0
:1089B000684679DF0028F9D121780322481C20700D
:1089C0007A5421781922481C20707A542078C119D1
:1089D0006846008804F046FB217840182070E8784B
:1089E0000223002810D02078039A411C21701354D0
:1089F00020780399471C012227700A542078EA78CE
:108A0000471C039927700A546868002815D0002174
:108A1000415620788C460246C01C03991F28C4D8B2
:108A2000501C20708B5422780A23501C20708B54C9
:108A300020786246431C23700A542889002809D0F4
:108A400028460094062202210830039B04F088FB8C
:108A50000600ABD1288A002809D0284600940722B6
:108A600003211030039B04F07BFB06009ED1288B72
:108A7000002809D028460094152214211830039BA1
:108A800004F06EFB060091D1286A002805D022462A
:108A9000039901F095FC060088D1686A002805D08A
:108AA0002246039903F0ACF9060084D12C20405DE6
:108AB000002806D022462846039904F061F80600F3
:108AC000C7D1304672E710B501220221002001F023
:108AD00033F9002801D0072812D1072202210120F2
:108AE00001F02AF9002801D0072809D100210A2223
:108AF000084601F021F9002801D0072800D1002004
:108B000010BD000010B596B0302101A8FFF751FB51
:108B1000022168460171012484710521C171848399
:108B20001248089024210DA8FFF743FB08A80475FC
:108B300010A80470282011901E20129010A8047311
:108B40001920C0011490B420159000200146009017
:108B5000074B0DAA01A800F0ABFB002803D00022B0
:108B6000114600F061F816B010BD0000042000208E
:108B7000B5C101000448426808210B469343836055
:108B80000A40C260704700000005005070B5002424
:108B9000064D06E06968E000085C012103F0CEF9AB
:108BA000641C28788442F5D3002070BD1C2100206D
:108BB000F8B515460C460646052A01D20720F8BD31
:108BC00003F08AFA002803D103F05CFA0028F6D1FA
:108BD000114900204E600C7008618D6048610F4D96
:108BE0000DE0E00029688019009181786A46517093
:108BF00000780B4A694603F0F1F90028DFD12046DE
:108C0000641EE4B20028ECD10348064A00210C306F
:108C100000F040F9F8BD00001C210020D4D2010072
:108C20000DB801008DA90100BFF34F8F044903481F
:108C3000C860BFF34F8F00BFFDE700000400FA05D6
:108C400000ED00E0014B1B6818470000502C00208D
:108C50008268C36893420AD0826883881A40036896
:108C60009A5C0A708168491C816000207047052069
:108C70007047002906D0002A02D0531E134203D0A9
:108C8000092070470E2070470160838000218160B9
:108C9000C160084670478268C3689B1A8288934205
:108CA00008D8C36813400268D154C168491CC16028
:108CB000002070470420704738B50C46A2680C238A
:108CC0005A43064B09789D58054A126A009202469B
:108CD000204608302369A84738BD0000B02D002089
:108CE000F820002010B5064914230A785A43511879
:108CF000091DFFF7E1FF042003F09AFF10BD0000FB
:108D0000E42C002070B50F4B05241D785E78AE4230
:108D100015D01D781C789E88B44201DA641C00E0EE
:108D200000241C705C88DE686C43A41904609B6896
:108D3000E800C418A4880C8018580024106020464D
:108D400070BD000034210020F7B53B4C82B0608834
:108D50000F4681426ED80020694608703849374E68
:108D60004868C005C00D18D0103840B2002807DA96
:108D70000207120F083A920892005118C96904E0DC
:108D80008108304A8900891809688007C00EC140EF
:108D90000806850F012D01D10AE00425684636DF5B
:108DA00002280CD0002803D000221146FFF73CFF18
:108DB00022786078A188884203DA401C02E072B60B
:108DC000F6E70020C0B2904207D06678607888420B
:108DD00001DA401C00E000206070012D0BD062B66B
:108DE0006846007837DF022805D0002803D000222B
:108DF0001146FFF719FF1148864219D0A068F50007
:108E000004994151029900290CD0002F0AD06088A2
:108E10003A464643E0683018FFF7B2F9A0682818D0
:108E2000878002E0002128188180002005B0F0BD75
:108E30000420FBE70920F9E734210020FFFF0000B0
:108E400000ED00E000E400E00EB504E06846818833
:108E5000029A0098904702AA01A96846FFF752FFBC
:108E60000028F3D00EBD000030B5CB0008339DB212
:108E700093070024002B01D0072030BD044B9A60DB
:108E80005219DA605C701C7058809980002030BDE7
:108E90003421002070B5114CA568002D06D0002AA1
:108EA00006D0002804D00023247809E0082070BDF3
:108EB000072070BD24265E43AE5D002E04D05B1CEF
:108EC000A342F7DB042070BD242401265C432E5509
:108ED00064196170A2610360002070BD442100200C
:108EE00010B50446082904D0002211461046FFF7A9
:108EF0009BFE21686068884710BD00001CB5019189
:108F00000090034A08216846FFF71EFF1CBD0000C1
:108F1000E18E0100FFB59807002481B01E4615467A
:108F20000F4600280BD1002E09D003F0E3FD2249A3
:108F30000A9888610F70324600208E6008E0072092
:108F400005B0F0BD24234343D4549B181C75401C2A
:108F5000B842F7DB24204743BB19032048700F4673
:108F60001846CB6019461830002218232E465E435F
:108F7000D3005B181C705C709D7058603018521CD8
:108F8000032AF5DB0020C0433861BC70FC7001246B
:108F90000A482405046003211420FFF735FA084825
:108FA0000460084C0198A06003211120FFF72CFAFF
:108FB000606878610020C3E74421002080E200E07F
:108FC00000E100E000150140FEB504461D481746CB
:108FD00082680D46002A0CD001788C4201D2052D02
:108FE00001D20720FEBD214624235943535C012BA7
:108FF00001D00820FEBD8818407801281DD0002629
:1090000004F072F8C0000F490190C9684018694621
:1090100004F094F8002812D0012101700A4944603C
:1090200049680830E2C007490198C96841180098AA
:10903000487003F059FF0020FEBD2E46E0E70420F3
:10904000FEBD00004421002000150140F8B5144D7C
:109050000446A868002809D029788C4201D307204B
:10906000F8BD24216143405C012801D00820F8BDEF
:1090700004F03AF8C600E8686946301804F05EF873
:1090800000280AD0022101704460E8683118009875
:10909000487003F029FF0020F8BD0420F8BD00004F
:1090A00044210020FFB5584F83B000260D460446EA
:1090B0007E707A6000292AD0A888296882B2534835
:1090C000FFF7D7FD002823D1A889A96882B24F48AD
:1090D0001030FFF7CEFD00281AD160784C490322EA
:1090E00080004018026022783046920051180E60CD
:1090F000484D6178E96021786961A1686962454EEF
:1091000061794036002905D00E21F16203E0072085
:1091100007B0F0BDF0622379022B17D03E493F4AD9
:10912000012B45D004232B608860C861F06A400899
:109130004000F062581FA860286101209060106014
:1091400078700C98008800283FD043E002F0C4FFFC
:10915000002803D102F096FF0028D9D13048694693
:1091600000680090A07802F0BFFF0028D0D1401E18
:109170002861A078A860F06A01210843F0622848BD
:10918000284A40680190E07801A902F027FF0028F2
:10919000BED1E078012102F0D1FEE07802F068FF54
:1091A000002801D0002000E0012003F0A7F9C8E763
:1091B00004232B608860C861F16A01200143F162D9
:1091C000E1782961A178A960B8E70C99387808801E
:1091D000401C387000211448C9438160A1218900D6
:1091E0004160124904200860114B06991A68FF2457
:1091F00024048907090EA24309040A431A600D4991
:109200000860002084E70000F0200020742C00207B
:1092100000070050002500400021004000200040D1
:10922000A4D2010059B801000023004080E200E010
:1092300000E400E000E100E010B501460448FFF75B
:109240002AFD0446022003F059F9204610BD000013
:10925000842C002070B50C4692B000216A46117033
:1092600007251171002809D0C17849070CD502A93A
:10927000FFF784FB002808D102AE00E00026002C96
:109280000ED0E078002802D0284612B070BD01AAA6
:109290000AA92046FFF772FB0028F6D10AAA00E0CF
:1092A0000022684603790178304672DFEDE700005E
:1092B00070B50D4604991646040042D0002E40D0E9
:1092C000424800224271C360016124223146404875
:1092D000FEF756FF00F0D0F83D493431084610380B
:1092E00001602031816030215438FEF762FF384838
:1092F000217830380170A1788170E178C17061788F
:1093000041706269216942610161E268A168C260DD
:1093100081600146E369A269CB618A61616A0029C3
:1093200019D00146A4310246B03241628A60636AB4
:109330001B880B80616A436A898899800021436A8F
:1093400006E00E2070BD666AB668765C5654491C0D
:109350009E888E42F7D8A16A00291CD01C4AAC32E4
:1093600011460C398A608162A36A9B888B80A16A4E
:10937000836A098819800021836A04E0A66AB668B6
:10938000765C5654491C9E888E42F7D82C210A5D83
:109390000F4910390A73216A002909D00B49143189
:1093A0000162226A52884A80216A026A0988118011
:1093B0006168002904D00549891D416061684160E8
:1093C000034829463038FFF745FF70BD8C20002048
:1093D000E429002010B502881A4C102A17D0002169
:1093E000112A17D0192A11D1807900280ED160795D
:1093F00001281BD002281FD003281FD0042805D124
:109400002171E2680846002A00D0904710BD80888C
:10941000208110BD6170808821898842F9D10120A6
:1094200005E021690029F4D0884710BD022000F032
:109430004BF80028F5D110BD0320F8E70320207178
:109440000420F4E78C20002010B5022801D0032866
:109450000ED1084C207800280AD0002020706079B6
:1094600000F032F8002803D02169002900D0884795
:1094700010BD00008C20002010B507210148FEF728
:1094800098FE10BDA420002010B50D4800780128DA
:1094900014D10C4C6078002810D16079002802D0DB
:1094A00074DF00280BD101206070607900F00CF8A7
:1094B000002803D02169002900D08847002010BD72
:1094C000E42900208C200020F0B5754C87B0607135
:1094D000002606A8069603F0ABF80127082806D058
:1094E00000286FD10698002802D02770D4E0069695
:1094F000FFF7C2FF6B4D6878002802D06079012821
:1095000005D0A87800280AD06079022807D1E16840
:10951000002903D0E7700820884700E0E6706079F2
:10952000012808D16878002809D05D48193003F077
:1095300029F8002803D06079022802D00CE002202C
:109540006071A878002805D05548193003F01AF842
:10955000002801D103206071287B002804D16079A4
:10956000032801D104206071287E002804D160798D
:10957000042801D166712671E16800290AD060795A
:10958000032801D0042805D12878002802D060786B
:10959000002818D0A67018216846FEF70AFE684613
:1095A0000670019606720396607901280FD0022892
:1095B00016D03C4E24363746543F03281CD004288E
:1095C0005ED13BE069E0A77007208847E3E73448B5
:1095D000183001906846077046820682277152E073
:1095E0002F48183001906846077029894182A98860
:1095F00001820220207146E0A88A69464882288AB2
:1096000008822848243003F00FFE002805D028786F
:10961000002802D06078002801D003202FE002202B
:109620006946087204200396F8701E4800213038FD
:10963000FFF710FE002830D1052020E0A88B6946F6
:109640000882288C48821748243003F0EDFD00285A
:1096500005D02878002802D06078002801D00420A6
:109660000DE002206946087204200396F8700D4848
:1096700000213038FFF7EEFD00280ED106202071C2
:109680006079002803D0684673DF002805D1E168BF
:10969000002901D020798847002007B0F0BD0000E4
:1096A0008C200020E4290020F0B5124B9978002985
:1096B00008D0114905790D71047B0C730E4E002101
:1096C000303606E00820F0BD8A008768491CBF5884
:1096D000B7508C42F8D8084C0021103404E08A00BE
:1096E0000668491CB658A6508D42F8D800209870DC
:1096F000F0BD00008C200020082A002070B505462F
:1097000001461C220F48FEF73BFD0F4C0026267039
:109710002968002907D00822A018FEF731FD20464D
:1097200008307ADF02E0084808307BDF002808D1E3
:10973000401E608004486670044A0021001DFFF747
:10974000A9FB70BDB02A0020AC20002085D001000C
:10975000F8B5224C028800271F4DE689102A16D042
:1097600029464968112A21D0122A2DD0502A1CD10D
:10977000C288801DB24218D1028B022A15D1C27E46
:10978000837E10021843C007C00F0CD112E08188FD
:10979000698001461048082216311030FEF7F0FCAF
:1097A0006F70002E01D100F053FEF8BD0020C043C1
:1097B00068806F700846FFF749FC0028F5D0A16962
:1097C0000029F2D08847F8BD811D034808221030D7
:1097D000FEF7D6FCE7E70000AC200020B02A00200E
:1097E00010B5044600F032F8002804D02189A08981
:1097F000002295DF10BD052010BD000008B500292E
:109800001CD04A68002A19D00A68002A16D00028FD
:1098100014D00B4A012310606A469370094B1380E1
:109820000A680260496841600021C94381810021C2
:1098300001810549684600F02FF808BD0E2008BDDB
:10984000C420002005180000A1A8010000890028FC
:1098500000D0012070471FB50A88102A06D0112AAF
:1098600007D0352A01D100F09DFF1FBD8988818175
:109870001FBD04460020C043A0812046FFF7E6FF3D
:109880000028F5D0022069460870226820469047DB
:10989000002020811FBD000030B5002815D0002910
:1098A00013D00E4A1378002B11D09368022B10D0DE
:1098B00011D20B4CDD002C19058825804088608072
:1098C0005B1C61600020936030BD0E2030BD08201D
:1098D00030BD062030BD042030BD0000C82000206F
:1098E000CC2A002000210448012281600270C1605E
:1098F0004160084670470000C820002070B500286D
:1099000015D0002913D0244A1278002A0FD00A88D3
:10991000302A17D00CDC04464034102A10D0112A0B
:1099200005D16221FEF745FC0020C043A08370BD35
:10993000322A2DD0332AFAD1091D02F061FD70BD03
:109940008888F3E70546C888091D002807D000214C
:10995000284601F06FF9284602F0A2FD70BD2C46A2
:10996000603420782E22504340194A8902808A8927
:109970004280CA894285098A8185284600F0AEFB6B
:109980000100EBD000206070284601F089F970BD1D
:10999000091D02F051FC70BDC820002010B5002840
:1099A0000DD0144A1378002B0BD09368002B08D0ED
:1099B000044660346378002B05D0112010BD0E20C2
:1099C00010BD082010BD0023D360536023700346F0
:1099D00002464033084899830188118040885080AE
:1099E000988B012190DF0028ECD1012060700020CD
:1099F00010BD0000C8200020CC2A002070B504460D
:109A000001F076F921461348FFF778FF204600F071
:109A1000A7F82088104D102802D011280ED10AE096
:109A2000072000F0ADF9002803D000221146FFF70F
:109A3000FBF8A08801E00020C04368802046FFF7C3
:109A400087FE044821466430FFF705FF2046FFF7F4
:109A5000C1FC70BD34290020002000201CB500236B
:109A600048221549082003F017F9002803D00022E6
:109A70001146FFF7D9F80020009069460190087060
:109A8000684660DF002803D000221146FFF7CCF8BB
:109A90000A4803F0F7F8002803D000221146FFF728
:109AA000C3F8074803F010F9002803D0002211463C
:109AB000FFF7BAF81CBD00003C240020FD9901000E
:109AC000BDCE01001CB5044681786A460C4802F000
:109AD000C3FD002812D160781C21484309491C238A
:109AE00040181A46694602F07DFE06480649403095
:109AF000807A80000A582146684690471CBD0000C5
:109B0000E8200020102C002084D201007CB5134EE8
:109B100000250C463060002918D06946002000F06E
:109B2000B3F8002819D101A9012000F0ADF80028F0
:109B300013D1684601790020002901D0022004E0F9
:109B400069460978002900D00B2020707068002831
:109B500002D1FEF7B8FF054628467CBD84200020D0
:109B600010B51C4C0188606810290DD011290AD14C
:109B7000401E606007D1FEF7A6FF002803D02168D1
:109B8000002900D0884710BD00281ED100210122E5
:109B9000084600F0D1F8002801D0072811D107228B
:109BA0000221012000F0C8F8002801D0072808D1C0
:109BB00004220221002000F0BFF8002805D0072869
:109BC00003D02168002900D088476068401C60608D
:109BD00010BD00008420002010B5032000F020FA02
:109BE000002801D0062800D1002010BDF8B5074696
:109BF0000024224802E0641C042C19D2A2008258DE
:109C0000BA42F8D1042C13D21D4E1E4DF069002922
:109C100028D001290DD002290AD16000201840194E
:109C20004578002D04D0F168002901D028468847E6
:109C3000F8BD610062182946AD5C51180091497861
:109C4000002909D071680A2251430D4A521CFFF7BE
:109C5000BBF9002800D1777000988178084810304F
:109C60000155DEE7FFF7F2F9054861006118103091
:109C70004919005D8D78A842D3D0F8BD44D20100C7
:109C800064200020A829002004280CD2074A126969
:109C9000074B80001B5C01209840904300D00120BE
:109CA0000870002070470020FAE70000000500500F
:109CB00044D20100014610B511480429408814D04F
:109CC00007290ED00A290DD00D290AD10D49884245
:109CD00007D00D48FFF784FD052802D10BA0FEF741
:109CE0006BFC10BD02F08AFF10BD132176DF08283F
:109CF000FAD00028F8D000221146FEF795FF10BDDB
:109D000000200020FFFF0000982900204375727298
:109D1000656E742054696D6520536572766963655C
:109D2000206973206E6F7420646973636F76657247
:109D300065642E0D0A00000070B50023042811D2BE
:109D4000440004190D4D012A02D101290DD0002231
:109D500046008019094E801900290CD0012906D02F
:109D6000022906D00723184670BD0D30C2B22A550D
:109D7000F9E74270F7E78270F5E70000A8290020B4
:109D800010B5054A0146127A0020D20702D00846D3
:109D900000F054F810BD00006420002070B50E469D
:109DA0001F4905464E608D600020CA60A9071ED578
:109DB0000024012211462046FFF7BEFF641C042C3C
:109DC00002D20028F5D012E0002810D17208042138
:109DD0001448FEF7EDFE002809D1FEF7D7FE002853
:109DE00005D10F48104A00211C30FFF753F8E9074E
:109DF00005D00F490D4A8A600023CB608A61002894
:109E00000DD107480B4A00211430FFF743F8002812
:109E100005D10348084A01211830FFF73BF870BD0F
:109E20006420002054D201005DA00100080020033E
:109E30000005005061BA0100758B0100FEB5724942
:109E400006464F684B690093BB00FB1800200122B7
:109E50000193520505466D4C3300FEF7BDFB180D0E
:109E60001313364655677C887F88919B9E9E9E9EE5
:109E70009EBDC1C5CAD0D01219225205A260E560AC
:109E80000D70FEBD03200006A060E5606068604BB9
:109E90005840800209D5A260E560022E02D1E1207F
:109EA000C0000AE07D20400107E0E260A560022ECC
:109EB00001D1C82001E0FF2091300E706421FEF72F
:109EC00035F978430022014641E003200006A060F6
:109ED000E56060684E4B5840800203D5A260E560A3
:109EE0001814EAE7E260A560E3E703200006A0603B
:109EF000E5606068464B5840800202D5A260E5608C
:109F0000D0E7E260A560D6E703200006A060E56028
:109F100060683F4B5840800202D5A260E56001E0D6
:109F2000E260A5600E707900002210E003200006B8
:109F3000A060E5606068364B5840800202D5A260A0
:109F4000E56001E0E260A5600E70002239460098ED
:109F5000FFF73AF8FEBD03231B0642E060680121CB
:109F600009060A468243A2600840E06010E061688A
:109F70000120000602468A43A2600140E160E4E756
:109F800061680120000602468A43A2600140E16048
:109F90000199C9E71E49E1601CE00F468869FFF797
:109FA00055F811218A1B0826002A01D0002802D06A
:109FB000A660E560FEBD012A0BD91046C8214843C2
:109FC0006421FEF7B3F8796800224143B869FEF7CF
:109FD000FBFFE660A560FEBD0D4AA260E56011E0F2
:109FE0000C4BA360E5600BE00B4AA260E5605205F4
:109FF00006E00A4AA260E5600922520500E0044A30
:10A00000E260A5600E70FEBD6420002000050050D7
:10A0100008002003080000030800200208000002D6
:10A02000F0B500210B4C0C4D03273F048A00A258C9
:10A0300092005619326801238B40034000D003235D
:10A04000BA431B0413433360491C0429EED3002098
:10A05000F0BD000044D201000007005010B50078A8
:10A060000221FFF7C3FD10BD0022D2438300044943
:10A070000428CA5002D3081840300271704700000B
:10A08000942C0020F0B50025ED43002A02D00023D7
:10A09000042601E004230A260B4C04E09F00E75944
:10A0A0007F1C04D05B1CB342F8D32846F0BD2618B1
:10A0B0005DB2203635729E00A151002AF5D1E1181B
:10A0C00040310871F1E70000942C00200249091882
:10A0D0002820085670470000942C002008B5602105
:10A0E000095C2E22514309184030C27F002A08D053
:10A0F000521ED2B20C235A435218D2896B46521CBC
:10A1000001E04A8D6B461A80898D5980808B1946F3
:10A1100092DF08BDF8B53E481422017851430C186F
:10A12000E0680C2148433A492769CC314018058939
:10A1300041890091241D466802F020FB0146384603
:10A14000FDF7F4FF002932D000200099A2884D438A
:10A150006188AE198918CD1900222E4900280A619C
:10A1600009D002F00BFB6188884222D0B54202D1AF
:10A17000A08800281DD0A06803281AD002F0FEFA9B
:10A18000A188CA1901461046FDF7D0FF214C880866
:10A19000E06002F0F3FA01462846FDF7C7FF002908
:10A1A00011D00020B5422FD000280ED02CE0012085
:10A1B000CBE702F0E3FA01463846FDF7B7FF154951
:10A1C0004861032021E00120ECE7ADB2B7B202F014
:10A1D000D5FA01463846FDF7A9FF064602F0CEFA49
:10A1E00001462846FDF7A2FF864201D1781B09E00F
:10A1F00002F0C4FA064602F0C1FA01462846FDF70D
:10A2000095FF701A80082061022002F011FDF8BD50
:10A21000E42C0020F820002010B507481422017813
:10A22000514308180079042802D000F059F810BDF5
:10A23000012002F0FDFC10BDE42C002010B50B48FD
:10A240001422017851430818094AC1881162007923
:10A25000012806D0032801D0042801D1FFF75AFFB6
:10A2600010BD012002F0E4FC10BD0000E42C002031
:10A27000F820002014225043054A00218018017163
:10A28000C18002220161C26041610181704700000A
:10A29000E42C0020F8B5104C069E65780A2D19D0E4
:10A2A00027787D190A2D00D30A3D14277D432D19E7
:10A2B00028716A6103C92961E860EB802E816078AA
:10A2C000401C607005480078002801D1FFF7B6FFF8
:10A2D0000020F8BD0420F8BDE42C0020F820002068
:10A2E00010B50D4C14212078484301190020091D98
:10A2F000FEF7E2FC2078FFF7BDFF6078401E60703B
:10A300002078401CC0B220700A2801D100202070A3
:10A31000002002F08DFC10BDE42C0020F8B522488E
:10A3200001694A1C3DD024225143826889184E6835
:10A330001E494C6847690079E11B0D022D0AED1C8E
:10A34000002814D101201A4A00045060184A403AEB
:10A3500050601849400008601749086017490120FB
:10A3600008602F20FDF7B6FE0F4901200871B542A5
:10A3700000D23546E81900020C49000A4031086055
:10A380000A494968001B091B0902090A0002000A60
:10A39000C91C814204D90120064940048039086063
:10A3A000F8BD02F0A7FBF8BD4421002000150140D4
:10A3B0004013014080E200E000E100E000100140B5
:10A3C000F8B50D4611780646881D14461F2801D998
:10A3D0000C20F8BD33880720062BFAD31927FF017C
:10A3E000BB4202D9164A9342F3D17288062AF0D3AF
:10A3F000BA4202D9124FBA42EBD1114FBB4203D03D
:10A40000BA4201D09342E4D8481C052220706A5415
:10A4100020781222411C21702A542078411930885A
:10A4200002F020FE21784018C0B2207041197088D7
:10A4300002F018FE2178401820700020F8BD0000BE
:10A44000FFFF000010B500221146FEF7EDFB10BD26
:10A45000F8B5164801F088FA144D0026103D144C4A
:10A46000002807D0616900291BD001206A461070BE
:10A47000684615E02878002805D06169002910D0C9
:10A48000684606700CE0687800280CD0A1680022AD
:10A490006868FEF799FD002803D0A169002900D063
:10A4A00088472E70F8BD6168F1E70000BC200020ED
:10A4B000B02A002070B5094B04469E7A082000257A
:10A4C0000E4207D00648844202D01889A04202D129
:10A4D0000020156070BD052070BD0000442C0020D8
:10A4E000FFFF00000C214843064910B50122401827
:10A4F0008272911E0181FF21C1720721FDF759FE71
:10A5000010BD0000442C00200A2A01D00C20704706
:10A510004A780B7812021A4302808A788270CA78CD
:10A52000C2700A7902714A7942718A798271CA7954
:10A5300002720A7A8272027B4B7A5208DB0752005F
:10A54000DB0F1A430273FD231A404B7A9B07DB0F84
:10A550005B001A430273FB231A404B7A5B07DB0F45
:10A560009B001A430273497AF7230907C90F1A405F
:10A57000C9000A4302730020704710B5002211463B
:10A58000FEF752FB10BD000010B504462BA0FEF7ED
:10A5900013F82EA0FEF710F8A07A2E498000095873
:10A5A0002DA0FEF709F8617900293FD02FA0FEF712
:10A5B00003F82079274980002031095830A0FDF7A1
:10A5C000FBFF6188002935D032A0FDF7F5FF36A0EA
:10A5D000FDF7F2FFA17936A0FDF7EEFFE17938A093
:10A5E000FDF7EAFF217A3AA0FDF7E6FF217B3CA0C8
:10A5F000FDF7E2FF42A0FDF7DFFFA07B0007C10FE0
:10A6000044A0FDF7D9FFA07B4007C10F47A0FDF78D
:10A61000D3FFA07B8007C10F4AA0FDF7CDFFA07B31
:10A62000C107C90F4DA0FDF7C7FF10BD51A0FDF731
:10A63000C3FFBEE755A0FDF7BFFFC8E70A43757229
:10A6400072656E742054696D653A0A000A4461743B
:10A65000653A0A001020002009446179206F6620C5
:10A660007765656B20202025730A00000944617915
:10A67000206F66206D6F6E7468202025690A0000C7
:10A68000094D6F6E7468206F6620796561722025B0
:10A69000730A0000095965617220202020202020C3
:10A6A00020202025690A00000A54696D653A0A00D5
:10A6B00009486F757273202020202025690A000048
:10A6C000094D696E7574657320202025690A0000A4
:10A6D000095365636F6E647320202025690A0000AA
:10A6E000094672616374696F6E732025692F323574
:10A6F00036206F662061207365636F6E640A000008
:10A700000A41646A75737420726561736F6E3A0AE8
:10A7100000000000094461796C6967687420736106
:10A7200076696E67732025780A0000000954696D08
:10A7300065207A6F6E65202020202020202025783B
:10A740000A0000000945787465726E616C207570AE
:10A7500064617465202025780A000000094D616E4F
:10A7600075616C20757064617465202020202578E7
:10A770000A00000009446179206F66206D6F6E74D5
:10A78000682020556E6B6E6F776E0A0009596561FF
:10A790007220202020202020202020556E6B6E6FFC
:10A7A000776E0A001FB50446C888002835D10A8A8A
:10A7B00000A802301231FFF7A7FE0421002804D0C0
:10A7C000684601706946226825E068464088134A59
:10A7D0009042F5D8124A904201D20028F0D1684642
:10A7E00000790C28ECD8684640791F28E8D86846DC
:10A7F00080791728E4D86846C0793B28E0D86846B5
:10A80000007A3B28DCD86846807A0728D8D803200D
:10A81000694608702268204690471FBD0F27000038
:10A820002E06000010B5134C207900071FD4606974
:10A83000401C6061E068002801D0042004E001F0C1
:10A84000E7F8002803D0022002F02EFB10BD20699B
:10A85000002809D06068C10701D00320F4E7012176
:10A86000084360600020EFE7FFF7D6FC10BD02F060
:10A870000FFB10BDF820002010B5084841680A07FA
:10A8800008D48A0702D5012211434160022002F058
:10A890000BFB10BD02F0FCFA10BD0000F8200020F8
:10A8A0007FB5164903780A68002B06D18188144BBE
:10A8B000994202D18179012901D0002017E0418815
:10A8C000918100210F4C037A0EE00C254D432D1889
:10A8D0006D89A54207D10C2359430818838A5381F7
:10A8E000418A118102E0491C8B42EED80120694661
:10A8F00008701368104698477FBD0000C4200020F0
:10A90000051800002B2A0000F3B5054660300078DA
:10A910002E2148432E4647194036F47F0C206043D1
:10A92000C1193A79601C891D83B0904226D101ABD0
:10A930000022284601F026F8002822D010E0401E10
:10A94000A04201D1002003E00C206043C019123066
:10A950000246009001AB284601F014F8002807D009
:10A96000049800210170B08B01A993DF05B0F0BD00
:10A97000F07F0099401C641CF077E4B23879A04263
:10A98000DDD80498012101700020EFE7F8B500261A
:10A990000124154D23E06968F000471838782146F6
:10A9A0006A698140114218D08A436A6101F060FBF4
:10A9B0003A7821462B6991401940034693409942C9
:10A9C0000BD17978012901D0012100E000217B68B9
:10A9D0004140002B01D010469847761CF6B22878EB
:10A9E0008642D8D3F8BD00001C210020FEB50E46DB
:10A9F000044681786A46234801F02EFE002827D1BC
:10AA000060780C21204F4843C019807A400620D43A
:10AA1000022E1ED0012E1ED01C4DA0781C214843B2
:10AA200019490023F83941181C226846A847002814
:10AA300013D0022E0CD020780C21484312490C313F
:10AA40004018807A124980000A582146684690478B
:10AA5000FEBD104DE1E7104DDFE7022EF8D0607823
:10AA60000C214843C019817ABF221140817260785D
:10AA70001C2148430449343941181C231A466846AE
:10AA8000A847D8E7E8200020442C002015CE01007C
:10AA900074D2010025CA010045C9010070B5054600
:10AAA000114A124800241C2363431B189B7EFF2B72
:10AAB00004D0641C072CF6D3104670BD0A78022A15
:10AAC00009D01C2262431018FD2282760722103022
:10AAD000FDF756FB04E01C2161430818FE21817636
:10AAE0002C700022E8E70000438000004C2B00207F
:10AAF000F7B505250F4F06460024002E0AD01C206E
:10AB00006043C019072231461030FDF75DFB002875
:10AB100007D00AE01C206043C019018B02988142D3
:10AB200003D101980025046002E0641C072CE4D3E3
:10AB30002846FEBD4C2B00207CB5054681B26A46F6
:10AB4000074801F089FD040008D15421684601F04E
:10AB5000AFFD040002D1284601F020FD20467CBD57
:10AB6000E820002070B505460C46100003D00022F6
:10AB70001146FEF759F82078112802D0152819D16E
:10AB80000DE0042229460C48FDF7FAFA0A48012193
:10AB9000083800224904C068FEF716FA04E060682D
:10ABA00001880648FEF7FAFE002803D0002211466D
:10ABB000FEF73AF8002070BD08200020342900205C
:10ABC0001FB56946087301F0DFFD002803D000229D
:10ABD0001146FEF729F803A800F084FA002803D0F4
:10ABE00000221146FEF720F801A805210130FDF7EB
:10ABF000E0FA6946487901210843E1210840DF2154
:10AC00000C30084069464871072088711020C871CF
:10AC10000648009002200871054800F077FB0028E4
:10AC200003D000221146FDF7FFFF1FBD65AB0100F9
:10AC300001200020F3B50446603000782E214843FF
:10AC4000071981B0384601F037FF060023D0124DB6
:10AC5000686802281FD24034A18B38220F4C504321
:10AC6000031959800299002907D0002121542E226E
:10AC70003946181DFDF784FA01E002212154686865
:10AC8000382141430919401C4E636860A968884215
:10AC900001D101F09FFCFEBDC8200020DC2A00206D
:10ACA000F8B5044660300D4600782E21484300195F
:10ACB00001F002FF010016D00B484268022A12D2AE
:10ACC00040343823A68B5343084C1F461B195E8023
:10ACD0000126E6555D60521C5963426080688242DD
:10ACE00001D101F077FCF8BDC8200020DC2A00204B
:10ACF000F0B5054693B000200290FF24ED480E9475
:10AD0000007800284BD0EC4F3868002847D001A8C5
:10AD100000F0DAF9002803D000221146FDF784FF85
:10AD2000281D05902A2069460883FF200026887187
:10AD30000E710396E04C28880C3C10280ED0A88891
:10AD400003AA0221FFF7B6FB002807D103980C21C4
:10AD500041430919CA7A69468A71487128881322C1
:10AD600017287CD00FDC10281BD0112853D01328B3
:10AD700076D0142813D103980C2148430019C07AC7
:10AD8000FF2871D08DE0CD4918286BD01C286AD0DF
:10AD9000522804D1B87A8000095801A8884713B016
:10ADA000F0BDC74F03AA01213846FFF783FB0028F7
:10ADB000F5D103990C204843022200198272112315
:10ADC0006A4613745171A98801810722A91DFDF7F4
:10ADD000D7F9287DC10707D04108B6480830405C44
:10ADE000FF2808D00E9006E03A460EA9A81DFFF7EE
:10ADF0007FFE00280ED103990C22514309190E98A9
:10AE0000C8728A7A08231A438A726946887101A82F
:10AE1000FEF758FE39E103980C2148430119887A5E
:10AE2000FD2210408872010706D5C0090DD000210F
:10AE300001A8FFF7DBFD08E068468079FF2804D011
:10AE400001F0ACFBFF206946887103980C22504347
:10AE500010210019817212206946087415E17FE003
:10AE600030E001E0D5E00EE1EA890EA90020FFF70D
:10AE70003FFE00280ED103980C22504300190E9972
:10AE8000C172837A0822134383726846817101A8D4
:10AE9000FEF718FE03980C2148430019C07AFF28DA
:10AEA00006D003981C21484383494039401802903A
:10AEB00003981C21484383494218A888002302991B
:10AEC00082DF6CE768460274039B0C20584301192B
:10AED000887A042210438872C87AFF2830D016205E
:10AEE000694608741820434373480E212438181803
:10AEF0000830FDF75EF903980C2148430019817A68
:10AF000040221143817203990C2200204A430A9087
:10AF10001219D27A1C235A436A4B0C90D2180B9206
:10AF20001C2251431A46C43289180791089009908F
:10AF30003A1DA88807AB00217FDF0028C1D1A4E01B
:10AF40000EA8FFF7ABFD002801D00646DBE76946F7
:10AF50000E98887103990C2251430919C872D2E7DF
:10AF6000787A400840007872039A0C209446424355
:10AF700011198B7AFB2003408B7214206F463874B2
:10AF8000A879002804D0C87AFFF7D6FDAE797CE016
:10AF9000E879400779D5B879FF2876D008273B4370
:10AFA0008B72EB7A9B0708D51C2503466B43454DF6
:10AFB0005B199D7E6D086D009D76CB7AFF2B64D06A
:10AFC000A25C022A10D01C2250433E4D0722401999
:10AFD0001030FDF7D5F8684680791C2148434019A8
:10AFE000817EFD2211400EE061461C225143324A0F
:10AFF000403A89184A8A1C21484332494018028342
:10B00000817E490849008176012101A8FFF7EEFC05
:10B010003BE0A8790209012A23D10007000F01288B
:10B020001FD103980C2242431219927A120718D5A5
:10B03000182148432049243940180E210830FDF7D3
:10B04000B8F816206946087403980C214843011982
:10B05000887A602210438872787A022108437872D5
:10B060000FE003980C2250430019827A80231A4380
:10B07000827215206A461074B87A8000095801A8B7
:10B080008847002601E068460274324604A901A8F8
:10B09000FDF7D8FD6846007C122800D07FE60398B3
:10B0A0000C2141430919897A0129F7D0FFF71AFACF
:10B0B00075E60000D8200020502C002094D201001A
:10B0C000FFFF00004C2B0020002806D0FF2101705C
:10B0D00041708170C17000207047014870470000C6
:10B0E0000E800000F0B585B0040036D02948002558
:10B0F0000560457285722846FFF7F4F92548182146
:10B100002438FDF756F80026FF27304601F046FAAE
:10B1100021488755761C072EF7D354216846818035
:10B120000721C1801D481C4900900831684601F084
:10B13000AFFB00280FD1184E0120083E3070207858
:10B1400000280CD069468888C988484381B23046B7
:10B15000103001F0ADFA05B0F0BD1148FBE7114F1A
:10B1600000240D48A1B202AA083001F075FA0028A7
:10B1700009D11C206043C01900231C2202A901F040
:10B1800031FB002801D03570E5E7641C072CE8D3BB
:10B19000E1E70000502C0020E0200020A9B10100D0
:10B1A0000E8000004C2B0020FFB555488FB0006882
:10B1B000189F1E46002851D0542F4FD86846FFF7DD
:10B1C00083FF002803D000221146FDF72DFD002447
:10B1D000684604700471254605970696A9B20DAA23
:10B1E000484801F039FA002806D108220DA90F9825
:10B1F000FCF7EAFF002819D06D1C072DEED3684636
:10B2000080780790FF2829D010982025032810D097
:10B210003D481C21301AFCF789FF012707282DD251
:10B2200004A80290119800281AD021E06846857081
:10B23000E5E7542F03D040206946087101E06846D5
:10B24000057169460879032108436946087104A815
:10B25000029001A96846119AFDF7F4FC13B0F0BD05
:10B260000799384688402749103949680842F5D07F
:10B27000079801F0FDFE6846057138E020481C2162
:10B280004038301AFCF752FF00280BD01C4D182113
:10B29000243D701BFCF74AFF00281AD04020694665
:10B2A0000871DBE704A802906846057144701448F1
:10B2B0000A940C300B904C380790684680781C211B
:10B2C000484311494018089007A806901820059097
:10B2D0000DE03021684601714470C77008480C3891
:10B2E000807A800703D428461821FCF762FF109863
:10B2F00069460228087901D00221A5E73843A5E76D
:10B30000502C0020E82000204C2B002070B5064671
:10B3100018480D46007800280ED01749002E0ED090
:10B32000002D0CD02868002809D0144C2168002971
:10B3300007D011480A3870BD0F48801F70BD0846FD
:10B3400070BD20600522691D201DFCF719FF2879BA
:10B35000A072207A0221400840000843FB221040DE
:10B360002072E0790123184308431040E071002067
:10B37000307070BDD82000200E800000502C0020BE
:10B3800010B51349134B0978002910D0002803D0B9
:10B39000017800290BD102E00E48801D10BD0E4936
:10B3A0000A68002A03D0407800280ED101E0184630
:10B3B00010BD094A0C3A947A012C06D01846A3070E
:10B3C000F6D51089091D7EDF10BD0248083010BD7A
:10B3D000D820002008800000502C002010B5184A0A
:10B3E000184B1278002A13D09A1D002805D0002986
:10B3F00003D00278002A0BD101E0104610BD124C98
:10B4000000222468002C03D0407800280CD101E0F1
:10B41000184610BD0C480C38807A012804D024232B
:10B42000184204D0012005E00648083010BD00068F
:10B4300002D50220087000E00A70002010BD000054
:10B44000D820002008800000502C0020F0B5284AA9
:10B45000284B1278002A2BD09A1D00280BD00029E7
:10B4600009D00C68002C06D08C68002C03D0007822
:10B4700000281DD101E01046F0BD1F4800680028DB
:10B4800016D000231C4C1A4618460C3CE57A85421F
:10B4900002D1A57AAD0724D40D7B954211D91C2584
:10B4A00006466E43154D7519AE7EF60702D008E0CC
:10B4B0001846F0BD8E689700F5510D4D0835A8541B
:10B4C000521C0D799D420CD91C2506466E430B4D2E
:10B4D0007519AE7EB60704D49F0010350E685B1C4C
:10B4E000F551401C0728D1D30B710A730020F0BD21
:10B4F000D820002008800000502C00204C2B002079
:10B5000010B50E4900238A78CC78A24212D0521C82
:10B51000D2B28A70022A00D18B708A78074B9200CF
:10B520001C339A580260486910180002000A4861EA
:10B53000012010BD0360002010BD00004421002048
:10B54000F7B5144C0025A76823691EE02421594350
:10B55000C9194E68864202D9301A486017E0801B2C
:10B56000751900264E600E750E699C460B6AB6462C
:10B57000002E0AD0019E76193602360A8E60764673
:10B58000CE6016680E6261461160591CDED12361DF
:10B59000FEBD00004421002010B5002803D0112872
:10B5A00002D0FDF79FFB10BD0248082241681143FD
:10B5B000416010BDF820002010B51C4C21782046B9
:10B5C0004068012906D0022929D0032912D1000799
:10B5D00017D513E0000711D4154814220178514300
:10B5E0000818C188A28B891A0904090CC18002D0ED
:10B5F00001F012FC10BDFEF773FE10BD00F0F4FB6D
:10B6000010BD6069401C606100F002FA002803D0A0
:10B61000207801F00DFB10BDFEF7FEFD10BD607837
:10B62000044980000858804710BD0000F820002021
:10B63000E42C0020C0D2010010B528DFFFF7ACFFDA
:10B6400010BD10B529DFFFF7A7FF10BD10B50446E8
:10B65000C0B2FDF7F1FD204610BD0020704700206C
:10B660007047002070470000F8B506464078182162
:10B6700004464C4324490C2250436118224A0025B9
:10B680004B6818328018AE462F469C46002B0CD0D3
:10B69000827A1346D20908D05A0606D40D461A4AB1
:10B6A000614689B2175908358E46174C00891834FF
:10B6B0003B4672462946A9DF0B2819D0002800D046
:10B6C0001248012F13D170780C21484300190089CA
:10B6D0000F4AA7DF00280AD00E49884212D0082856
:10B6E00010D0891C88420DD011280BD00020F8BD45
:10B6F00070780C21484301230019008972462946BD
:10B70000A9DFE0E70148F8BD2C2C002041800000B3
:10B71000FFFF00000230000070B50C460146607863
:10B720001822084D50434019382301F05BF80028D7
:10B7300007D161781822514349194A68521C00D137
:10B740004A6070BD2C2C0020F3B585B00D460E204C
:10B750006946088268780C2103274843224E3B46FD
:10B760008019008904AA6946AADF002838D16878C0
:10B7700018214843741A001969460A8A0830FCF7F0
:10B7800023FD0028687807D018214843011949682B
:10B7900000290DD0154E0CE00C2141438919897AFE
:10B7A00089071DD4182148430019FCF702FD17E052
:10B7B0000F4E27506846028A6878182148430019BE
:10B7C000426068784843001969460830FCF7D8FCA5
:10B7D0006878182148430119382318220598B04782
:10B7E000002007B0F0BD0000442C002025CA010055
:10B7F00045C9010010B5FFF737FF10BD10B5FFF7C1
:10B800008BFF10BD10B5FFF79FFF10BD70B506464A
:10B81000104C0125B540E068FDF718FC00280CD15C
:10B820006169294207D1304600F022FC00282069D6
:10B8300004D0284303E0A943616170BDA84320619F
:10B840006069002228436061A168E068FDF7BCFBE5
:10B8500070BD00001C21002010B500F009FC00287C
:10B8600001D0002000E0012000F048FE10BD0000E3
:10B8700070B51B4C207900072ED41A481422017889
:10B8800051430D182E6900F079FF0146E8882A8996
:10B89000761E80188019FCF749FC216900250029D3
:10B8A00009D06169814206D1E560606801210843E1
:10B8B000606000200AE000F0ABF8002802D002200F
:10B8C000E56003E02069002803D0032001F0ECFAD2
:10B8D00070BDFEF7A1FC70BD01F0DAFA70BD00008A
:10B8E000F8200020E42C0020F8B51E4C2078002819
:10B8F00037D02069002807D00026E068002805D04E
:10B900000025002E04D013E00126F6E70125F8E714
:10B91000684651DF052806D0002806D000221146CF
:10B92000FDF782F904E0012602E0216900988847CA
:10B93000002D12D1608869460880A06861DF052863
:10B9400006D0002806D000221146FDF76DF904E06C
:10B95000012502E0E168A0688847002ED8D0002DBC
:10B96000CFD0F8BD6C210020418805480288914263
:10B9700004D34088814201D80120704700207047DD
:10B98000B420002030B50989002A05D0D088491C90
:10B99000814212D1002030BD0246603214782E253B
:10B9A0006C432418A48DA142F4D0491C198011784D
:10B9B0002E2251430818808D02E01980D088401E45
:10B9C0005880012030BD00001048018CC9B2012907
:10B9D00017D1818C090714D1018D09060A0F03D1F3
:10B9E000828D1206120F0ED0090F012903D1828D0C
:10B9F0001206120F07D0032903D1808D0006000F15
:10BA000001D000207047012070470000C00F00F0F7
:10BA100070B50E481422017851430C18256900F0C6
:10BA2000ADFE0146E08822896D1E80184019FCF7A2
:10BA30007DFB07494A69824206D3824202D10869E6
:10BA4000002801D0002070BD012070BDE42C002032
:10BA5000F8200020800701D00020704701207047A7
:10BA600010B50448017AC90702D00078FEF7E6F95C
:10BA700010BD000064200020F8B523480169009142
:10BA8000457833E02048E900C0680E1834782AE091
:10BA9000182060437168641C0818B178E4B2A142B0
:10BAA00000D100240178022902D003291BD113E020
:10BAB000154A40682421926841438F18397D002936
:10BAC00011D001F04BFA002038750CE024277843A0
:10BAD000C0180275006A03E00B4900228B680869F0
:10BAE000471CF3D108617078A042D1D128466D1E61
:10BAF000EDB20028C6D1044801690098814201D006
:10BB00000120F8BD0020F8BD44210020F8B504460E
:10BB1000384800270169009146785CE03548F1001B
:10BB2000C2688D1851E0601C07D0324A2420926808
:10BB3000604321468018046A24E028781821414394
:10BB40006A68401CC0B252182870A978884200D197
:10BB50002F70284B516824209B684843C0181378E5
:10BB6000012B34D1037D002B31D193688360D368DE
:10BB7000C360136903615269C2611E4A5279002A87
:10BB800000D087601B4B82685B6996469C46D31A3F
:10BB90001A02194B120A9A4202D2C368D21808E05C
:10BBA000724663469A1A1202C368120A934202D975
:10BBB0009A1A426000E0476087600122C760027500
:10BBC000921E0262084601F097F9601CABD12878FA
:10BBD00069788842A7D13046761EF6B200289DD1FA
:10BBE000044801690098814201D00120F8BD00207D
:10BBF000F8BD000044210020FFFF7F008AB06648A6
:10BC00000090664B052206210020FDF783F90028ED
:10BC100003D000221146FDF707F8614A0021614870
:10BC2000FDF738F9002803D000221146FCF7FCFF8D
:10BC30005D4A05AB07CA07C3002468460484594817
:10BC400003230C38019001200290584803900120F2
:10BC50008002049008A80090554A01A905A8FDF7A4
:10BC600021FA002803D000221146FCF7DDFF51A085
:10BC7000FCF7A2FC524A53490320FEF78FF8002834
:10BC800003D000221146FCF7CFFF69460020FDF7E4
:10BC90003DFF002803D000221146FCF7C5FF68468F
:10BCA000007802286CD0002168460171FDF7D6FEAD
:10BCB00068460079FEF784FFFDF714FE002803D0E4
:10BCC00000221146FCF7B0FF384A0A21B03A08209A
:10BCD000FDF7CAF8002803D000221146FCF7A4FFA4
:10BCE0001120694608730A2237A103A87CDF0028C7
:10BCF00003D000221146FCF797FFFF2091300094FB
:10BD000069460194088042004A808C80C880684659
:10BD10007ADF002803D000221146FCF785FFFCF7EC
:10BD2000F1FE2C4800902C48019069462B48FDF705
:10BD300065FD002803D000221146FCF775FF1C2189
:10BD40006846FCF736FA0520C00301900F20000476
:10BD500002900094032168460173C4810474204852
:10BD60000590204806906846FDF7C8FC002803D0DF
:10BD700000221146FCF758FF0320FDF7A5FB04E065
:10BD8000012191E7FDF760F848DF0028FAD0002292
:10BD90001146FCF749FFF5E7FD8E010084210020E4
:10BDA00039CB01000C20002038D2010034250020BE
:10BDB0004DD00100435453205374617274210A0022
:10BDC000B59C0100CD0C00004E6F726469635F4347
:10BDD0005453000029C301007BA5010098290020CD
:10BDE00005C3010045A4010010B5044808224168BC
:10BDF00091434160007800F01BFF10BDF820002047
:10BE000070B5054600790E46801C1446C0B2117804
:10BE1000821C8A181F2A01D90C2070BD0A46491CB1
:10BE20002170401CB0542078FF22411C21703254F4
:10BE300020788119288801F015F921784018C0B2BE
:10BE40002070AA88002A09D0A968002908D0801982
:10BE5000FCF796F92078297940182070002070BDF1
:10BE6000072070BDF8B514780746A01C15460E468D
:10BE70001F2803D87878801C1F2801D90C20F8BD12
:10BE80001D20001B80B26946864608803019801C40
:10BE90007DDF0028F3D13878022805D16846008874
:10BEA000704501D8092107E078780821002801D0E1
:10BEB000704501D968460088421C3255641CE2B2C4
:10BEC000B1542978801C081828700020F8BD002083
:10BED0007047002070470020704700008207D30E93
:10BEE000FF229A408907090E10B5994000280BDA05
:10BEF00003071B0F083B9C080C4BA400E318DC69EC
:10BF000094430C43DC6107E08408094BA400E41867
:10BF1000236893430B432360C106C90E0120884068
:10BF2000044908600449086010BD000000ED00E00D
:10BF300000E400E080E200E000E100E0F3B581B061
:10BF40000F46019800F05CFB012400281E4E01986A
:10BF500017D0FEF7BBF8801940300079800903281C
:10BF600002D0012806D007E01848006901998C40EA
:10BF7000204201D1022100E00321019800F000F9E4
:10BF8000FEBD00F049FB0028FAD00198FEF79EF8AC
:10BF900005468100C81D0E4AF93089180A6980B229
:10BFA00022430A610B49401800210160002FE7D0AD
:10BFB0000198FEF78BF8800030580028E0D0064842
:10BFC000AC404460FEBD0000942C002000050050F1
:10BFD000006500400060004000630040F8B5204F5D
:10BFE0000D4604463819282141560026C817134625
:10BFF000401C01D0082630E0EA7819462046FEF7BA
:10C0000041F8411C28D0174BAA78A100C918002A72
:10C0100003D00A6802239A4301E06A7892000A601A
:10C02000E978002910D082000F4829781018026999
:10C030000E4B1A400261E206D20C8907890B0A43B3
:10C0400001690A43026108E0381840302A78017912
:10C0500092011143017100E004263046F8BD000052
:10C06000942C00200007005000650040FFE0FCFF1A
:10C0700003490969C140C807C00F00D001207047BB
:10C080000005005070B5124DA87B002801D0082093
:10C0900070BD0F4900204039421E0B182033401C50
:10C0A000C0B21A722028F8D300242046FDF7DCFF26
:10C0B000641CE4B20A2CF8D301210620FFF70EFF1E
:10C0C00001200449C00748600120A873002070BD0A
:10C0D000D42C0020006300400248807B002800D060
:10C0E00001207047D42C0020F8B504461F480D46A7
:10C0F00000192030082141560026491C01D008268D
:10C100002FE0A97800291DD0012200212046FDF74B
:10C11000B9FF411C14D0830015482A781818697893
:10C120000369144F3B4003610369E706FF0C920764
:10C13000920BC907C90A3B430A431343036104E056
:10C1400004260EE00121C94301720B4A0320A1001D
:10C15000891808606A780120A0400849012A02D0A5
:10C16000C8603046F8BD8860FBE70000942C0020D2
:10C1700000650040FFE0ECFF0007005000050050A4
:10C18000820006481018026803231B049A430260C9
:10C19000026809040A43026070470000000700506B
:10C1A000034940180068012800D0002070470000B3
:10C1B0000060004000B595B00300FCF70DFA0823BD
:10C1C000050B0D131517260B052006E0002211465E
:10C1D000FCF72AFD15B000BD0220FDF7D1FD0028B7
:10C1E000F4D1F7E70420F8E70320F6E70320FDF792
:10C1F000C7FD002803D000221146FCF715FDFDF70E
:10C2000043F9ECE700F0FAFCE4E70820694608711E
:10C21000087304A800900CA802900648FFF716F9CE
:10C22000002803D000221146FCF7FEFC6846FDF70B
:10C230003BFAD4E701200020F0B5074604466037FA
:10C2400038782E225043061920464A88403089B05B
:10C250000090002A3BD108310591357908782818DB
:10C26000032800D9032030710020079014E00798BC
:10C270000A21484305990A2241180C206843801975
:10C280000890801D891CFBF77BFF08980021018224
:10C290000798401C6D1C07903079A842E7D80C2005
:10C2A0004543A819418838782E2250430019808DC3
:10C2B00081420CD23079032809D00099C8772046F2
:10C2C000FDF70CFF01000FD00020787009E0009806
:10C2D0000025C57701A92046FEF716FB010005D011
:10C2E0007D702046FEF7DCFC09B0F0BD68460079A1
:10C2F0000028F9D001212046FEF79CFC204600F0E2
:10C30000CFF8F1E710B50078002809D105483B21A6
:10C31000408876DF002803D000221146FCF784FC19
:10C3200010BD00000020002010B508780C46030066
:10C33000FCF752F9050604080A11100008A00BE0EA
:10C3400012A009E01CA007E021A0FCF735F9204667
:10C35000FEF71AF910BD24A0FCF72EF910BD00005D
:10C3600043757272656E742054696D6520536572F1
:10C370007669636520646973636F766572656420AE
:10C380006F6E207365727665722E0A004375727245
:10C39000656E742054696D652053657276696365B6
:10C3A000206E6F7420666F756E64206F6E207365EB
:10C3B000727665722E0A0000446973636F6E6E6553
:10C3C000637420436F6D706C6574652E0A00000005
:10C3D00043757272656E742054696D652072656371
:10C3E00065697665642E0A00496E76616C69642021
:10C3F00054696D652072656365697665642E0A000F
:10C40000FEB50446603001900D4600782E21484369
:10C41000224603194032D07F0C267043C018801D7D
:10C420008446294668880831002812D11B4E0D88A1
:10C430000DE0062747437F18BF88B74206D106257F
:10C440006843401841886046418102E0401C8542B3
:10C45000EFD8002568460570D07F1979401C8842C6
:10C4600003D101206946087010E0D0776946204664
:10C47000FEF74AFA010005D0019845702046FEF704
:10C480000FFCFEBD684600780028FAD00121204646
:10C49000FEF7D0FB204600F003F8FEBD02290000A5
:10C4A00070B514490446C8682546401CC8608968B0
:10C4B0000026603588421BD220464030C677297856
:10C4C0002E22491CC9B24A4329700B4B1219C900CC
:10C4D000C9180B881380498851801671808B0121FF
:10C4E00090DF010003D06E702046FEF7D9FB70BDCF
:10C4F0006E7070BDC8200020CC2A002010B51D4AE7
:10C500001D490300FCF768F805040B3120271200D1
:10C51000487801281FD0022808D1032005E0487878
:10C52000002804D0032801D10220487010BD134B0D
:10C5300004201860124B012018609368D2689A4258
:10C54000F3D0FCF7D3F910BD4878012806D00228B3
:10C5500004D00328F7D1FCF701FA10BD9068D16828
:10C560008142EED1FCF7E8F910BD48780128E8D007
:10C5700010BD0000842C0020F02000200025004089
:10C58000002000400021425C002A01D001207047B9
:10C59000491C0629F7D300207047000070B50546F6
:10C5A0001C200B4968434418204611300621FBF734
:10C5B00000FE20461021FBF7FCFDFF212174002026
:10C5C000A176C0432083284600F052FD70BD0000D4
:10C5D0004C2B002070B50024074D084E05E0382094
:10C5E00060438019416B8847641CA8688442F6D375
:10C5F0000020686070BD0000C8200020DC2A0020F8
:10C600000449081828214156042901DB01207047FC
:10C6100000207047942C0020044908182821415616
:10C62000042901D20120704700207047942C00207B
:10C6300007490979490701D408207047002804D028
:10C64000044949780160002070470E2070470000BF
:10C65000F8200020E42C002070B5134B1B795B07F9
:10C6600001D4082070BD002817D0002A15D0036817
:10C67000022B10D20C240D4D5C432E59002E0AD0F3
:10C6800046686019048945894068614365437118AB
:10C690002818884203D8072070BD0E2070BD136093
:10C6A0000020516070BD0000F8200020B02D002057
:10C6B000FEB5044626480E460079400701D40820FE
:10C6C000FEBD002C25D02068022836D20C21214D39
:10C6D00048432958002930D04019418902894068CF
:10C6E000514309186068814227D9FFF7B3F9002840
:10C6F00011D06068019021680C2251434F1979686C
:10C700000091401A39890D46FBF710FD002914D11C
:10C7100003E00E20FEBD1020FEBD29463046FBF78B
:10C7200005FD002909D1002E07D0788900994543DD
:10C73000019849198019884201D90720FEBD0020BF
:10C7400002460090334621460320FDF7A3FDFEBDBF
:10C75000F8200020B02D002010B507484469601C67
:10C7600006D000F00BF801462046FBF7DFFC10BDB9
:10C7700001200007406910BD0010001001200007D3
:10C78000006980B27047000070B500241348254648
:10C79000047044702846FDF76DFD6D1C0A2DF9D319
:10C7A0000F4D6C80FFF7D8FFC61EFFF7E7FF46432B
:10C7B0000A4A0020AE60CC326C610C2141435450D7
:10C7C00089180C81401C4C810228F6D32C70AC6176
:10C7D0000420EC616860002070BD0000E42C0020A3
:10C7E000F8200020FFB5284881B000791F46164682
:10C7F0000C46400702D4082005B0F0BD002C1DD027
:10C80000019800281AD02068022815D20C211F4D4B
:10C810004843295800290FD041194A890889496895
:10C82000424351186268914206D9002E04D0B042AA
:10C8300002D3F119814203D90720DDE70E20DBE79F
:10C840000198FFF707F900281BD03846FFF702F9D7
:10C85000002816D06068FFF7FDF8002811D0606846
:10C860003246C1190198FBF78BFC009620680C2119
:10C8700048432D58002202212046019BA847002052
:10C88000BAE71020B8E70000F8200020B02D002003
:10C89000F8B52A4D044628790E46400701D40820F1
:10C8A000F8BD002C20D0002E1ED0206800281BD000
:10C8B000FFF764FF0146A088814213D3102811D3EB
:10C8C000E08800280ED0FFF747FF471EFFF756FF0E
:10C8D0004743E288A088A96842435218974201D38F
:10C8E000800703D00720F8BD0E20F8BD6888022815
:10C8F00021D003C60C22124B5043C218516021684C
:10C900001950A0881081E0885081FFF737FF014659
:10C91000A088E2885043401EFBF71EFC441CFFF732
:10C920002DFF0146A86861430818A8606888401C6C
:10C9300068800020F8BD0420F8BD0000F820002029
:10C94000B02D0020F8B5044621481E460079154652
:10C950000F46400701D40820F8BD002F1CD0002C42
:10C960001AD02168022915D20C2041431948425897
:10C97000002A0FD008184289018940684A431018DC
:10C980006268904206D9002D04D0A94202D3A819AA
:10C99000884203D90720F8BD0E20F8BD3846FFF7BE
:10C9A00059F8002811D03046FFF754F800280CD071
:10C9B0006068FFF74FF8002807D02B463A4621461B
:10C9C00001200096FDF766FCF8BD1020F8BD0000C0
:10C9D000F8200020B02D002010B51149024608783B
:10C9E000002811D004280FD0022A16D0032A0BD118
:10C9F0000A79120711D48A69521C8A61032A08D065
:10CA0000022802D000F014F910BD487800F04CFA6A
:10CA100010BD0D20FCF766F910BDFEF7CDFD10BD71
:10CA2000F8200020F8B5044621481E460079154636
:10CA30000F46400701D40820F8BD002F1CD0002C61
:10CA40001AD02168022915D20C20414319484258B6
:10CA5000002A0FD008184289018940684A431018FB
:10CA60006268904206D9002D04D0A94202D3A819C9
:10CA7000884203D90720F8BD0E20F8BD3846FEF7DE
:10CA8000E9FF002811D03046FEF7E4FF00280CD063
:10CA90006068FEF7DFFF002807D02B463A462146A4
:10CAA00004200096FDF7F6FBF8BD1020F8BD00004D
:10CAB000F8200020B02D002070B50D4B00210B4A4E
:10CAC0009B680EE0CC00A518AD788678B54207D1FA
:10CAD000145B0588AC4203D1C8008018406870BD63
:10CAE000491C9942EED3002070BD0000CC2A0020E2
:10CAF000C820002070B501240B49600408600B4970
:10CB000040108860094940398860094D6C602F20C9
:10CB1000FBF7E0FAAC60074D00242F206C61FBF7B7
:10CB2000D9FA2C7170BD000080E100E04013014093
:10CB3000001001404421002008B50F480F494088EB
:10CB4000884218D00C4869460830FEF747FC002898
:10CB500003D000221146FCF767F8684600780028E9
:10CB600009D105480830FEF70BFC002803D000224D
:10CB70001146FCF759F808BD00200020FFFF000017
:10CB8000F7B582B002981446806A0F46002833D069
:10CB9000029800252030009028E00298816A0C203D
:10CBA00068430E18217830794A1C2270C01C7854D2
:10CBB00020781622411C21703A542078C1193088FF
:10CBC00000F050FA21784018C0B22070B288002AD4
:10CBD00009D0B16800290FD0C019FBF7D1FA20782D
:10CBE0003179401820706D1C0098EDB2007BA8428E
:10CBF000D3D8002005B0F0BD0720FBE710B500201A
:10CC0000FDF7BEF8002803D000221146FCF70CF80F
:10CC1000FCF7E2FF002803D000221146FCF704F8DD
:10CC20003CDF002803D000221146FBF7FDFF10BDBA
:10CC300010B50F490028087009D0012811D002282A
:10CC400012D0032802D14869FEF7F6FC10BD00207F
:10CC50008861C861074840780028F7D0FDF7EEFAF0
:10CC600010BD00F0D9F810BD00F038F810BD00007C
:10CC7000F8200020E42C002010B508461146C046DC
:10CC8000C04610BD002803D00249C860002070478C
:10CC90000E2070476C21002070B5002901D08C0750
:10CCA00001D0072070BD064C0125A16062800549B6
:10CCB000636010DF0028F5D1257016202EDF70BDCF
:10CCC0006C21002079CC0100002803D002490861C2
:10CCD000002070470E2070476C210020F8B5164CDC
:10CCE0001422606840084000606014480178514395
:10CCF0000E183769FFF742FD01463846FBF716FA72
:10CD000005466061FFF73AFD0146F0887F1EC019B5
:10CD1000FBF70CFA02228542606801D1104300E063
:10CD200090436060E1681040084303D0002000F0A9
:10CD3000BBF8F8BD0220FAE7F8200020E42C002020
:10CD400010B502484069FEF777FC10BDF8200020BE
:10CD500010B5FFF701FD441EFFF710FD4443FFF738
:10CD60000DFD04494A69521E5043CA682146FEF728
:10CD700068FC10BDF8200020F8B510481422017896
:10CD800051430C182569FFF7F9FC0146E088228918
:10CD900080184019FBF7CAF90F46FFF7DDFC461E65
:10CDA000FFF7ECFC4643E0882289F1198018044A19
:10CDB00040191269FEF745FCF8BD0000E42C002084
:10CDC000F820002070B5FFF7D9FC0546FFF7C4FC3A
:10CDD000441EFFF7D3FC60432946FBF7A7F9FEF793
:10CDE0002BFC70BD70B5FFF7C9FC8608FFF7C6FCC9
:10CDF0000749496948430446FFF7AEFC451EFFF763
:10CE0000BDFC684332462146FEF71BFC70BD0000A6
:10CE1000F82000200020704770B5144814220178D3
:10CE200051430C18241DFFF7A9FC6188104E88425D
:10CE300011D2FFF7A3FC61880D1AFFF79FFC82084F
:10CE4000A188E0684018216940194919FEF7F9FBEB
:10CE5000FFF794FC07E0A288E06880188A0821693F
:10CE6000FEF7EFFB6088F06170BD0000E42C00204D
:10CE7000F820002010B505480079000703D40120F0
:10CE800000F012F810BD00F003F810BDF8200020EB
:10CE900010B504480822416891434160407800F091
:10CEA00003F810BDF82000200249487002498000B4
:10CEB00008580047F8200020ACD2010010B5044605
:10CEC000FFF78AFD2046FCF7BFFA10BD10B50548F4
:10CED0000079000702D4FDF79FF910BDFFF7D8FFD6
:10CEE00010BD0000F8200020012002490005086064
:10CEF0007047000000E200E0F0B5174F2421BC6845
:10CF000041430D1939694A1C09D024224A43161994
:10CF10006B687268934204D8D21A726029623861D1
:10CF2000F0BD0A4602E00A46396A9B1B4E1C0BD034
:10CF300024264E4337197E689E42F4D324264E435E
:10CF400036197768FF1A77606B60296224214A439B
:10CF500011190862F0BD00004421002070B5194C81
:10CF60002269A5681346114606E0814207D00A46A9
:10CF7000242671434919096A4E1CF6D170BD002E52
:10CF8000FCD08A420CD1242043435819006A206106
:10CF9000401C05D10C4B0120986000236361607137
:10CFA000242041434819242341685A43006A5219F6
:10CFB0001062421CE2D024225043401942685118AA
:10CFC000416070BD4421002000100140F8B51D4CA7
:10CFD0002569681C35D01C48002640686169401AE4
:10CFE00007023F0A19E024204543A0682A18506828
:10CFF000B84214D8A3693F1A8619156A002B09D0C4
:10D00000D16990699847002807D000221146FBF7A4
:10D010000BFE02E09169D0698847681CE3D1A178D2
:10D02000E078814206D1401CC0B2E070022801D1F4
:10D030000020E07003490006800D1C310E50FFF700
:10D0400053FFF8BD442100200015014010B50178C0
:10D05000022901D0012904D1002240681146FBF7C2
:10D06000E3FD10BD0870000A487002207047000000
:10D0700001218140024842688A43426070470000B3
:10D08000D820002038B51549154A488890420FD05D
:10D090004A78144C521CD2B24A70237B934208D374
:10D0A000083175DF002803D0A169002900D0884726
:10D0B00038BD00254D70217C002907D03B2176DF4B
:10D0C000002803D0A169002900D0884761690029A0
:10D0D000EED068460570884738BD0000AC200020BF
:10D0E000FFFF0000B02A002012494868C005C00DAB
:10D0F00019D0103840B2002807DA0207120F083A98
:10D10000920892005118C96904E081080A4A89000E
:10D11000891809688007C00EC1400806800F0128E1
:10D1200003D0032803D0022070470020704701205D
:10D130007047000000ED00E000E400E042788378F2
:10D14000521C934200D100220378934201D1002067
:10D1500070470A60416840781822504308187047A9
:10D16000F8B51546069C1E4607460222009400F0BC
:10D170000AF8002806D13346102229463846009482
:10D1800000F001F8F8BDFFB583B0074600200C9C05
:10D190008646267805463AE07868A90041180A884C
:10D1A000684682804988C1800022694601A865DFFF
:10D1B000002810D1684601780598814226D1704632
:10D1C000002801D0002200E00222207889184118AE
:10D1D0001F2902D90C2007B0F0BD7146002908D1E3
:10D1E000401CC0B2411C069B049A21701A540120B5
:10D1F0008646217806980A18694601A865DF002846
:10D20000E9D1694620780978401820706D1C38886B
:10D21000A842C1DC7046002804D020780699801B03
:10D22000401E88550020D6E70179002902D1007BF5
:10D23000002800D0012070470B09080A01000000F7
:10D2400000509D00140000001300000012000000B8
:10D250001100000014000300ED9B01001300030007
:10D26000ED9B010012000300ED9B01001100030083
:10D27000ED9B0100D7BE010049B7010063B6010074
:10D2800005B80100D3BE010019B701005FB6010067
:10D29000FDB70100CFBE010069B601005BB6010019
:10D2A000F5B701000001000003000000C5CD01003A
:10D2B000E5CD010041CD010079CD010051CD010046
:10D2C00075CE010079A8010025A80100CDCE01008E
:10D2D00071B80100030000004A756E65000000008F
:10D2E0004D61726368000000417072696C0000005B
:10D2F000556E6B6E6F776E00446563656D62657227
:10D300000000000053657074656D62657200000076
:10D310004E6F76656D626572000000004F63746F3A
:10D320006265720041756775737400004D61790024
:10D3300046726964617900004D6F6E646179000026
:10D3400053756E646179000053617475726461791C
:10D35000000000005765646E657364617900000029
:10D36000547565736461790054687572736461798A
:10D37000000000004A756C79000000004A616E757B
:10D380006172790046656272756172790000000011
:10D39000B0D301000020002084010000AA82010017
:10D3A00008D40100842100204414000002860100FA
:10D3B0002196FFFF05180114F0D2011438D3011A89
:10D3C00060041A54041A68041A30041A48041A40F3
:10D3D0000429201A7C081A84041AE00C1AE8041A9A
:10D3E0002C0C1AD8081A74081A24041A04041A1CDB
:10D3F000041A10041AF8180130035AFFFF09308E7E
:08D40000015F1324F400000099
:04000005000180C1B5
:00000001FF
